:020000040800F2
:1000000000A00020952500081925000825250008D6
:100010002B250008312500083725000800000000C6
:100020000000000000000000000000003D25000866
:10003000492500080000000055250008612500083A
:10004000E5250008E5250008E5250008E525000868
:10005000E5250008E52500086D250008E5250008D0
:10006000E5250008E5250008E5250008E525000848
:10007000E5250008E5250008E5250008E525000838
:10008000E5250008E5250008E5250008E525000828
:10009000E5250008E5250008E5250008E525000818
:1000A000E5250008E5250008E5250008E525000808
:1000B000E5250008E5250008E5250008E5250008F8
:1000C000E5250008E5250008E5250008E5250008E8
:1000D000E5250008E5250008E5250008E5250008D8
:1000E000E5250008E5250008E5250008E5250008C8
:1000F000E5250008E5250008E5250008E5250008B8
:10010000000000000000000000000000E5250008DD
:10011000E5250008E5250008E5250008E525000897
:10012000E5250008E5250008E5250008E525000887
:10013000E5250008E525000800000000000000009B
:10014000E5250008E5250008E52500080000000079
:10015000000000000000000000000000000000009F
:100160000000000000000000E5250008E52500086B
:10017000E52500080000000000000000000000006D
:0801800000000000E525000865
:1001880010B5054C227832B9044B13B10448AFF3CB
:1001980000800123237010BD0C0000200000000027
:1001A8004026000808B5034B1BB103490348AFF3C9
:1001B800008008BD00000000100000204026000854
:1001C80080B500AF084B1B68074A43F01003136063
:1001D800032000F047F9002000F008F802F076F953
:1001E8000023184680BD00BF0020024080B582B0C1
:1001F80000AF7860124B1A68124B1B7819464FF4FF
:100208007A73B3FBF1F3B2FBF3F3184600F08EF9FF
:100218000346002B01D001230EE07B680F2B0AD880
:10022800002279684FF0FF3000F03CF9064A7B68FD
:100238001360002300E0012318460837BD4680BD3F
:1002480008000020040000200000002080B400AF57
:10025800054B1B781A46054B1B681344034A136069
:1002680000BFBD4680BC7047040000202800002065
:1002780080B400AF024B1B681846BD4680BC70476F
:100288002800002080B584B000AF7860FFF7F0FF49
:10029800B8607B68FB60FB68B3F1FF3F05D00A4B91
:1002A8001B781A46FB681344FB6000BFFFF7E0FFAA
:1002B8000246BB68D31AFA689A42F7D800BF00BF53
:1002C8001037BD4680BD00BF0400002080B485B053
:1002D80000AF78607B6803F00703FB600C4BDB68BA
:1002E800BB60BA684FF6FF031340BB60FB681A0295
:1002F800BB68134343F0BF6343F40033BB60044A55
:10030800BB68D36000BF1437BD4680BC704700BFD0
:1003180000ED00E080B400AF044BDB681B0A03F07B
:1003280007031846BD4680BC704700BF00ED00E0DB
:1003380080B483B000AF0346FB7197F90730002BF8
:100348000BDBFB7903F01F02064997F907305B09BD
:10035800012000FA02F241F8232000BF0C37BD4605
:1003680080BC704700E100E080B483B000AF034672
:100378003960FB7197F90730002B0ADB3B68DAB26A
:100388000C4997F907301201D2B20B4483F80023C5
:100398000AE03B68DAB20849FB7903F00F03043B33
:1003A8001201D2B20B441A7600BF0C37BD4680BC8E
:1003B800704700BF00E100E000ED00E080B489B0C4
:1003C80000AFF860B9607A60FB6803F00703FB616F
:1003D800FB69C3F10703042B28BF0423BB61FB6936
:1003E8000433062B02D9FB69033B00E000237B6141
:1003F8004FF0FF32BB6902FA03F3DA43BB681A40D5
:100408007B699A404FF0FF317B6901FA03F3D943C6
:100418007B680B40134318462437BD4680BC7047A1
:1004280080B582B000AF78607B68013BB3F1807F14
:1004380001D301230FE00A4A7B68013B53600F2177
:100448004FF0FF30FFF790FF054B00229A60044BF6
:1004580007221A60002318460837BD4680BD00BF32
:1004680010E000E080B582B000AF78607B68072BB1
:100478000FD07B68062B0CD07B68052B09D07B68D6
:10048800042B06D07B68032B03D0AC21044802F070
:1004980013F87868FFF71AFF00BF0837BD4680BD1C
:1004A8005826000880B586B000AF0346B9607A6068
:1004B800FB7300237B617B680F2B03D9C4210E4893
:1004C80001F0FAFFBB680F2B03D9C5210A4801F0D8
:1004D800F3FFFFF71FFF78617A68B9687869FFF75B
:1004E8006DFF024697F90F3011461846FFF73CFF9B
:1004F80000BF1837BD4680BD5826000880B582B0B9
:1005080000AF0346FB7197F90730002B03DAD821B7
:10051800054801F0D1FF97F907301846FFF708FFA3
:1005280000BF0837BD4680BD5826000880B582B098
:1005380000AF78607868FFF773FF034618460837FE
:10054800BD4680BD80B586B000AF786039600023B5
:100558007B617B68B3F1904F17D07B68394A93422F
:1005680013D07B68384A93420FD07B68374A93424E
:100578000BD07B68364A934207D07B68354A934252
:1005880003D0BA21344801F097FF3B681B689BB23F
:10059800002B05D03B681B681B0C1B04002B03D0E9
:1005A800BB212D4801F088FF3B685B68002B35D0E4
:1005B8003B685B68012B31D03B685B68112B2DD001
:1005C8003B685B68022B29D03B685B68122B25D0FF
:1005D8003B685B68214A934220D03B685B68204AAD
:1005E80093421BD03B685B681E4A934216D03B6817
:1005F8005B681D4A934211D03B685B681B4A934273
:100608000CD03B685B681A4A934207D03B685B682A
:10061800032B03D0BC21104801F04EFF3B689B68B8
:10062800002B00F0C8813B689B68012B00F0C38158
:100638003B689B68022B00F0BE81BD21064801F093
:100648003BFFB8E10004004800080048000C0048DF
:100658000010004800140048BC26000800001110D3
:1006680000002110000031100000121000002210BC
:10067800000032103B681A6801217B6901FA03F314
:100688001340FB60FB68002B00F092813B685B68BD
:10069800022B03D03B685B68122B4FD17B68B3F108
:1006A800904F17D07B68884A934213D07B68874A5B
:1006B80093420FD07B68864A93420BD07B68854A69
:1006C800934207D07B68844A934203D0CC21834865
:1006D80001F0F2FE3B681B690C2B0BD93B681B69C8
:1006E8000E2B07D03B681B690F2B03D0CD217B480D
:1006F80001F0E2FE7B69DA087B68083253F82230A1
:100708003B617B6903F007039B000F2202FA03F3A6
:10071800DB433A6913403B613B681A697B6903F024
:1007280007039B0002FA03F33A6913433B617B69B1
:10073800DA087B680832396943F822107B681B683D
:100748003B617B695B00032202FA03F3DB433A69EE
:1007580013403B613B685B6803F003027B695B0005
:1007680002FA03F33A6913433B617B683A691A60FA
:100778003B685B68012B0BD03B685B68022B07D09A
:100788003B685B68112B03D03B685B68122B40D138
:100798003B68DB68002B0BD03B68DB68012B07D07C
:1007A8003B68DB68032B03D0E1214C4801F084FE51
:1007B8007B689B683B617B695B00032202FA03F359
:1007C800DB433A6913403B613B68DA687B695B004D
:1007D80002FA03F33A6913433B617B683A699A600A
:1007E8007B685B683B6101227B6902FA03F3DB43A8
:1007F8003A6913403B613B685B681B0903F00102DF
:100808007B6902FA03F33A6913433B617B683A69EF
:100818005A607B68DB683B617B695B00032202FAF4
:1008280003F3DB433A6913403B613B689A687B6991
:100838005B0002FA03F33A6913433B617B683A6948
:10084800DA603B685B6803F08053002B00F0B080EF
:10085800234B9B69224A43F001039361204B9B6918
:1008680003F00103BB60BB681E4A7B699B08023327
:1008780052F823303B617B6903F003039B000F228E
:1008880002FA03F3DB433A6913403B617B68B3F137
:10089800904F29D07B680C4A934213D07B680B4A4F
:1008A80093420DD07B680A4A934207D07B68094A75
:1008B800934201D1042318E0052316E0032314E032
:1008C800022312E0012310E0000400480008004859
:1008D800000C00480010004800140048BC2600081E
:1008E800001002400000014000237A6902F0030270
:1008F800920093403A6913433B6135497B699B08F1
:1009080002333A6941F82320324B1B683B61FB688C
:10091800DB433A6913403B613B685B6803F480330F
:10092800002B03D03A69FB6813433B61294A3B69B2
:100938001360284B5B683B61FB68DB433A691340F3
:100948003B613B685B6803F40033002B03D03A69D2
:10095800FB6813433B611F4A3B6953601D4B9B680F
:100968003B61FB68DB433A6913403B613B685B686A
:1009780003F48013002B03D03A69FB6813433B61EF
:10098800144A3B699360134BDB683B61FB68DB43AC
:100998003A6913403B613B685B6803F40013002B22
:1009A80003D03A69FB6813433B610A4A3B69D36049
:1009B8007B6901337B613B681A687B6922FA03F320
:1009C800002B7FF457AE00BF00BF1837BD4680BD6F
:1009D800000001400004014080B584B000AF786099
:1009E8000B467B807B88002B04D07B881B0C1B0468
:1009F800002B04D040F28711094801F05DFD7B68A7
:100A08001A697B881340002B02D00123FB7301E095
:100A18000023FB73FB7B18461037BD4680BD00BF23
:100A2800BC26000880B582B000AF78600B467B809A
:100A380013467B707B88002B04D07B881B0C1B041F
:100A4800002B04D040F2A7110D4801F035FD7B784A
:100A5800002B07D07B78012B04D04FF4D4710848C1
:100A680001F02AFD7B78002B03D07A887B689A6195
:100A780002E07A887B689A6200BF0837BD4680BD6D
:100A8800BC26000880B582B000AF78600B467B803A
:100A98007B88002B04D07B881B0C1B04002B04D004
:100AA80040F2BD110A4801F007FD7B685A697B884E
:100AB8001340002B04D07B881A047B689A6102E0FB
:100AC8007A887B689A6100BF0837BD4680BD00BF41
:100AD800BC26000880B582B000AF0346FB80084BF7
:100AE8005A69FB881340002B06D0054AFB885361DE
:100AF800FB88184601F0B8FC00BF0837BD4680BD2A
:100B08000004014080B5ADF5007D00AF3B1D1860C5
:100B18003B1D1B68002B02D1012300F0F7BF3B1DD2
:100B28001B681B68002B20D03B1D1B681B6803F04B
:100B38000103002B19D13B1D1B681B6803F002033E
:100B4800002B12D13B1D1B681B6803F00803002B08
:100B58000BD13B1D1B681B6803F00403002B04D159
:100B680040F24B11C34801F0A7FC3B1D1B681B68F2
:100B780003F00103002B00F082813B1D1B685B68BA
:100B8800002B10D03B1D1B685B68B3F5803F0AD073
:100B98003B1D1B685B68B3F5A02F04D040F25111D0
:100BA800B44801F089FCB44B5B6803F00C03042BD8
:100BB8000CD0B14B5B6803F00C03082B59D1AE4B3A
:100BC8005B6803F48033B3F5803F52D14FF40033B0
:100BD800C7F8F031D7F8F03193FAA3F3C7F8EC313E
:100BE800D7F8EC31B3FA83F3DBB25B09DBB243F03D
:100BF8000103DBB2012B02D19F4B1B6815E04FF4B8
:100C08000033C7F8E831D7F8E83193FAA3F3C7F807
:100C1800E4314FF40033C7F8E031D7F8E03193FA04
:100C2800A3F3C7F8DC31944B5B6A4FF40032C7F882
:100C3800D821D7F8D82192FAA2F2C7F8D421D7F848
:100C4800D421B2FA82F2D2B242F02002D2B202F039
:100C58001F02012101FA02F21340002B00F00E815D
:100C68003B1D1B685B68002B40F00881012300F0E6
:100C78004DBF3B1D1B685B68B3F5803F06D17E4BBB
:100C88001B687D4A43F48033136030E03B1D1B68CA
:100C98005B68002B0CD1784B1B68774A23F48033B0
:100CA8001360754B1B68744A23F4802313601EE09D
:100CB8003B1D1B685B68B3F5A02F0CD16E4B1B68FE
:100CC8006D4A43F4802313606B4B1B686A4A43F4F4
:100CD800803313600BE0684B1B68674A23F480334A
:100CE8001360654B1B68644A23F480231360624BCE
:100CF800DB6A23F00F023B1D1B689B685E491343A8
:100D0800CB623B1D1B685B68002B59D0FFF7B0FA1C
:100D1800C7F8F8010AE0FFF7ABFA0246D7F8F8314E
:100D2800D31A642B02D9032300F0F0BE4FF400332A
:100D3800C7F8D031D7F8D03193FAA3F3C7F8CC313C
:100D4800D7F8CC31B3FA83F3DBB25B09DBB243F0FB
:100D58000103DBB2012B02D1474B1B6815E04FF4AE
:100D68000033C7F8C831D7F8C83193FAA3F3C7F8E6
:100D7800C4314FF40033C7F8C031D7F8C03193FA03
:100D8800A3F3C7F8BC313C4B5B6A4FF40032C7F899
:100D9800B821D7F8B82192FAA2F2C7F8B421D7F847
:100DA800B421B2FA82F2D2B242F02002D2B202F0F8
:100DB8001F02012101FA02F21340002BABD05EE0C2
:100DC800FFF756FAC7F8F8010AE0FFF751FA0246AA
:100DD800D7F8F831D31A642B02D9032300F096BE52
:100DE8004FF40033C7F8B031D7F8B03193FAA3F312
:100DF800C7F8AC31D7F8AC31B3FA83F3DBB25B098F
:100E0800DBB243F00103DBB2012B02D11A4B1B68A2
:100E180015E04FF40033C7F8A831D7F8A83193FA92
:100E2800A3F3C7F8A4314FF40033C7F8A031D7F8BB
:100E3800A03193FAA3F3C7F89C310F4B5B6A4FF4C8
:100E48000032C7F89821D7F8982192FAA2F2C7F889
:100E58009421D7F89421B2FA82F2D2B242F0200259
:100E6800D2B202F01F02012101FA02F21340002B54
:100E7800ABD104E01C2700080010024000BF3B1D56
:100E88001B681B6803F00203002B00F08C813B1DDC
:100E98001B681B69002B09D03B1D1B681B69012BB4
:100EA80004D040F28911A74801F006FB3B1D1B68DE
:100EB8005B691F2B04D94FF4C571A24801F0FCFAF5
:100EC800A14B5B6803F00C03002B0BD09E4B5B68B7
:100ED80003F00C03082B6CD19B4B5B6803F4803345
:100EE800002B66D10223C7F89031D7F8903193FAD6
:100EF800A3F3C7F88C31D7F88C31B3FA83F3DBB29C
:100F08005B09DBB243F00103DBB2012B02D18E4B4C
:100F18001B6813E00223C7F88831D7F8883193FAA1
:100F2800A3F3C7F884310223C7F88031D7F880319A
:100F380093FAA3F3C7F87C31834B5B6A0222C7F8A4
:100F48007821D7F8782192FAA2F2C7F87421D7F855
:100F58007421B2FA82F2D2B242F02002D2B202F086
:100F68001F02012101FA02F21340002B07D03B1D9A
:100F78001B681B69012B02D0012300F0C7BD724B0F
:100F88001B6823F0F8023B1D1B685B69F821C7F852
:100F98007011D7F8701191FAA1F1C7F86C11D7F850
:100FA8006C11B1FA81F1C9B28B40674913430B60E8
:100FB800F9E03B1D1B681B69002B00F085800123AD
:100FC800C7F86831D7F8683193FAA3F3C7F86431E2
:100FD800D7F86431B3FA83F3DBB203F1845303F532
:100FE80084139B001A4601231360FFF741F9C7F8E1
:100FF800F8010AE0FFF73CF90246D7F8F831D31AAE
:10100800022B02D9032300F081BD0223C7F8603107
:10101800D7F8603193FAA3F3C7F85C31D7F85C319D
:10102800B3FA83F3DBB25B09DBB243F00103DBB253
:10103800012B02D1444B1B6813E00223C7F8583137
:10104800D7F8583193FAA3F3C7F854310223C7F8F5
:101058005031D7F8503193FAA3F3C7F84C313A4BD3
:101068005B6A0222C7F84821D7F8482192FAA2F20F
:10107800C7F84421D7F84421B2FA82F2D2B242F03A
:101088002002D2B202F01F02012101FA02F213403B
:10109800002BAFD02C4B1B6823F0F8023B1D1B68BC
:1010A8005B69F821C7F84011D7F8401191FAA1F10E
:1010B800C7F83C11D7F83C11B1FA81F1C9B28B409D
:1010C800214913430B606EE00123C7F83831D7F884
:1010D800383193FAA3F3C7F83431D7F83431B3FA77
:1010E80083F3DBB203F1845303F584139B001A46A0
:1010F80000231360FFF7BCF8C7F8F8010AE0FFF710
:10110800B7F80246D7F8F831D31A022B02D90323CD
:1011180000F0FCBC0223C7F83031D7F8303193FA1D
:10112800A3F3C7F82C31D7F82C31B3FA83F3DBB229
:101138005B09DBB243F00103DBB2012B06D1024BA2
:101148001B6817E01C270008001002400223C7F89C
:101158002831D7F8283193FAA3F3C7F824310223AA
:10116800C7F82031D7F8203193FAA3F3C7F81C3118
:10117800BF4B5B6A0222C7F81821D7F8182192FAE8
:10118800A2F2C7F81421D7F81421B2FA82F2D2B227
:1011980042F02002D2B202F01F02012101FA02F24B
:1011A8001340002BABD13B1D1B681B6803F00803E1
:1011B800002B00F0E6803B1D1B689B69002B09D0C3
:1011C8003B1D1B689B69012B04D04FF4E571A948AE
:1011D80001F072F93B1D1B689B69002B65D0012348
:1011E800C7F81031D7F8103193FAA3F3C7F80C31C8
:1011F800D7F80C31B3FA83F3DBB21A469E4B13448B
:101208009B001A4601231360FFF732F8C7F8F8016C
:101218000AE0FFF72DF80246D7F8F831D31A022B67
:1012280002D9032300F072BC0223C7F80831D7F8AB
:10123800083193FAA3F3C7F8043107F58073022243
:101248001A6007F580731B6893FAA3F207F1FC0391
:101258001A6007F1F80302221A6007F1F8031B6805
:1012680093FAA3F207F1F4031A60814B5A6A07F163
:10127800F0030221196007F1F0031B6893FAA3F148
:1012880007F1EC03196007F1EC031B68B3FA83F369
:10129800DBB243F06003DBB203F01F03012101FA64
:1012A80003F31340002BB4D06BE007F1E8030122ED
:1012B8001A6007F1E8031B6893FAA3F207F1E40345
:1012C8001A6007F1E4031B68B3FA83F3DBB21A462A
:1012D800694B13449B001A4600231360FEF7C8FFAE
:1012E800C7F8F8010AE0FEF7C3FF0246D7F8F8315D
:1012F800D31A022B02D9032300F008BC07F1E0033C
:1013080002221A6007F1E0031B6893FAA3F207F1BF
:10131800DC031A6007F1D80302221A6007F1D80328
:101328001B6893FAA3F207F1D4031A6007F1D003FC
:1013380002221A6007F1D0031B6893FAA3F207F19F
:10134800CC031A604A4B5A6A07F1C8030221196094
:1013580007F1C8031B6893FAA3F107F1C4031960E6
:1013680007F1C4031B68B3FA83F3DBB243F06003ED
:10137800DBB203F01F03012101FA03F31340002B32
:10138800B1D13B1D1B681B6803F00403002B00F060
:101398007081002387F8FF313B1D1B68DB68002B39
:1013A8000ED03B1D1B68DB68012B09D03B1D1B6859
:1013B800DB68052B04D04FF4FB712E4801F07CF854
:1013C8002B4BDB6903F08053002B12D1284BDB69D0
:1013D800274A43F08053D361254BDB6903F08052E1
:1013E80007F108031A6007F108031B68012387F84F
:1013F800FF31224B1B6803F48073002B1AD11F4B5B
:101408001B681E4A43F480731360FEF731FFC7F868
:10141800F80109E0FEF72CFF0246D7F8F831D31A95
:10142800642B01D9032371E3144B1B6803F4807305
:10143800002BEFD03B1D1B68DB68012B06D10C4B42
:101448001B6A0B4A43F00103136237E03B1D1B681C
:10145800DB68002B14D1064B1B6A054A23F00103F5
:101468001362034B1B6A024A23F00403136225E04C
:10147800001002401C2700082081901000700040D6
:101488003B1D1B68DB68052B0CD15E4B1B6A5D4A54
:1014980043F0040313625B4B1B6A5A4A43F001038F
:1014A80013620BE0574B1B6A564A23F00103136281
:1014B800544B1B6A534A23F0040313623B1D1B68F9
:1014C800DB68002B64D0FEF7D3FEC7F8F8010BE009
:1014D800FEF7CEFE0246D7F8F831D31A41F2883229
:1014E800934201D9032311E307F1C00302221A60D2
:1014F80007F1C0031B6893FAA3F207F1BC031A6053
:1015080007F1B80302221A6007F1B8031B6893FABF
:10151800A3F207F1B4031A6007F1B4031B68B3FA26
:1015280083F3DBB25B09DBB243F00203DBB2022BCD
:1015380002D1344B1B6A0DE007F1B00302221A6096
:1015480007F1B0031B6893FAA3F207F1AC031A6022
:101558002C4B5B6A07F1A8020221116007F1A8026F
:10156800126892FAA2F107F1A402116007F1A4022D
:101578001268B2FA82F2D2B242F04002D2B202F05B
:101588001F02012101FA02F21340002BA0D066E0ED
:10159800FEF76EFEC7F8F8010BE0FEF769FE02469B
:1015A800D7F8F831D31A41F28832934201D903238C
:1015B800ACE207F1A00302221A6007F1A0031B683E
:1015C80093FAA3F207F19C031A6007F19803022229
:1015D8001A6007F198031B6893FAA3F207F19403C2
:1015E8001A6007F194031B68B3FA83F3DBB25B0953
:1015F800DBB243F00203DBB2022B05D1014B1B6ABD
:1016080010E000BF0010024007F1900302221A60A8
:1016180007F190031B6893FAA3F207F18C031A6091
:10162800B64B5B6A07F188020221116007F1880254
:10163800126892FAA2F107F18402116007F184029C
:101648001268B2FA82F2D2B242F04002D2B202F08A
:101658001F02012101FA02F21340002B9DD197F8D5
:10166800FF31012B05D1A54BDB69A44A23F0805338
:10167800D3613B1D1B68DB69002B0ED03B1D1B682B
:10168800DB69012B09D03B1D1B68DB69022B04D0E9
:1016980040F23A219A4800F00FFF3B1D1B68DB69B6
:1016A800002B00F03282954B5B6803F00C03082B8B
:1016B80000F00C823B1D1B68DB69022B40F0848123
:1016C8003B1D1B681B6A002B0AD03B1D1B681B6A4D
:1016D800B3F5803F04D040F24321894800F0ECFE86
:1016E8003B1D1B685B6A002B58D03B1D1B685B6A5F
:1016F800B3F5802F52D03B1D1B685B6AB3F5002FF2
:101708004CD03B1D1B685B6AB3F5402F46D03B1D90
:101718001B685B6AB3F5801F40D03B1D1B685B6A82
:10172800B3F5A01F3AD03B1D1B685B6AB3F5C01F19
:1017380034D03B1D1B685B6AB3F5E01F2ED03B1D00
:101748001B685B6AB3F5001F28D03B1D1B685B6AEA
:10175800B3F5101F22D03B1D1B685B6AB3F5201F31
:101768001CD03B1D1B685B6AB3F5301F16D03B1DB0
:101778001B685B6AB3F5401F10D03B1D1B685B6A92
:10178800B3F5501F0AD03B1D1B685B6AB3F5601F99
:1017980004D04FF411715A4800F08EFE07F180030F
:1017A8004FF080721A6007F180031B6893FAA3F266
:1017B80007F17C031A6007F17C031B68B3FA83F313
:1017C800DBB203F1845303F584139B001A4600230C
:1017D8001360FEF74DFDC7F8F80109E0FEF748FD74
:1017E8000246D7F8F831D31A022B01D903238DE129
:1017F80007F178034FF000721A6007F178031B684D
:1018080093FAA3F207F174031A6007F174031B68D3
:10181800B3FA83F3DBB25B09DBB243F00103DBB25B
:10182800012B02D1354B1B681BE007F170034FF009
:1018380000721A6007F170031B6893FAA3F207F1AC
:101848006C031A6007F168034FF000721A6007F121
:1018580068031B6893FAA3F207F164031A60274B25
:101868005B6A07F160024FF00071116007F16002D6
:10187800126892FAA2F107F15C02116007F15C02AA
:101888001268B2FA82F2D2B242F02002D2B202F068
:101898001F02012101FA02F21340002B9ED1174BBF
:1018A8005B6823F474123B1D1B68596A3B1D1B6857
:1018B8001B6A0B43114913434B6007F158034FF060
:1018C80080721A6007F158031B6893FAA3F207F1B4
:1018D80054031A6007F154031B68B3FA83F3DBB2AD
:1018E80003F1845303F584139B001A460123136004
:1018F800FEF7BEFCC7F8F8010EE000BF001002407A
:101908001C270008FEF7B4FC0246D7F8F831D31AB2
:10191800022B01D90323F9E007F150034FF00072BD
:101928001A6007F150031B6893FAA3F207F14C03FE
:101938001A6007F14C031B68B3FA83F3DBB25B0947
:10194800DBB243F00103DBB2012B02D1724B1B68FF
:101958001BE007F148034FF000721A6007F14803D3
:101968001B6893FAA3F207F144031A6007F14003D6
:101978004FF000721A6007F140031B6893FAA3F254
:1019880007F13C031A60644B5B6A07F138024FF0B9
:101998000071116007F13802126892FAA2F107F19A
:1019A8003402116007F134021268B2FA82F2D2B23C
:1019B80042F02002D2B202F01F02012101FA02F223
:1019C8001340002B9ED0A0E007F130034FF0807247
:1019D8001A6007F130031B6893FAA3F207F12C038E
:1019E8001A6007F12C031B68B3FA83F3DBB203F127
:1019F800845303F584139B001A4600231360FEF7F3
:101A080037FCC7F8F80109E0FEF732FC0246D7F8C0
:101A1800F831D31A022B01D9032377E007F1280301
:101A28004FF000721A6007F128031B6893FAA3F2BB
:101A380007F124031A6007F124031B68B3FA83F340
:101A4800DBB25B09DBB243F00103DBB2012B02D14D
:101A5800314B1B681BE007F120034FF000721A603E
:101A680007F120031B6893FAA3F207F11C031A601D
:101A780007F118034FF000721A6007F118031B688A
:101A880093FAA3F207F114031A60234B5B6A07F178
:101A980010024FF00071116007F11002126892FAFB
:101AA800A2F107F10C02116007F10C021268B2FAF8
:101AB80082F2D2B242F02002D2B202F01F02012119
:101AC80001FA02F21340002B9ED11EE03B1D1B6859
:101AD800DB69012B01D1012318E00F4B5B68C7F8C4
:101AE800F431D7F8F43103F480323B1D1B681B6ACC
:101AF8009A4208D1D7F8F43103F470123B1D1B68E1
:101B08005B6A9A4201D0012300E00023184607F5DA
:101B18000077BD4680BD00BF0010024080B59EB072
:101B280000AF7860396000237B677B68002B01D1A8
:101B3800012303E27B681B6803F00103002B16D125
:101B48007B681B6803F00203002B10D17B681B68BD
:101B580003F00403002B0AD17B681B6803F0080319
:101B6800002B04D140F2C321A54800F0A5FC3B6836
:101B7800002B0AD03B68012B07D03B68022B04D00E
:101B88004FF431719E4800F097FC9E4B1B6803F0A0
:101B980007033A689A4210D99A4B1B6823F0070248
:101BA80098493B6813430B60964B1B6803F0070387
:101BB8003A689A4201D00123C0E17B681B6803F0B0
:101BC8000203002B31D07B689B68002B24D07B68F4
:101BD8009B68802B20D07B689B68902B1CD07B68EF
:101BE8009B68A02B18D07B689B68B02B14D07B68AF
:101BF8009B68C02B10D07B689B68D02B0CD07B686F
:101C08009B68E02B08D07B689B68F02B04D040F2DF
:101C1800DB217B4800F050FC7B4B5B6823F0F00233
:101C28007B689B68784913434B607B681B6803F0AB
:101C38000103002B00F0F3807B685B68002B0CD05D
:101C48007B685B68012B08D07B685B68022B04D03B
:101C580040F2E2216A4800F02FFC7B685B68012BA8
:101C68003CD14FF400333B673B6F93FAA3F3FB6619
:101C7800FB6EB3FA83F3DBB25B09DBB243F001031B
:101C8800DBB2012B02D1604B1B680FE04FF400332D
:101C9800BB66BB6E93FAA3F37B664FF400333B66D7
:101CA8003B6E93FAA3F3FB65574B5B6A4FF4003224
:101CB800BA65BA6D92FAA2F27A657A6DB2FA82F2D0
:101CC800D2B242F02002D2B202F01F02012101FA80
:101CD80002F21340002B7BD101232FE17B685B6864
:101CE800022B3CD14FF000733B653B6D93FAA3F395
:101CF800FB64FB6CB3FA83F3DBB25B09DBB243F042
:101D08000103DBB2012B02D13F4B1B680FE04FF000
:101D18000073BB64BB6C93FAA3F37B644FF000734E
:101D28003B643B6C93FAA3F3FB63374B5B6A4FF05E
:101D38000072BA63BA6B92FAA2F27A637A6BB2FA59
:101D480082F2D2B242F02002D2B202F01F02012186
:101D580001FA02F21340002B3AD10123EEE00223EC
:101D68003B633B6B93FAA3F3FB62FB6AB3FA83F31F
:101D7800DBB25B09DBB243F00103DBB2012B02D11A
:101D8800214B1B680DE00223BB62BB6A93FAA3F3E5
:101D98007B6202233B623B6A93FAA3F3FB611A4B13
:101DA8005B6A0222BA61BA6992FAA2F27A617A6926
:101DB800B2FA82F2D2B242F02002D2B202F01F028C
:101DC800012101FA02F21340002B01D10123B5E0F1
:101DD8000D4B5B6823F003027B685B680A49134379
:101DE8004B60FEF745FA786710E0FEF741FA0246C5
:101DF8007B6FD31A41F28832934207D903239DE0BF
:101E08001C27000800200240001002404D4B5B6870
:101E180003F00C027B685B689B009A42E5D14A4B51
:101E28001B6803F007033A689A4210D2464B1B68B6
:101E380023F0070244493B6813430B60424B1B687D
:101E480003F007033A689A4201D0012376E07B68E1
:101E58001B6803F00403002B25D07B68DB68002B8C
:101E680018D07B68DB68B3F5806F13D07B68DB68BC
:101E7800B3F5A06F0ED07B68DB68B3F5C06F09D0EF
:101E88007B68DB68B3F5E06F04D040F21E312F4861
:101E980000F012FB2B4B5B6823F4E0627B68DB6885
:101EA800284913434B607B681B6803F00803002B29
:101EB80026D07B681B69002B18D07B681B69B3F59B
:101EC800806F13D07B681B69B3F5A06F0ED07B6859
:101ED8001B69B3F5C06F09D07B681B69B3F5E06F68
:101EE80004D040F22531194800F0E6FA154B5B683A
:101EF80023F460527B681B69DB00124913434B6073
:101F080000F02CF801460F4B5B6803F0F003F02259
:101F18003A613A6992FAA2F2FA60FA68B2FA82F27F
:101F2800D2B2D3400A4AD35C21FA03F3094A1360B8
:101F3800094B1B681846FEF759F9002318467837ED
:101F4800BD4680BD00100240002002401C2700084A
:101F58009C270008080000200000002080B48BB0F7
:101F680000AF0023FB610023BB6100237B620023D9
:101F78007B6100233B62284B5B68FB61FB6903F0D4
:101F88000C03042B02D0082B03D03CE0234B3B620C
:101F98003CE0FB6903F470134FF47012BA60BA683E
:101FA80092FAA2F27A607A68B2FA82F2D2B2D34096
:101FB8001B4AD35C7B61184BDB6A03F00F030F22CB
:101FC8003A613A6992FAA2F2FA60FA68B2FA82F2CF
:101FD800D2B2D340134AD35CBB61FB6903F48033AC
:101FE800002B08D00D4ABB69B2FBF3F27B6902FBF8
:101FF80003F37B6204E07B690B4A02FB03F37B6219
:102008007B6A3B6202E0054B3B6200BF3B6A1846B5
:102018002C37BD4680BC70470010024000127A0081
:102028007C2700088C27000800093D0080B58AB08D
:1020380000AF07F1140300221A605A609A60DA6050
:102048001A614F4B5B694E4A43F4003353614C4B62
:102058005B6903F400333B613B69494B5B69484A60
:1020680043F480235361464B5B6903F48023FB6090
:10207800FB68434B5B69424A43F400135361404B8E
:102088005B6903F40013BB60BB683D4B5B693C4A6A
:1020980043F4801353613A4B5B6903F480137B600C
:1020A8007B6800224FF47F413648FEF7BBFC0022D4
:1020B800FF213548FEF7B6FC0022F0213348FEF731
:1020C800B1FC01237B61324BBB610023FB6107F14B
:1020D800140319464FF09040FEF734FA06237B614B
:1020E8000023BB610023FB6107F11403194627484D
:1020F800FEF728FA4FF47F437B610123BB6100237D
:10210800FB6100233B6207F1140319461D48FEF7E3
:1021180019FAFF237B610123BB610223FB610123C1
:102128003B6207F1140319461748FEF70BFA3023F0
:102138007B610123BB610223FB6100233B6207F142
:10214800140319461148FEF7FDF9C0237B610123EA
:10215800BB610023FB6101233B6207F114031946AD
:102168000A48FEF7EFF9002200210620FEF79AF947
:102178000620FEF7C3F900BF2837BD4680BD00BF63
:102188000010024000100048000C004800040048FD
:102198000000111080B582B000AF0346FB71FB79D7
:1021A800032B37D801A252F823F000BFC52100083D
:1021B800DB210008F1210008072200080022402145
:1021C8001748FEF72FFC002280211548FEF72AFC4D
:1021D80021E0012240211248FEF724FC0022802140
:1021E8000F48FEF71FFC16E0002240210C48FEF7BE
:1021F80019FC012280210A48FEF714FC0BE0012299
:1022080040210748FEF70EFC012280210448FEF712
:1022180009FC00E000BF00BF0837BD4680BD00BF15
:102228000004004880B483B000AF78600B46FB70B0
:102238001346BB70BB78002B09D07B685B69FA78C2
:10224800012101FA02F21A437B685A6109E07B68AE
:102258005B69FA78012101FA02F2D2431A407B68DD
:102268005A6100BF0C37BD4680BC704780B584B04A
:1022780000AF03460A46FB711346BB71FB7918464B
:10228800FFF788FF0023FB732DE0FA7BFB7B1B0124
:102298001A43194B5A61BA79FB7919461648FFF760
:1022A800C1FFFB790433DBB2BA7919461248FFF74C
:1022B800B9FF0120FDF7E6FF02211048FEF78CFB6D
:1022C80003461A46BB799A4208D104210B48FEF707
:1022D80083FB03461A46BB799A4201D0002306E0E5
:1022E800FB7B0133FB73FB7B0E2BCED901231846F6
:1022F8001037BD4680BD00BF000C004800040048F0
:1023080080B582B000AF00224FF400612448FEF788
:1023180089FB00224FF400712148FEF783FB01225C
:102328004FF480611E48FEF77DFB0023FB7125E01A
:10233800FB7901211846FFF799FF034683F0010353
:10234800DBB2002B0AD1FB7900211846FFF78EFF7C
:10235800034683F00103DBB2002B0CD001224FF4BB
:1023680000710F48FEF75EFB00224FF480610C48B5
:10237800FEF758FB11E0FB790133FB71FB79032B66
:10238800D6D900224FF480610548FEF74BFB0122A5
:102398004FF400610248FEF745FB0837BD4680BD93
:1023A8000010004880B500AFFDF70AFF00F01AF8EA
:1023B800FFF73CFE4FF480710848FEF763FB4FF4CB
:1023C800FA70FDF75FFF064B1B78DBB2002BF1D0EC
:1023D800FFF796FF024B00221A70EBE70010004847
:1023E8002C00002080B590B000AF07F11803282218
:1023F8000021184600F018F93B1D00221A605A60A7
:102408009A60DA601A610223BB610123BB62102360
:10241800FB6202237B630023BB634FF42013FB633F
:1024280007F118031846FEF76DFB0346002B01D091
:1024380000F03CF80F237B600223BB600023FB60A5
:102448004FF480633B6100237B613B1D01211846EB
:10245800FFF764FB0346002B01D000F027F800BF0C
:102468004037BD4680BD000080B582B000AF03464E
:10247800FB80FB88012B11D1FDF7FAFE0246094BC0
:102488001B68D31A312B08D9FDF7F2FE0346054A1B
:102498001360054B01221A7000E000BF0837BD46E3
:1024A80080BD00BF300000202C00002080B400AFA9
:1024B80000BFBD4680BC704780B483B000AF786071
:1024C800396000BF0C37BD4680BC704780B483B00C
:1024D80000AF0E4B9B690D4A43F0010393610B4B10
:1024E8009B6903F001037B607B68084BDB69074A43
:1024F80043F08053D361054BDB6903F080533B60A5
:102508003B6800BF0C37BD4680BC704700100240D6
:1025180080B400AF00BFBD4680BC704780B400AF38
:10252800FEE780B400AFFEE780B400AFFEE780B4FA
:1025380000AFFEE780B400AF00BFBD4680BC704767
:1025480080B400AF00BFBD4680BC704780B400AF08
:1025580000BFBD4680BC704780B500AFFDF776FE72
:1025680000BF80BD80B500AF0120FEF7B3FA00BF01
:1025780080BD000080B400AF034B4FF000629A604A
:1025880000BFBD4680BC704700ED00E0DFF834D0E6
:10259800002103E00C4B5B58435004310B480C4BB3
:1025A80042189A42F6D30B4A02E0002342F8043B51
:1025B800094B9A42F9D3FFF7DDFF00F011F8FFF756
:1025C800F1FEFEE700A00020B4270008000000206C
:1025D8000C0000200C00002034000020FEE7000062
:1025E80070B50D4D0D4C641BA4100026A64209D1F0
:1025F8000B4D0C4C00F020F8641BA4100026A642DA
:1026080005D170BD55F8043B98470136EEE755F8FB
:10261800043B98470136F2E7AC270008AC270008CE
:10262800AC270008B027000802440346934200D1B3
:10263800704703F8011BF9E7F8B500BFF8BC08BC00
:102648009E467047F8B500BFF8BC08BC9E46704768
:102658002F686F6D652F66656E69782F70722F739E
:1026680075626A2F504F4B2F6578616D2F6D7578A5
:102678005F373468633135316E2F4472697665721D
:10268800732F53544D3332463378785F48414C5F4B
:102698004472697665722F5372632F73746D333287
:1026A800663378785F68616C5F636F727465782EE3
:1026B800630000002F686F6D652F66656E69782F5F
:1026C80070722F7375626A2F504F4B2F6578616D4A
:1026D8002F6D75785F373468633135316E2F4472EA
:1026E80069766572732F53544D3332463378785F69
:1026F80048414C5F4472697665722F5372632F7339
:10270800746D3332663378785F68616C5F677069BF
:102718006F2E63002F686F6D652F66656E69782F61
:1027280070722F7375626A2F504F4B2F6578616DE9
:102738002F6D75785F373468633135316E2F447289
:1027480069766572732F53544D3332463378785F08
:1027580048414C5F4472697665722F5372632F73D8
:10276800746D3332663378785F68616C5F72636367
:102778002E63000002030405060708090A0B0C0D66
:102788000E0F10100102030405060708090A0B0CB6
:102798000D0E0F10000000000000000001020304ED
:0427A800060708090F
:0427AC00AD01000873
:0427B0008901000893
:0C27B400100000000100000000127A007C
:040000050800259535
:00000001FF
