:020000040800F2
:1000000000A00020F9300008B12E0008B32E00082F
:10001000B52E0008B72E0008B92E00080000000019
:10002000000000000000000000000000BB2E0008DF
:10003000BD2E000800000000BF2E0008C12E0008E1
:1000400049310008493100084931000849310008A8
:100050004931000849310008493100084931000898
:100060004931000849310008493100084931000888
:100070004931000849310008493100084931000878
:100080004931000849310008493100084931000868
:100090004931000849310008493100084931000858
:1000A00049310008C92E00084931000849310008CB
:1000B0004931000849310008493100084931000838
:1000C0004931000849310008493100084931000828
:1000D0004931000849310008493100084931000818
:1000E0004931000849310008493100084931000808
:1000F00049310008493100084931000849310008F8
:10010000000000000000000000000000493100086D
:1001100049310008493100084931000849310008D7
:1001200049310008493100084931000849310008C7
:1001300049310008493100080000000000000000BB
:100140004931000849310008493100080000000029
:10015000000000000000000000000000000000009F
:10016000000000000000000049310008493100088B
:1001700049310008000000000000000000000000FD
:080180000000000049310008F5
:1001880010B5054C237833B9044B13B10448AFF3C9
:1001980000800123237010BD0C0000200000000027
:1001A800A431000808B5034B1BB103490348AFF35A
:1001B800008008BD0000000010000020A4310008E5
:1001C80010B504460E4B18784FF47A73B3FBF0F36E
:1001D8000C4A1068B0FBF3F000F0B6F868B90F2CC1
:1001E80001D901200AE0002221464FF0FF3000F03B
:1001F8004DF8034B5C60002000E0012010BD00BFFB
:10020800000000200800002008B5074A136843F0E2
:1002180010031360032000F01BF80020FFF7D0FF45
:1002280002F02AFE002008BD00200240034A11689F
:10023800034B1B780B441360704700BF300000204D
:1002480000000020014B1868704700BF30000020F4
:1002580010B50446C31E042B0FD80A4AD36823F4EA
:10026800E0631B041B0C240204F4E064234343F002
:10027800BF6343F40033D36010BDAC21024802F0E1
:10028800FAFDEAE700ED00E0F431000870B5054634
:100298000C4616460F2A25D80F2C28D81B4BDB688E
:1002A800C3F30223C3F10702042A28BF0422191D3D
:1002B800062921D9033B4FF0FF3101FA02F224EA63
:1002C80002049C4001FA03F326EA03063443002D96
:1002D80014DB2401E4B205F1604505F5614585F8B4
:1002E800004370BDC4210A4802F0C5FDD4E7C5210A
:1002F800074802F0C0FDD1E70023DCE705F00F0551
:100308002401E4B2034B5C55EBE700BF00ED00E0CD
:10031800F431000814ED00E010B5041E0ADB002CCF
:1003280007DB04F01F02640901239340044A42F8E2
:10033800243010BDD821034802F09DFDEFE700BF2F
:1003480000E100E0F43100080138B0F1807F0AD202
:10035800064B5860064AF02182F823100020986066
:1003680007221A6070470120704700BF10E000E0C4
:1003780000ED00E02DE9F04782B006460C46B0F1EA
:10038800904F16D0A44B984213D003F5806398423F
:100398000FD003F5806398420BD003F58063984231
:1003A80007D003F58063984203D0BA219B4802F036
:1003B80062FD23689AB212B11B0C1B041BB1BB214E
:1003C800964802F058FD6368012B1ED9112B1CD0EA
:1003D800022B1AD0122B18D0914A934215D002F54D
:1003E8008012934211D002F5801293420DD0A2F5EB
:1003F800F812934209D002F58012934205D002F513
:100408008012934201D0032B04D1A368022B06D893
:1004180000254AE0BC21814802F02DFDF5E7BD2109
:100428007E4802F028FDF3E7CD217C4802F023FD49
:100438006DE0E121794802F01EFD98E0042300E018
:1004480000238B4003430232764941F82230764B31
:100458001A68FB4303EA0201606810F4803F01D088
:1004680047EA0201704A1160526803EA02016068B3
:1004780010F4003F01D047EA02016B4A51609268CC
:1004880003EA0201606810F4801F01D047EA020104
:10049800654A9160D2681340616811F4001F01D069
:1004A80047EA0203604AD3600135276837FA05F343
:1004B80000F0AF804FF0010808FA05F818EA0707BE
:1004C800F2D06368022B01D0122B30D1B6F1904FD5
:1004D80016D0514B9E4213D003F580639E420FD035
:1004E80003F580639E420BD003F580639E4207D0DC
:1004F80003F580639E4203D0CC21484802F0BBFC40
:1005080023690C2B03D90E2B01D00F2B8CD1EA08B1
:10051800083256F8220005F0070399000F238B4094
:1005280020EA030023698B40034346F822303268EF
:100538004FEA450A4FF0030909FA0AF96FEA09096F
:1005480009EA0202636803F0030303FA0AF3134398
:10055800336063685A1E012A03D9112B01D0122B6C
:1005680017D1E368012B02D9032B7FF462AFB2687D
:1005780009EA0202E36803FA0AF31343B3607368F3
:1005880023EA08086368C3F30013AB4043EA08038F
:100598007360F36809EA0309A36803FA0AF343EAF4
:1005A8000903F360636813F0805F3FF47DAF1F4B6E
:1005B8009A6942F001029A619B6903F00103019371
:1005C800019BAA08911C174B53F8210005F003035F
:1005D80099000F238B4020EA0300B6F1904F3FF4B7
:1005E8002FAF0D4B9E420ED003F580639E420CD078
:1005F80003F580639E420AD003F580639E423FF470
:100608001DAF05231DE701231BE7022319E7032379
:1006180017E702B0BDE8F087000400483032000850
:1006280000001110000001400004014000100240C9
:1006380070B5054614460E4621B1012C08D86CB990
:10064800AE6270BD40F2A711054802F014FCF4E751
:100658004FF4D471024802F00EFCF0E7AE61F0E707
:1006680030320008002800F09C8370B582B0044640
:10067800036813B113F00F0F2BD0236813F0010F89
:100688004FD063682BB1B3F5803F02D0B3F5A02FEC
:1006980025D1B44B5B6803F00C03042B2AD0B14B73
:1006A8005B6803F00C03082B1FD06368B3F5803F29
:1006B8007CD0002B40F0A68003F1804303F504337F
:1006C8001A6822F480321A601A6822F480221A60AA
:1006D80071E040F24B11A44802F0CDFBCDE740F2A7
:1006E8005111A14802F0C7FBD3E79E4B5B6813F496
:1006F800803FDAD04FF4003393FAA3F3994B19688B
:100708004FF4003393FAA3F3B3FA83F303F01F0310
:10071800012202FA03F30B4203D06368002B00F0B6
:100728004283236813F0020F00F0DA802369012B5B
:1007380000F2A08063691F2B00F2A280894B5B68DE
:1007480013F00C0F00F0A880864B5B6803F00C03D5
:10075800082B00F09B802369002B00F009810122FF
:1007680092FAA2F3B3FA83F303F1845303F58413E3
:100778009B001A60FFF766FD0546022393FAA3F370
:10078800784B1968022393FAA3F3B3FA83F303F0BF
:100798001F03012202FA03F30B4240F0D380FFF754
:1007A80051FD401B0228E8D9032003E36D4A136872
:1007B80043F4803313606B4AD36A23F00F03A168B4
:1007C8000B43D3626368002B36D0FFF73BFD054629
:1007D8004FF4003393FAA3F3624B19684FF40033D4
:1007E80093FAA3F3B3FA83F303F01F03012202FA87
:1007F80003F30B4295D1FFF725FD401B6428E7D989
:100808000320D7E2B3F5A02F09D0564B1A6822F47B
:1008180080321A601A6822F480221A60CBE703F14A
:100828008043A3F53C331A6842F480221A601A68A0
:1008380042F480321A60BEE7FFF704FD05464FF424
:10084800003393FAA3F3474B19684FF4003393FA34
:10085800A3F3B3FA83F303F01F03012202FA03F3AD
:100868000B423FF45EAFFFF7EDFC401B6428E6D96E
:1008780003209FE240F289113B4802F0FCFA59E755
:100888004FF4C571384802F0F6FA57E7354B5B6804
:1008980013F4803F7FF45FAF022393FAA3F3314B45
:1008A8001968022393FAA3F3B3FA83F303F01F033F
:1008B800012202FA03F30B4204D02369934201D0C8
:1008C800012077E22748036823F0F8036169F822DA
:1008D80092FAA2F2B2FA82F201FA02F21343036028
:1008E800236813F0080F00F09880A369012B66D8DD
:1008F800A369002B69D0012191FAA1F2B2FA82F220
:100908001A4B13449B001960FFF79CFC0546022311
:1009180093FAA3F293FAA3F293FAA3F2114A516A53
:1009280093FAA3F3B3FA83F303F01F03012202FA45
:1009380003F30B4271D1FFF785FC401B0228E6D96F
:10094800032037E20748036823F0F8036169F822B7
:1009580092FAA2F2B2FA82F201FA02F213430360A7
:10096800BEE700BF001002406C32000820819010E2
:10097800012393FAA3F3B3FA83F303F1845303F542
:1009880084139B0000221A60FFF75CFC05460223D3
:1009980093FAA3F3B94B1968022393FAA3F3B3FAB2
:1009A80083F303F01F03012202FA03F30B4297D0EB
:1009B800FFF748FC401B0228E9D90320FAE14FF46D
:1009C800E571AF4802F057FA92E7012292FAA2F2D3
:1009D800B2FA82F2AB4B13449B0000221A60FFF775
:1009E80031FC0546022393FAA3F293FAA3F293FA91
:1009F800A3F2A24A516A93FAA3F3B3FA83F303F07A
:100A08001F03012202FA03F30B4206D0FFF71AFC78
:100A1800401B0228E6D90320CCE1236813F0040F19
:100A280000F0C080E368012B01D9052B26D1934B38
:100A3800DB6913F0805F27D1904BDA6942F080526E
:100A4800DA61DB6903F080530193019B01258E4B2A
:100A58001B6813F4807F19D0E368012B2AD0002B80
:100A680034D103F1804303F504331A6A22F00102FA
:100A78001A621A6A22F004021A6220E04FF4FB712B
:100A88007F4802F0F8F9D2E70025E0E77E4A1368CC
:100A980043F480731360FFF7D5FB06467A4B1B6857
:100AA80013F4807FD8D1FFF7CDFB801B6428F5D9DC
:100AB80003207FE1714A136A43F001031362E3687C
:100AC800002B41D0FFF7BEFB06462BE0052B09D0D3
:100AD8006A4B1A6A22F001021A621A6A22F00402A8
:100AE8001A62ECE7654B1A6A42F004021A621A6A43
:100AF80042F001021A62E2E7604B196A022393FA94
:100B0800A3F3B3FA83F303F01F03012202FA03F3FA
:100B1800194245D1FFF796FB801B41F28833984272
:100B280000F24381022393FAA3F293FAA3F3B3FAF0
:100B380083F35B0943F00203022BDDD0022393FA0F
:100B4800A3F34E4B596AD9E7FFF77CFB064615E03D
:100B58004A4B196A022393FAA3F3B3FA83F303F017
:100B68001F03012202FA03F3194219D0FFF76AFBA7
:100B7800801B41F28833984200F21981022393FACC
:100B8800A3F293FAA3F3B3FA83F35B0943F00203E6
:100B9800022BDDD0022393FAA3F3384B596AD9E725
:100BA800002D73D1E369022B76D8E369002B00F09E
:100BB8000081324A526802F00C02082A00F0DF80F5
:100BC800022B40F0B080236A13B1B3F5803F69D19E
:100BD800636A4BB3B3F5802F26D0B3F5002F23D02B
:100BE800B3F5402F20D0B3F5801F1DD0B3F5A01F5B
:100BF8001AD0B3F5C01F17D0B3F5E01F14D0B3F562
:100C0800001F11D0B3F5101F0ED0B3F5201F0BD065
:100C1800B3F5301F08D0B3F5401F05D0B3F5501F0A
:100C280002D0B3F5601F43D14FF0807393FAA3F35A
:100C3800B3FA83F303F1845303F584139B00002272
:100C48001A60FFF7FFFA05464FF0007393FAA3F313
:100C58000A4B19684FF0007393FAA3F3B3FA83F3BE
:100C680003F01F03012202FA03F3194226D0FFF70B
:100C7800E9FA401B0228E7D903209BE00010024054
:100C88006C32000820819010007000404C4AD369F3
:100C980023F08053D36185E740F23A21494802F0B6
:100CA800EAF882E740F24321464802F0E4F88FE789
:100CB8004FF41171434802F0DEF8B5E740494B683C
:100CC80023F47413626A206A024313434B604FF0A3
:100CD800807393FAA3F3B3FA83F303F1845303F510
:100CE80084139B0001221A60FFF7ACFA04464FF008
:100CF800007393FAA3F3324B19684FF0007393FA19
:100D0800A3F3B3FA83F303F01F03012202FA03F3F8
:100D1800194206D1FFF796FA001B0228E7D90320EB
:100D280048E0002046E04FF0807393FAA3F3B3FA4B
:100D380083F303F1845303F584139B0000221A60A4
:100D4800FFF780FA04464FF0007393FAA3F31C4BA5
:100D580019684FF0007393FAA3F3B3FA83F303F01F
:100D68001F03012202FA03F3194206D0FFF76AFAB9
:100D7800001B0228E7D903201CE000201AE0012B01
:100D88001AD00F4B5B6803F48031226A914201D07C
:100D980001200FE003F47013626A93420ED0012021
:100DA80008E001207047012004E0032002E003204E
:100DB80000E0002002B070BD0120FBE70020F9E749
:100DC800001002406C32000810B4174B5C6804F045
:100DD8000C03082B26D104F470124FF4701393FA05
:100DE800A3F3B3FA83F322FA03F31049C85C0E4B5A
:100DF800DB6A03F00F030F2292FAA2F2B2FA82F230
:100E0800D3400B441A7C14F4803F05D1084B03FBF4
:100E180000F05DF8044B7047064BB3FBF2F300FBA0
:100E280003F0F6E70348F4E700100240BC3100087D
:100E380000093D0000127A00002800F01C8170B5FE
:100E480004460D46036813F00F0F14D0022D18D86E
:100E58008B4B1B6803F00703AB4218D2884A136810
:100E680023F007032B431360136803F00703AB4217
:100E78000DD0012070BD40F2C321824801F0FBFF74
:100E8800E4E74FF431717F4801F0F5FFE0E72368AC
:100E980013F0020F18D0A3687BB1802B0DD0902BD4
:100EA8000BD0A02B09D0B02B07D0C02B05D0D02B4E
:100EB80003D0E02B01D0F02B3ED1734A536823F0C6
:100EC800F003A1680B435360236813F0010F69D046
:100ED8006368022B36D86368012B39D0022B4CD0BB
:100EE800022292FAA2F2684A1068022292FAA2F248
:100EF800B2FA82F202F01F02012101FA02F2104254
:100F080000F0BB8060494A6822F0030213434B603B
:100F1800FFF798F906465C4B5B6803F00C036268C0
:100F2800B3EB820F3ED0FFF78DF9801B41F2883377
:100F38009842F0D903209DE740F2DB21514801F0A7
:100F48009AFFBAE740F2E2214E4801F094FFC2E767
:100F58004FF4003292FAA2F24B4A10684FF4003272
:100F680092FAA2F2B2FA82F202F01F02012101FA09
:100F780002F20242C6D101207CE74FF0007292FAD9
:100F8800A2F2414A10684FF0007292FAA2F2B2FA45
:100F980082F202F01F02012101FA02F21042B1D1DD
:100FA800012067E7364B1B6803F00703AB420CD9F7
:100FB800334A136823F007032B431360136803F0C5
:100FC8000703AB4201D0012054E7236813F0040F54
:100FD80014D0E3685BB1B3F5806F08D0B3F5A06FA8
:100FE80005D0B3F5C06F02D0B3F5E06F37D1264A0C
:100FF800536823F4E063E1680B435360236813F0FC
:10100800080F15D023695BB1B3F5806F08D0B3F52D
:10101800A06F05D0B3F5C06F02D0B3F5E06F24D14F
:10102800194A536823F46053216943EAC1035360A2
:10103800FFF7CAFE144B5B6803F0F003F02292FA44
:10104800A2F2B2FA82F2D340104AD35CD840104BD5
:101058001860104B1868FFF7B3F800200AE740F251
:101068001E31084801F007FFC1E740F22531054865
:1010780001F001FFD4E7012070470120FAE600BF24
:10108800002002406C32000800100240DC310008E9
:101098000800002004000020F0B583B0044603686F
:1010A800B3F54D3F80F0A281236813F4803F54D0FC
:1010B80063684BB1B3F5807F06D0B3F5007F03D0EA
:1010C800B3F5407F40F09781964BDB6913F0805F62
:1010D80040F09681934BDA6942F08052DA61DB691D
:1010E80003F080530193019B01258F4B1B6813F478
:1010F800807F00F087818B4B1B6A13F4407322D0EA
:10110800626802F440729A421DD08648016A21F44E
:1011180040764FF4803393FAA3F2B2FA82F2834F07
:101128003A4492004FF0010CC2F800C093FAA3F3BE
:10113800B3FA83F33B449B0000221A60066211F065
:10114800010F40F07481774A136A23F44073616891
:101158000B431362002D40F09681236813F0010FB2
:101168000AD0A368032B00F293816E4A136B23F015
:101178000303A1680B431363236813F0020F12D013
:10118800E3684BB1B3F5803F06D0B3F5003F03D019
:10119800B3F5403F40F08181624A136B23F440333A
:1011A800E1680B431363236813F0040F12D023691B
:1011B8004BB1B3F5802F06D0B3F5002F03D0B3F5AC
:1011C800402F40F06F81574A136B23F44023216965
:1011D8000B431363236813F0200F0BD0E36913B19B
:1011E800102B40F064814F4A136B23F01003E16920
:1011F8000B431363236813F4003F0DD0A36BB3F5BF
:10120800800F02D0002B40F05781464A536823F4E0
:101218008003A16B0B435360236813F0400F0BD07E
:10122800236A13B1202B40F04C813E4A136B23F004
:101238002003216A0B431363236813F0080F12D0AD
:1012480063694BB1B3F5801F06D0B3F5001F03D017
:10125800B3F5401F40F03B81324A136B23F440132F
:1012680061690B431363236813F0100F12D0A3694D
:101278004BB1B3F5800F06D0B3F5000F03D0B3F52B
:10128800400F40F02A81274A136B23F44003A169D9
:101298000B431363236813F4007F0CD0E36A1BB17C
:1012A800B3F5000F40F01F811E4A536823F4000372
:1012B800E16A0B435360236813F0800F3AD0636AE6
:1012C80043B3B3F5807F25D0B3F5887F22D0B3F53B
:1012D800907F1FD0B3F5987F1CD0B3F5A07F19D0AD
:1012E800B3F5A87F16D0B3F5B07F13D0B3F5B87FA8
:1012F80010D0B3F5C07F0DD0B3F5C87F0AD0B3F5D1
:10130800D07F07D0B3F5D87F04D040F25D110848EC
:1013180001F0B1FD034AD36A23F4F873616A0B4301
:10132800D36207E000100240007000400081901076
:10133800A4320008236813F4807F31D0A36A43B332
:10134800B3F5005F25D0B3F5085F22D0B3F5105F81
:101358001FD0B3F5185F1CD0B3F5205F19D0B3F5D3
:10136800285F16D0B3F5305F13D0B3F5385F10D0CF
:10137800B3F5405F0DD0B3F5485F0AD0B3F5505FC1
:1013880007D0B3F5585F04D04FF4B771614801F046
:1013980072FD614AD36A23F47853A16A0B43D3627E
:1013A800236813F4805F0CD0236B1BB1B3F5807FE7
:1013B80040F09F80584A136B23F48073216B0B43D2
:1013C8001363236813F4005F00F0A180636B1BB103
:1013D800B3F5007F40F093804F4A136B23F40073FA
:1013E800616B0B431363002003B0F0BD71214948C2
:1013F80001F041FD58E67721464801F03CFD63E6DF
:10140800002572E6454A136843F480731360FEF7BB
:1014180019FF0646414B1B6813F4807F7FF46BAEBF
:10142800FEF710FF801B6428F4D90320DCE7FEF7E1
:1014380009FF064615E0384B196A022393FAA3F30D
:10144800B3FA83F303F01F03012202FA03F30B42FA
:101458007FF479AEFEF7F6FE801B41F2883398429E
:1014680053D8022393FAA3F293FAA3F3B3FA83F3BC
:101478005B0943F00203022BDDD0022393FAA3F3A6
:10148800254B596AD9E7D36923F08053D36164E6C1
:10149800BE21204801F0EFFC67E6C9211D4801F094
:1014A800EAFC79E6D5211B4801F0E5FC8BE6E02152
:1014B800184801F0E0FC96E6EE21164801F0DBFC46
:1014C800A3E64FF48171134801F0D5FCADE640F274
:1014D8002311104801F0CFFCBEE640F22D110D4853
:1014E80001F0C9FCCFE640F23D110A4801F0C3FC07
:1014F800DAE64FF4C771074801F0BDFC5AE74FF42C
:10150800D071044801F0B7FC66E703206CE70020BF
:101518006AE700BFA43200080010024000700040D3
:1015280030B4036A23F480330362036A4468426D6B
:1015380022F4803222F070020D682A4323F400332B
:101548008D6843EA05430F4DA8420FD005F50065A5
:10155800A8420BD005F54065A84207D005F580657F
:10156800A84203D005F58065A84204D124F480344C
:101578004D6944EA0524446042654A68826503620D
:1015880030BC7047002C014030B4036A23F4801348
:101598000362036A4468426D22F0807222F4E042DA
:1015A8000D6842EA052223F400138D6843EA0553C7
:1015B8000F4DA8420FD005F50065A8420BD005F5E0
:1015C8004065A84207D005F58065A84203D005F517
:1015D8008065A84204D124F480244D6944EA852416
:1015E800446042654A68C265036230BC704700BF08
:1015F800002C014010B4036A046A24F00104046258
:10160800846924F0F00444EA021223F00A030B432D
:10161800826103625DF8044B704710B4036A23F0DB
:10162800100303628469036A24F4704444EA0232B2
:1016380023F0A00343EA0113826103625DF8044BBF
:101648007047836823F07003194341F007018160F4
:10165800704700002DE9F04104460D46036A23F067
:1016680001030362066A4768836923F4803323F021
:1016780073030A6842EA030826F002038E681E43D1
:101688002C4B98420FD003F5006398420BD003F51A
:101698004063984207D003F58063984203D003F56E
:1016A8008063984209D1EB680BB1082B30D126F042
:1016B8000806EB681E4326F004061E4B9C420FD01A
:1016C80003F500639C420BD003F540639C4207D0AE
:1016D80003F580639C4203D003F580639C420FD1DD
:1016E800AB69B3F5007F00D0C3B96B69B3F5807FF0
:1016F80000D0CBB927F440776B693B43AF691F43F0
:101708006760C4F818806B6863632662BDE8F0817F
:1017180041F62B01084801F0AEFBC8E741F6380155
:10172800054801F0A8FBE0E741F63901024801F05D
:10173800A2FBDFE7002C0140E03200082DE9F04170
:1017480004460E46036A23F480730362056A4768F9
:10175800C36923F4803323F073030A6842EA030859
:1017680025F400758B6845EA0325284B984203D079
:1017780003F5006398420AD1F3680BB1082B33D103
:1017880025F40065F36845EA032525F480651F4BB9
:101798009C420FD003F500639C420BD003F54063D5
:1017A8009C4207D003F580639C4203D003F5806315
:1017B8009C4211D1B369B3F5007F00D0D3B97369E6
:1017C800B3F5807F00D0DBB927F44057736947EA47
:1017D8000317B36947EA03176760C4F81C80736886
:1017E800E3632562BDE8F08141F6C301084801F0D2
:1017F80042FBC5E741F6D101054801F03CFBDEE7B5
:1018080041F6D201024801F036FBDDE7002C014029
:10181800E03200082DE9F04104460F46036A23F43C
:1018280080530362056AD0F80480C36923F080738B
:1018380023F4E6430E6843EA062625F400558B6830
:1018480045EA0335154B98420FD003F500639842DB
:101858000BD003F54063984207D003F580639842A4
:1018680003D003F58063984209D17B69B3F5807F83
:1018780000D063B928F480487B6948EA8318C4F823
:101888000480E6617B6823642562BDE8F08141F647
:101898001211034801F0EFFAECE700BF002C0140F9
:1018A800E032000810B5044603681F4A934227D067
:1018B800B3F1804F24D0A2F59432934220D002F5A0
:1018C800806293421CD002F50062934218D002F560
:1018D8008062934214D002F59032934210D002F500
:1018E800406293420CD002F58062934208D002F520
:1018F8008062934204D04FF4E0710C4801F0BBFAC7
:101908002268D36843F00103D36022689168084BCA
:101918000B40062B06D0B3F5803F03D0136843F085
:1019280001031360002010BD002C0140E0320008C4
:10193800070001007047704770477047704770474D
:1019480010B5044603681A6912F0020F11D0DA685C
:1019580012F0020F0DD06FF002021A610123037713
:1019680003689B6913F0030F79D0FFF7E6FF0023A4
:10197800237723681A6912F0040F12D0DA6812F07C
:10198800040F0ED06FF004021A6102232377236834
:101998009B6913F4407F68D02046FFF7CEFF0023F1
:1019A800237723681A6912F0080F12D0DA6812F048
:1019B800080F0ED06FF008021A61042323772368FA
:1019C800DB6913F0030F57D02046FFF7B6FF00235B
:1019D800237723681A6912F0100F12D0DA6812F010
:1019E800100F0ED06FF010021A61082323772368B6
:1019F800DB6913F4407F46D02046FFF79EFF0023A3
:101A0800237723681A6912F0010F03D0DA6812F0FD
:101A1800010F3FD123681A6912F0800F03D0DA68EA
:101A280012F0800F3DD123681A6912F4807F03D029
:101A3800DA6812F0800F3BD123681A6912F0400F60
:101A480003D0DA6812F0400F39D123681A6912F00E
:101A5800200F03D0DA6812F0200F37D110BDFFF73E
:101A68006BFF2046FFF76AFF81E72046FFF764FF18
:101A78002046FFF763FF92E72046FFF75DFF204609
:101A8800FFF75CFFA3E72046FFF756FF2046FFF766
:101A980055FFB4E76FF001021A612046FFF74BFFCC
:101AA800B8E76FF080021A61204601F052F9BAE7F0
:101AB8006FF480721A61204601F04CF9BCE76FF0B0
:101AC80040021A612046FFF73AFFBEE76FF0200296
:101AD8001A61204601F03CF9C0E7000003682C4A6F
:101AE80090420ED0B0F1804F0BD0A2F594329042C4
:101AF80007D002F58062904203D002F596329042F8
:101B080003D123F070034A681343214A90421AD044
:101B1800B0F1804F17D0A2F59432904213D002F55D
:101B2800806290420FD002F5963290420BD002F5B7
:101B38004062904207D002F58062904203D002F5DD
:101B48008062904203D123F44073CA68134323F0A0
:101B580080034A69134303608B68C3620B6883621E
:101B68000B4B98420FD003F5006398420BD003F556
:101B78004063984207D003F58063984203D003F589
:101B88008063984201D10B69036301234361704765
:101B9800002C014000286AD010B504460368354A75
:101BA800934227D0B3F1804F24D0A2F594329342C8
:101BB80020D002F5806293421CD002F50062934265
:101BC80018D002F58062934214D002F59032934205
:101BD80010D002F5406293420CD002F58062934225
:101BE80008D002F58062934204D040F219112248CD
:101BF80001F041F9A3683BB1102B05D0202B03D08D
:101C0800402B01D0602B1AD123692BB1B3F5807F0B
:101C180002D0B3F5007F18D1A3690BB1802B1AD17C
:101C280094F83D30EBB1022384F83D30211D206843
:101C3800FFF754FF012384F83D30002010BD4FF416
:101C48008D710D4801F017F9DEE740F21B110A48C3
:101C580001F011F9E0E74FF48E71074801F00BF934
:101C6800DEE784F83C30204601F06EF9DBE701201E
:101C7800704700BF002C0140E032000800286AD0FD
:101C880010B504460368354A934227D0B3F1804F14
:101C980024D0A2F59432934220D002F58062934278
:101CA8001CD002F50062934218D002F5806293427C
:101CB80014D002F59032934210D002F5406293425C
:101CC8000CD002F58062934208D002F580629342FC
:101CD80004D04FF49561224801F0CDF8A3683BB1D8
:101CE800102B05D0202B03D0402B01D0602B1AD10C
:101CF80023692BB1B3F5807F02D0B3F5007F18D1EB
:101D0800A3690BB1802B1AD194F83D30EBB10223B3
:101D180084F83D30211D2068FFF7E0FE012384F898
:101D28003D30002010BD40F2A9410D4801F0A3F854
:101D3800DEE740F2AA410A4801F09DF8E0E740F2E8
:101D4800AB41074801F097F8DEE784F83C302046BD
:101D5800FFF7F0FDDBE70120704700BF002C0140D2
:101D6800E03200082DE9F04104460E46036A23F0EC
:101D780010030362056A4768836923F0807323F4BC
:101D8800E6430A6843EA022825F020058B6845EAFD
:101D98000315284B984203D003F5006398420AD1F3
:101DA800F3680BB1082B33D125F08005F36845EAB9
:101DB800031525F040051F4B9C420FD003F5006327
:101DC8009C420BD003F540639C4207D003F5806327
:101DD8009C4203D003F580639C4211D1B369B3F5EB
:101DE800007F00D0D3B97369B3F5807F00D0DBB929
:101DF80027F44067736947EA8307B36947EA8307AB
:101E08006760C4F818807368A3632562BDE8F08131
:101E180041F67601084801F02EF8C5E741F684013D
:101E2800054801F028F8DEE741F68501024801F08F
:101E380022F8DDE7002C0140E032000870B50446C6
:101E48000D4616465AB1042A09D0082A07D00C2A8A
:101E580005D0102A03D0142A01D03C2A3CD12B6883
:101E6800602B0DD0702B0BD09C4A934208D01032B7
:101E7800934205D01032934202D01032934231D1AE
:101E8800AB680BB1022B33D12B690BB1042B35D1C5
:101E980094F83C30012B00F04981012384F83C3050
:101EA800022384F83D30142E65D8DFE816F02D00A3
:101EB8006400640064006B006400640064009C00BB
:101EC800640064006400C800640064006400F500F5
:101ED8006400640064001D0140F62C61804800F035
:101EE800CAFFBCE740F62D617D4800F0C4FFC7E794
:101EF80040F62E617A4800F0BEFFC5E740F62F6134
:101F0800774800F0B8FFC3E72368764A93421FD0AA
:101F1800B3F1804F1CD0A2F59432934218D002F549
:101F28008062934214D002F59632934210D002F5A3
:101F3800406293420CD002F58062934208D002F5C9
:101F48008062934204D040F63B61654800F093FFFD
:101F580029462068FFF77EFB2268936943F008034F
:101F680093612268936923F004039361226893695B
:101F780029690B439361012384F83D30002084F8DC
:101F88003C0070BD2368574A934217D0B3F1804F85
:101F980014D0A2F59432934210D002F58062934295
:101FA8000CD002F59632934208D002F54062934273
:101FB80004D040F64C614A4800F05DFF294620688D
:101FC800FFF7D0FE2268936943F4006393612268A7
:101FD800936923F48063936122689369296943EACA
:101FE80001239361C7E723683E4A934213D0B3F1B4
:101FF800804F10D0A2F5943293420CD002F5806243
:10200800934208D002F59632934204D040F65D61BF
:10201800334800F030FF29462068FFF78FFB22681D
:10202800D36943F00803D3612268D36923F004031A
:10203800D3612268D36929690B43D3619BE723687D
:10204800284A934213D0B3F1804F10D0A2F59432AE
:1020580093420CD002F58062934208D002F5963282
:10206800934204D040F66E611D4800F004FF2946F3
:102078002068FFF7CFFB2268D36943F40063D3617C
:102088002268D36923F48063D3612268D3692969FC
:1020980043EA0123D3616EE72368124A934208D0CA
:1020A80002F50062934204D04FF468610C4800F0D6
:1020B800E2FE29462068FFF733FA2268536D43F0A1
:1020C800080353652268536D23F00403536522689F
:1020D800536D29690B4353654DE700BF400001006C
:1020E800E0320008002C01402368114A934208D0CE
:1020F80002F50062934204D040F693610D4800F067
:10210800BAFE29462068FFF73FFA2268536D43F468
:10211800006353652268536D23F480635365226816
:10212800536D296943EA0123536524E7022028E710
:10213800002C0140E032000810B4846824F47F4485
:1021480042EA03230B43234383605DF8044B704743
:1021580038B590F83C30012B00F0FE810D4604465E
:10216800012380F83C30022380F83D300B68B3F53A
:10217800805F11D0B3F5005F0ED06BB1102B0BD080
:10218800202B09D0302B07D0402B05D0502B03D063
:10219800602B01D0702B47D122689168A74B0B4068
:1021A80093602B68402B00F0998143D9702B00F085
:1021B800DF806BD8502B00F04781602B40F01281F4
:1021C80023689F4A934217D0B3F1804F14D0A2F5E9
:1021D8009432934210D002F5806293420CD002F5FB
:1021E8009632934208D002F54062934204D041F2FD
:1021F800F121944800F03FFE6B68B3F5004F05D01D
:1022080023B1022B02D00A2B40F05C81EB680F2B24
:1022180000F25E81EA6869682068FFF7FEF96021CC
:102228002068FFF70EFADDE041F2A221854800F0B0
:1022380022FEB1E7102B08D004D9202B05D0302B73
:1022480003D0CFE0002B40F0CD8023687C4A934236
:1022580017D0B3F1804F14D0A2F59432934210D026
:1022680002F5806293420CD002F59632934208D070
:1022780002F54062934204D041F21431714800F0F3
:10228800FAFD29682068FFF7DCF9ABE0B3F5805F59
:1022980041D0B3F5005F40F0A5802368684A9342B7
:1022A80013D0B3F1804F10D0A2F5943293420CD0E2
:1022B80002F58062934208D002F59632934204D028
:1022C80041F2CD215F4800F0D6FDAB684BB1B3F5C4
:1022D800805F06D0B3F5005F03D0B3F5405F40F0F0
:1022E8009A806B68B3F5004F05D023B1022B02D05A
:1022F8000A2B40F09680EB680F2B00F29880EB6871
:102308006A68A9682068FFF717FF2268936843F492
:102318008043936066E02368494A934262D0B3F1F0
:10232800804F5FD0A2F5943293425BD002F5806271
:10233800934257D002F50062934253D002F580626F
:1023480093424FD002F5903293424BD002F540624F
:10235800934247D002F58062934243D002F58062EF
:1023680093423FD041F2AE21364800F084FD39E077
:102378002368334A934213D0B3F1804F10D0A2F5AB
:10238800943293420CD002F58062934208D002F551
:102398009632934204D041F2B5212A4800F06BFDF1
:1023A800AB6843B1B3F5805F05D0B3F5005F02D0E9
:1023B800B3F5405F1DD16B68B3F5004F04D01BB176
:1023C800022B01D00A2B1AD1EB680F2B1DD8EB6812
:1023D8006A68A9682068FFF7AFFE2268936843F02F
:1023E80077039360012384F83D30002084F83C0093
:1023F80038BD41F2B821134800F03DFDDBE741F25A
:10240800B921104800F037FDDEE741F2BA210D4846
:1024180000F031FDDBE741F2D0210A4800F02BFD46
:102428005FE741F2D121074800F025FD63E741F25B
:10243800D221044800F01FFD61E700BF8800FEFFBD
:10244800002C0140E03200082368444A934217D028
:10245800B3F1804F14D0A2F59432934210D002F514
:10246800806293420CD002F59632934208D002F56E
:102478004062934204D041F2E121394800F0FBFC6C
:102488006B68B3F5004F04D01BB1022B01D00A2BA7
:102498000CD1EB680F2B0FD8EA6869682068FFF742
:1024A800A9F850212068FFF7CCF89BE741F2E42116
:1024B8002B4800F0E0FCECE741F2E521284800F069
:1024C800DAFCE9E741F2F421254800F0D4FC9DE666
:1024D80041F2F521224800F0CEFC9BE623681F4A12
:1024E800934217D0B3F1804F14D0A2F5943293429F
:1024F80010D002F5806293420CD002F596329342D6
:1025080008D002F54062934204D041F201311448E8
:1025180000F0B1FC6B68B3F5004F04D01BB1022B7F
:1025280001D00A2B0CD1EB680F2B0FD8EA68696829
:102538002068FFF75FF840212068FFF782F851E72D
:1025480041F20431064800F096FCECE741F205310F
:10255800034800F090FCE9E7022049E7002C01401D
:10256800E032000870B504460D461646214B9842E5
:102578001FD0B0F1804F1CD0A3F59433984218D0E7
:1025880003F58063984214D003F59633984210D02F
:1025980003F5406398420CD003F58063984208D055
:1025A80003F58063984204D041F66C31124800F07C
:1025B80062FC85B1042D0ED0082D0CD00C2D0AD04C
:1025C800102D08D0142D06D03C2D04D041F66D31C5
:1025D800094800F050FC05F01F05012303FA05F235
:1025E800236A23EA02032362236A06FA05F51D43D8
:1025F800256270BD002C0140E032000838B5044661
:102608000D460368444A934245D0B3F1804F4FD0FA
:10261800424A934255D0424A93425BD0414A934240
:1026280061D0414A93426BD0404A93426DD0404AB0
:1026380093426DD040F223513E4800F01CFC012229
:1026480029462068FFF78EFF2368334A93420FD04C
:1026580002F5006293420BD002F54062934207D024
:1026680002F58062934203D002F58062934203D15F
:102678005A6C42F400425A64226891682E4B0B400F
:10268800062B06D0B3F5803F03D0136843F001034F
:102698001360002038BD0029D1D00429CFD00829E3
:1026A800CDD00C29CBD01029C9D01429ADD1C6E77B
:1026B800002DC4D0042DC2D0082DC0D00C2DA7D118
:1026C800BDE7002DBBD0042DB9D0082DB7D00C2DF7
:1026D800A1D1B4E7002DB2D0042DB0D0082DAED0D2
:1026E8000C2D9BD1ABE7002DA9D0042DA7D0082D28
:1026F800A5D00C2DA3D0102DA1D0142D91D19EE7DB
:10270800002D9CD0042D8FD199E7002D97D08EE70E
:10271800002D94D08EE700BF002C0140000400403B
:1027280000080040003401400040014000440140DE
:1027380000480140E03200080700010038B50446AF
:102748000D4603684B4A934254D0B3F1804F5ED094
:10275800494A934264D0494A93426AD0484A9342CC
:1027680070D0484A93427AD0474A93427CD0474A2D
:1027780093427CD040F24A51454800F07CFB00224D
:1027880029462068FFF7EEFE23683A4A93420FD0A5
:1027980002F5006293420BD002F54062934207D0E3
:1027A80002F58062934203D002F5806293420DD114
:1027B800196A41F21112114208D1196A40F24442D1
:1027C800114203D15A6C22F400425A642368196AF0
:1027D80041F21112114208D1196A40F244421142E1
:1027E80003D11A6822F001021A60012384F83D30EF
:1027F800002038BD0029C2D00429C0D00829BED085
:102808000C29BCD01029BAD014299ED1B7E7002DC5
:10281800B5D0042DB3D0082DB1D00C2D98D1AEE78A
:10282800002DACD0042DAAD0082DA8D00C2D92D103
:10283800A5E7002DA3D0042DA1D0082D9FD00C2DE5
:102848008CD19CE7002D9AD0042D98D0082D96D0D5
:102858000C2D94D0102D92D0142D82D18FE7002DFD
:102868008DD0042D80D18AE7002D88D07FE7002DF8
:1028780085D07FE7002C014000040040000800409C
:10288800003401400040014000440140004801403C
:10289800E032000810B401F01F01042303FA01F428
:1028A800036A23EA04030362036A8A401343036248
:1028B8005DF8044B7047000038B504460D460368C0
:1028C8001E4A93422AD002F50062934226D01C4A3F
:1028D80093422AD01B4A93422AD01B4A93422AD0B9
:1028E8004FF46771194800F0C6FA04222946206897
:1028F800FFF7D0FF2268536C43F400435364226807
:102908009168134B0B40062B06D0B3F5803F03D0DC
:10291800136843F001031360002038BD002DE4D094
:10292800042DE2D0082DD2D1DFE7002DDDD0D1E78C
:10293800002DDAD0D1E7002DD7D0D1E7002C014007
:10294800004001400044014000480140183300089D
:102958000700010038B504460D460368244A93422F
:1029680036D002F50062934232D0224A934236D0E2
:10297800214A934236D0214A934236D04FF46F71A0
:102988001F4800F078FA002229462068FFF782FFE6
:102998002368196A41F21112114208D1196A40F2EA
:1029A8004442114203D15A6C22F400425A6423680B
:1029B800196A41F21112114208D1196A40F24442CF
:1029C800114203D11A6822F001021A60002038BDB2
:1029D800002DD8D0042DD6D0082DC6D1D3E7002D90
:1029E800D1D0C5E7002DCED0C5E7002DCBD0C5E7A7
:1029F800002C0140004001400044014000480140D3
:102A080018330008F8B504460D4603685D4A93423A
:102A18001FD0B3F1804F1CD0A2F59432934218D046
:102A280002F58062934214D002F50062934210D0FE
:102A380002F5806293420CD002F59032934208D09E
:102A480002F54062934204D040F267614E4800F0BC
:102A580012FA2B686BB1102B0BD0202B09D0302B1E
:102A680007D0402B05D0502B03D0602B01D0702B02
:102A780079D1AB68802B01D0002B7AD194F83C3007
:102A8800012B7CD0012384F83C30022384F83D30AC
:102A980023685E689F683B4A934203D002F5006250
:102AA800934237D16B688BB3B3F5801F2ED0B3F543
:102AB800001F2BD0B3F5401F28D0B3F5800F25D0C9
:102AC800B3F5A00F22D0B3F5C00F1FD0B3F5E00FB8
:102AD8001CD0B3F5000F19D0B3F5100F16D0B3F50D
:102AE800200F13D0B3F5300F10D0B3F5400F0DD031
:102AF800B3F5500F0AD0B3F5600F07D0B3F5700FD8
:102B080004D040F27C61204800F0B5F926F4700644
:102B18006B681E4326F070062B681E4323685E60B0
:102B28002368184A934212D0B3F1804F0FD0A2F510
:102B3800943293420BD002F58062934207D002F59B
:102B48009632934203D002F54062934204D127F0B3
:102B58008007AA6817439F60012384F83D3000204E
:102B680084F83C00F8BD4FF4CD61074800F083F9C4
:102B78007FE740F26961044800F07DF97EE70220B2
:102B8800F0E700BF002C01401833000870B5064676
:102B98000D4603686C4A934214D002F500629342D2
:102BA80010D002F5406293420CD002F58062934245
:102BB80008D002F58062934204D040F2B2616348C3
:102BC80000F059F92B68B3F5006F01D0002B76D1CE
:102BD8006B68B3F5806F01D0002B76D1AB6843B139
:102BE800B3F5807F05D0B3F5007F02D0B3F5407F01
:102BF80071D1EB68FF2B74D82B69B3F5805F01D0D6
:102C0800002B74D16B6913B1B3F5005F75D1AB6953
:102C18000F2B78D8AB6AB3F5804F01D0002B78D151
:102C280096F83C30012B00F08C80012386F83C306C
:102C3800EB6823F44074AB681C4324F480646B682D
:102C48001C4324F400642B681C4324F480542B692F
:102C58001C4324F400546B691C4324F48044AB6A7D
:102C68001C4324F47024AB6944EA03443368364AAD
:102C7800934203D002F5006293421AD1EB69B3F193
:102C8800807F01D0002B4AD12B6A13B1B3F1007FAA
:102C98004BD16B6A0F2B4ED824F470046B6A44EA4C
:102CA800035424F08074EB691C4324F000742B6AED
:102CB8001C4333685C64002086F83C0070BD40F219
:102CC800B361224800F0D7F882E740F2B4611F48A8
:102CD80000F0D1F882E740F2B5611C4800F0CBF86B
:102CE80087E740F2B661194800F0C5F884E740F27A
:102CF800B761164800F0BFF884E74FF4D76113486E
:102D080000F0B9F883E740F2BA61104800F0B3F870
:102D180080E740F2BC610D4800F0ADF880E740F272
:102D2800D4610A4800F0A7F8AEE740F2D561074839
:102D380000F0A1F8ADE740F2D661044800F09BF836
:102D4800AAE70220BAE700BF002C014018330008A8
:102D5800704770477047000070B588B0002403942E
:102D680004940594069407941B4B5A6942F4800214
:102D78005A615A6902F480020092009A5A6942F430
:102D880000325A615A6902F400320192019A5A6972
:102D980042F400125A615B6903F400130293029B28
:102DA8000E4D22464FF400512846FDF741FC0126FE
:102DB80003960494059403A94FF09040FDF7DAFABE
:102DC8004FF40053039304960594069403A92846E8
:102DD800FDF7D0FA08B070BD00100240001000489E
:102DE80030B59FB02022002115A800F0CFF90024AB
:102DF8000F9410941194129413943C22214668461F
:102E080000F0C4F90225149501231893102319938F
:102E18001B954FF460131D9314A8FDF723FC0F2393
:102E28000F93109511944FF48063129313932946CE
:102E38000FA8FEF701F84FF4805300930C946846EE
:102E4800FEF72AF91FB030BD08B5FDF7DDF9FFF729
:102E5800C7FFFFF781FF00F0C3F80448FEF722FD23
:102E6800034B4FF4FA729A635A63FEE7340000206A
:102E7800002C01407047704782B00A4B9A6942F0B3
:102E880001029A619A6902F001020092009ADA69D5
:102E980042F08052DA61DB6903F080530193019BB1
:102EA80002B07047001002407047FEE7FEE7FEE7F9
:102EB800FEE770477047704708B5FDF7B7F908BDDA
:102EC80038B5184B1B68BBB10025164B1D60164C56
:102ED80004212046FFF732FC04212046FFF73AFD83
:102EE80029462046FFF78AFB29462046FFF7E4FCDF
:102EF8000D48FEF725FD38BD0A4B01221A600A4C21
:102F080000212046FFF71AFC00212046FFF722FD8A
:102F180004212046FFF772FB04212046FFF7CCFC72
:102F2800E6E700BF2800002034000020054BD3F856
:102F3800882042F47002C3F888204FF000629A603B
:102F4800704700BF00ED00E002680E4B9A4200D0C7
:102F5800704700B583B003F564439A6942F4006290
:102F68009A619B6903F400630193019B0022114657
:102F78001920FDF78BF91920FDF7CEF903B05DF89C
:102F880004FB00BF002C014000B587B0002301936B
:102F9800029303930493059302680F4B9A4202D05D
:102FA80007B05DF804FB03F564435A6942F4001264
:102FB8005A615B6903F400130093009B4FF470633C
:102FC80001930223029303220492059301A9034863
:102FD800FDF7D0F9E4E700BF002C014000100048DD
:102FE80010B59AB000241694179418941994139451
:102FF800149415940C940D940E940F9410941194A9
:1030080012942C22214601A800F0C0F83648374B0C
:10301800036040F27F234360846040F2E733C3607B
:10302800046144618461FEF7B5FD002847D11AA9FF
:103038004FF4805341F8103D2B48FFF789F80028DA
:1030480040D12948FEF71AFE00283ED100231393E9
:103058001493159313A92448FFF7D4FC002837D1FB
:1030680060230C9300220D920E920F92042310936A
:10307800119212920CA91C48FEF7E0FE58BB0422DC
:103088000CA91948FEF7DAFE40BB0023019302930E
:103098000393049305934FF4005206920793089301
:1030A8004FF0007209920A930B9301A90E48FFF79B
:1030B8006DFDB0B90C48FFF767FF1AB010BDFFF7F8
:1030C800D9FEB4E7FFF7D6FEBBE7FFF7D3FEBDE7AF
:1030D800FFF7D0FEC4E7FFF7CDFED0E7FFF7CAFE43
:1030E800D3E7FFF7C7FEE5E734000020002C0140D6
:1030F800DFF834D0002103E00C4B5B584350043117
:103108000B480C4B42189A42F6D30B4A02E00023B4
:1031180042F8043B094B9A42F9D3FFF707FF00F046
:1031280011F8FFF791FEFEE700A000205C330008CD
:10313800000000200C0000200C000020740000207B
:10314800FEE7000070B50D4E0D4CA41BA410002521
:10315800A54209D10B4E0C4C00F020F8A41BA4107A
:103168000025A54205D170BD56F825309847013590
:10317800EEE756F8253098470135F2E75433000852
:1031880054330008543300085833000802440346F7
:10319800934200D1704703F8011BF9E7F8B500BF67
:1031A800F8BC08BC9E467047F8B500BFF8BC08BC20
:0431B8009E46704778
:1031BC0002030405060708090A0B0C0D0E0F10106C
:1031CC000102030405060708090A0B0C0D0E0F106B
:1031DC0000000000000000000102030406070809BB
:1031EC0000000000010203042E2E2F447269766544
:1031FC0072732F53544D3332463378785F48414CB9
:10320C005F4472697665722F5372632F73746D33DA
:10321C0032663378785F68616C5F636F727465785F
:10322C002E6300002E2E2F447269766572732F5315
:10323C00544D3332463378785F48414C5F44726961
:10324C007665722F5372632F73746D3332663378D5
:10325C00785F68616C5F6770696F2E6300000000B7
:10326C002E2E2F447269766572732F53544D333260
:10327C00463378785F48414C5F4472697665722FAB
:10328C005372632F73746D3332663378785F686171
:10329C006C5F7263632E63002E2E2F447269766509
:1032AC0072732F53544D3332463378785F48414C08
:1032BC005F4472697665722F5372632F73746D332A
:1032CC0032663378785F68616C5F7263635F6578D0
:1032DC002E6300002E2E2F447269766572732F5365
:1032EC00544D3332463378785F48414C5F447269B1
:1032FC007665722F5372632F73746D333266337825
:10330C00785F68616C5F74696D2E63002E2E2F449C
:10331C007269766572732F53544D33324633787815
:10332C005F48414C5F4472697665722F5372632F0C
:10333C0073746D3332663378785F68616C5F74696F
:08334C006D5F65782E6300003F
:04335400AD010008BF
:0433580089010008DF
:0C335C00010000001000000000127A00C8
:04000005080030F9C6
:00000001FF
