:020000040800F2
:1000000000A00020F1460008814400088D4400084B
:1000100093440008994400089F4400080000000031
:10002000000000000000000000000000A5440008DF
:10003000B144000800000000BD440008C9440008A5
:100040004147000841470008414700084147000870
:100050004147000841470008414700084147000860
:100060004147000841470008414700084147000850
:100070004147000841470008414700084147000840
:100080004147000841470008414700084147000830
:100090004147000841470008414700084147000820
:1000A0004147000841470008414700084147000810
:1000B0004147000841470008414700084147000800
:1000C00041470008414700084147000841470008F0
:1000D00041470008414700084147000841470008E0
:1000E00041470008414700084147000841470008D0
:1000F00041470008414700084147000841470008C0
:10010000000000000000000000000000414700085F
:10011000414700084147000841470008414700089F
:10012000414700084147000841470008414700088F
:10013000414700084147000800000000000000009F
:1001400041470008414700084147000800000000FF
:10015000000000000000000000000000000000009F
:10016000000000000000000041470008414700086F
:1001700041470008000000000000000000000000EF
:080180000000000041470008E7
:1001880010B5054C227832B9044B13B10448AFF3CB
:1001980000800123237010BD0C0000200000000027
:1001A8009C47000808B5034B1BB103490348AFF34C
:1001B800008008BD00000000100000209C470008D7
:1001C80080B500AF084B1B68074A43F01003136063
:1001D800032000F02BF9002000F008F804F02AF9B9
:1001E8000023184680BD00BF0020024080B582B0C1
:1001F80000AF7860124B1A68124B1B7819464FF4FF
:100208007A73B3FBF1F3B2FBF3F3184600F05AF933
:100218000346002B01D001230EE07B680F2B0AD880
:10022800002279684FF0FF3000F020F9064A7B6819
:100238001360002300E0012318460837BD4680BD3F
:1002480008000020040000200000002080B400AF57
:10025800054B1B781A46054B1B681344034A136069
:1002680000BFBD4680BC7047040000202800002065
:1002780080B400AF024B1B681846BD4680BC70476F
:100288002800002080B584B000AF7860FFF7F0FF49
:10029800B8607B68FB60FB68B3F1FF3F05D00A4B91
:1002A8001B781A46FB681344FB6000BFFFF7E0FFAA
:1002B8000246BB68D31AFA689A42F7D800BF00BF53
:1002C8001037BD4680BD00BF0400002080B485B053
:1002D80000AF78607B6803F00703FB600C4BDB68BA
:1002E800BB60BA684FF6FF031340BB60FB681A0295
:1002F800BB68134343F0BF6343F40033BB60044A55
:10030800BB68D36000BF1437BD4680BC704700BFD0
:1003180000ED00E080B400AF044BDB681B0A03F07B
:1003280007031846BD4680BC704700BF00ED00E0DB
:1003380080B483B000AF03463960FB7197F907308A
:10034800002B0ADB3B68DAB20C4997F90730120137
:10035800D2B20B4483F800230AE03B68DAB20849BA
:10036800FB7903F00F03043B1201D2B20B441A7657
:1003780000BF0C37BD4680BC704700BF00E100E0FD
:1003880000ED00E080B489B000AFF860B9607A6031
:10039800FB6803F00703FB61FB69C3F10703042B48
:1003A80028BF0423BB61FB690433062B02D9FB6910
:1003B800033B00E000237B614FF0FF32BB6902FA88
:1003C80003F3DA43BB681A407B699A404FF0FF3168
:1003D8007B6901FA03F3D9437B680B401343184642
:1003E8002437BD4680BC704780B582B000AF7860C6
:1003F8007B68013BB3F1807F01D301230FE00A4AF8
:100408007B68013B53600F214FF0FF30FFF790FFEF
:10041800054B00229A60044B07221A6000231846F5
:100428000837BD4680BD00BF10E000E080B582B04F
:1004380000AF78607B68072B0FD07B68062B0CD049
:100448007B68052B09D07B68042B06D07B68032BBF
:1004580003D0AC21044803F0E2FF7868FFF736FFC9
:1004680000BF0837BD4680BDB447000880B586B0D8
:1004780000AF0346B9607A60FB7300237B617B6839
:100488000F2B03D9C4210E4803F0C9FFBB680F2BFB
:1004980003D9C5210A4803F0C2FFFFF73BFF786183
:1004A8007A68B9687869FFF76DFF024697F90F30E7
:1004B80011461846FFF73CFF00BF1837BD4680BD00
:1004C800B447000880B582B000AF78607868FFF75D
:1004D8008BFF034618460837BD4680BD80B586B0F9
:1004E80000AF7860396000237B617B68B3F1904F7F
:1004F80017D07B68394A934213D07B68384A9342B5
:100508000FD07B68374A93420BD07B68364A9342B8
:1005180007D07B68354A934203D0BA21344803F0A8
:100528007EFF3B681B689BB2002B05D03B681B68AD
:100538001B0C1B04002B03D0BB212D4803F06FFFBD
:100548003B685B68002B35D03B685B68012B31D07A
:100558003B685B68112B2DD03B685B68022B29D068
:100568003B685B68122B25D03B685B68214A934245
:1005780020D03B685B68204A93421BD03B685B688D
:100588001E4A934216D03B685B681D4A934211D0BD
:100598003B685B681B4A93420CD03B685B681A4A0D
:1005A800934207D03B685B68032B03D0BC211048FB
:1005B80003F035FF3B689B68002B00F0C8813B685F
:1005C8009B68012B00F0C3813B689B68022B00F0FD
:1005D800BE81BD21064803F022FFB8E100040048AF
:1005E80000080048000C00480010004800140048AB
:1005F8000C48000800001110000021100000311004
:100608000000121000002210000032103B681A6827
:1006180001217B6901FA03F31340FB60FB68002B9F
:1006280000F092813B685B68022B03D03B685B68F3
:10063800122B4FD17B68B3F1904F17D07B68884A53
:10064800934213D07B68874A93420FD07B68864ACF
:1006580093420BD07B68854A934207D07B68844AD3
:10066800934203D0CC21834803F0D9FE3B681B6931
:100678000C2B0BD93B681B690E2B07D03B681B69F9
:100688000F2B03D0CD217B4803F0C9FE7B69DA0824
:100698007B68083253F822303B617B6903F007031B
:1006A8009B000F2202FA03F3DB433A6913403B61D4
:1006B8003B681A697B6903F007039B0002FA03F39E
:1006C8003A6913433B617B69DA087B680832396908
:1006D80043F822107B681B683B617B695B0003223F
:1006E80002FA03F3DB433A6913403B613B685B68FA
:1006F80003F003027B695B0002FA03F33A691343D0
:100708003B617B683A691A603B685B68012B0BD0D8
:100718003B685B68022B07D03B685B68112B03D0F2
:100728003B685B68122B40D13B68DB68002B0BD021
:100738003B68DB68012B07D03B68DB68032B03D0E1
:10074800E1214C4803F06BFE7B689B683B617B6949
:100758005B00032202FA03F3DB433A6913403B616F
:100768003B68DA687B695B0002FA03F33A69134372
:100778003B617B683A699A607B685B683B610122F0
:100788007B6902FA03F3DB433A6913403B613B6838
:100798005B681B0903F001027B6902FA03F33A69FB
:1007A80013433B617B683A695A607B68DB683B614D
:1007B8007B695B00032202FA03F3DB433A691340C7
:1007C8003B613B689A687B695B0002FA03F33A690C
:1007D80013433B617B683A69DA603B685B6803F006
:1007E8008053002B00F0B080234B9B69224A43F0D2
:1007F80001039361204B9B6903F00103BB60BB6855
:100808001E4A7B699B08023352F823303B617B699F
:1008180003F003039B000F2202FA03F3DB433A6958
:1008280013403B617B68B3F1904F29D07B680C4A39
:10083800934213D07B680B4A93420DD07B680A4AD7
:10084800934207D07B68094A934201D1042318E0F8
:10085800052316E0032314E0022312E0012310E02D
:100868000004004800080048000C00480010004838
:10087800001400480C480008001002400000014025
:1008880000237A6902F00302920093403A69134305
:100898003B6135497B699B0802333A6941F823205B
:1008A800324B1B683B61FB68DB433A6913403B6191
:1008B8003B685B6803F48033002B03D03A69FB681C
:1008C80013433B61294A3B691360284B5B683B61D2
:1008D800FB68DB433A6913403B613B685B6803F4A0
:1008E8000033002B03D03A69FB6813433B611F4A6E
:1008F8003B6953601D4B9B683B61FB68DB433A696E
:1009080013403B613B685B6803F48013002B03D002
:100918003A69FB6813433B61144A3B699360134B84
:10092800DB683B61FB68DB433A6913403B613B682A
:100938005B6803F40013002B03D03A69FB68134388
:100948003B610A4A3B69D3607B6901337B613B6841
:100958001A687B6922FA03F3002B7FF457AE00BFB5
:1009680000BF1837BD4680BD0000014000040140AB
:1009780080B5ADF5007D00AF3B1D18603B1D1B68C1
:10098800002B02D1012300F0F7BF3B1D1B681B6839
:10099800002B20D03B1D1B681B6803F00103002BB4
:1009A80019D13B1D1B681B6803F00203002B12D1F1
:1009B8003B1D1B681B6803F00803002B0BD13B1D74
:1009C8001B681B6803F00403002B04D140F24B1191
:1009D800C34803F024FD3B1D1B681B6803F001039B
:1009E800002B00F082813B1D1B685B68002B10D038
:1009F8003B1D1B685B68B3F5803F0AD03B1D1B6835
:100A08005B68B3F5A02F04D040F25111B44803F04D
:100A180006FDB44B5B6803F00C03042B0CD0B14B00
:100A28005B6803F00C03082B59D1AE4B5B6803F4E9
:100A38008033B3F5803F52D14FF40033C7F8F0311B
:100A4800D7F8F03193FAA3F3C7F8EC31D7F8EC31C3
:100A5800B3FA83F3DBB25B09DBB243F00103DBB229
:100A6800012B02D19F4B1B6815E04FF40033C7F8E8
:100A7800E831D7F8E83193FAA3F3C7F8E4314FF433
:100A88000033C7F8E031D7F8E03193FAA3F3C7F899
:100A9800DC31944B5B6A4FF40032C7F8D821D7F8A1
:100AA800D82192FAA2F2C7F8D421D7F8D421B2FA01
:100AB80082F2D2B242F02002D2B202F01F02012129
:100AC80001FA02F21340002B00F00E813B1D1B6857
:100AD8005B68002B40F00881012300F04DBF3B1DEF
:100AE8001B685B68B3F5803F06D17E4B1B687D4A67
:100AF80043F48033136030E03B1D1B685B68002BB8
:100B08000CD1784B1B68774A23F480331360754BFC
:100B18001B68744A23F4802313601EE03B1D1B6886
:100B28005B68B3F5A02F0CD16E4B1B686D4A43F47C
:100B3800802313606B4B1B686A4A43F4803313604D
:100B48000BE0684B1B68674A23F480331360654BDE
:100B58001B68644A23F480231360624BDB6A23F02A
:100B68000F023B1D1B689B685E491343CB623B1D0C
:100B78001B685B68002B59D0FFF77AFBC7F8F801B0
:100B88000AE0FFF775FB0246D7F8F831D31A642B51
:100B980002D9032300F0F0BE4FF40033C7F8D03178
:100BA800D7F8D03193FAA3F3C7F8CC31D7F8CC31C2
:100BB800B3FA83F3DBB25B09DBB243F00103DBB2C8
:100BC800012B02D1474B1B6815E04FF40033C7F8DF
:100BD800C831D7F8C83193FAA3F3C7F8C4314FF432
:100BE8000033C7F8C031D7F8C03193FAA3F3C7F878
:100BF800BC313C4B5B6A4FF40032C7F8B821D7F8D8
:100C0800B82192FAA2F2C7F8B421D7F8B421B2FAFF
:100C180082F2D2B242F02002D2B202F01F020121C7
:100C280001FA02F21340002BABD05EE0FFF720FB85
:100C3800C7F8F8010AE0FFF71BFB0246D7F8F831BE
:100C4800D31A642B02D9032300F096BE4FF4003365
:100C5800C7F8B031D7F8B03193FAA3F3C7F8AC317D
:100C6800D7F8AC31B3FA83F3DBB25B09DBB243F0FC
:100C78000103DBB2012B02D11A4B1B6815E04FF4BC
:100C88000033C7F8A831D7F8A83193FAA3F3C7F807
:100C9800A4314FF40033C7F8A031D7F8A03193FA44
:100CA800A3F3C7F89C310F4B5B6A4FF40032C7F8C7
:100CB8009821D7F8982192FAA2F2C7F89421D7F888
:100CC8009421B2FA82F2D2B242F02002D2B202F0F9
:100CD8001F02012101FA02F21340002BABD104E0FC
:100CE800604800080010024000BF3B1D1B681B68DD
:100CF80003F00203002B00F08C813B1D1B681B696D
:100D0800002B09D03B1D1B681B69012B04D040F246
:100D18008911A74803F083FB3B1D1B685B691F2BE8
:100D280004D94FF4C571A24803F079FBA14B5B6865
:100D380003F00C03002B0BD09E4B5B6803F00C03F5
:100D4800082B6CD19B4B5B6803F48033002B66D176
:100D58000223C7F89031D7F8903193FAA3F3C7F874
:100D68008C31D7F88C31B3FA83F3DBB25B09DBB291
:100D780043F00103DBB2012B02D18E4B1B6813E059
:100D88000223C7F88831D7F8883193FAA3F3C7F854
:100D980084310223C7F88031D7F8803193FAA3F35E
:100DA800C7F87C31834B5B6A0222C7F87821D7F8F1
:100DB800782192FAA2F2C7F87421D7F87421B2FA0E
:100DC80082F2D2B242F02002D2B202F01F02012116
:100DD80001FA02F21340002B07D03B1D1B681B6968
:100DE800012B02D0012300F0C7BD724B1B6823F012
:100DF800F8023B1D1B685B69F821C7F87011D7F82A
:100E0800701191FAA1F1C7F86C11D7F86C11B1FA09
:100E180081F1C9B28B40674913430B60F9E03B1D70
:100E28001B681B69002B00F085800123C7F8683117
:100E3800D7F8683193FAA3F3C7F86431D7F8643167
:100E4800B3FA83F3DBB203F1845303F584139B00F5
:100E58001A4601231360FFF70BFAC7F8F8010AE0F6
:100E6800FFF706FA0246D7F8F831D31A022B02D94F
:100E7800032300F081BD0223C7F86031D7F8603141
:100E880093FAA3F3C7F85C31D7F85C31B3FA83F36C
:100E9800DBB25B09DBB243F00103DBB2012B02D109
:100EA800444B1B6813E00223C7F85831D7F8583170
:100EB80093FAA3F3C7F854310223C7F85031D7F88F
:100EC800503193FAA3F3C7F84C313A4B5B6A0222CC
:100ED800C7F84821D7F8482192FAA2F2C7F8442166
:100EE800D7F84421B2FA82F2D2B242F02002D2B24A
:100EF80002F01F02012101FA02F21340002BAFD0C9
:100F08002C4B1B6823F0F8023B1D1B685B69F8211A
:100F1800C7F84011D7F8401191FAA1F1C7F83C1170
:100F2800D7F83C11B1FA81F1C9B28B40214913437A
:100F38000B606EE00123C7F83831D7F8383193FADF
:100F4800A3F3C7F83431D7F83431B3FA83F3DBB2FB
:100F580003F1845303F584139B001A46002313609E
:100F6800FFF786F9C7F8F8010AE0FFF781F90246AA
:100F7800D7F8F831D31A022B02D9032300F0FCBCAE
:100F88000223C7F83031D7F8303193FAA3F3C7F802
:100F98002C31D7F82C31B3FA83F3DBB25B09DBB21F
:100FA80043F00103DBB2012B06D1024B1B6817E0AB
:100FB80060480008001002400223C7F82831D7F81B
:100FC800283193FAA3F3C7F824310223C7F8203154
:100FD800D7F8203193FAA3F3C7F81C31BF4B5B6AEB
:100FE8000222C7F81821D7F8182192FAA2F2C7F8F6
:100FF8001421D7F81421B2FA82F2D2B242F02002B8
:10100800D2B202F01F02012101FA02F21340002BB2
:10101800ABD13B1D1B681B6803F00803002B00F0D5
:10102800E6803B1D1B689B69002B09D03B1D1B6894
:101038009B69012B04D04FF4E571A94803F0EFF93F
:101048003B1D1B689B69002B65D00123C7F8103135
:10105800D7F8103193FAA3F3C7F80C31D7F80C314D
:10106800B3FA83F3DBB21A469E4B13449B001A462D
:1010780001231360FFF7FCF8C7F8F8010AE0FFF74F
:10108800F7F80246D7F8F831D31A022B02D903230E
:1010980000F072BC0223C7F80831D7F8083193FA78
:1010A800A3F3C7F8043107F5807302221A6007F525
:1010B80080731B6893FAA3F207F1FC031A6007F127
:1010C800F80302221A6007F1F8031B6893FAA3F2E7
:1010D80007F1F4031A60814B5A6A07F1F003022101
:1010E800196007F1F0031B6893FAA3F107F1EC0309
:1010F800196007F1EC031B68B3FA83F3DBB243F022
:101108006003DBB203F01F03012101FA03F313406C
:10111800002BB4D06BE007F1E80301221A6007F155
:10112800E8031B6893FAA3F207F1E4031A6007F1D6
:10113800E4031B68B3FA83F3DBB21A46694B134422
:101148009B001A4600231360FFF792F8C7F8F801CE
:101158000AE0FFF78DF80246D7F8F831D31A022BC8
:1011680002D9032300F008BC07F1E00302221A6049
:1011780007F1E0031B6893FAA3F207F1DC031A6096
:1011880007F1D80302221A6007F1D8031B6893FA03
:10119800A3F207F1D4031A6007F1D00302221A6000
:1011A80007F1D0031B6893FAA3F207F1CC031A6086
:1011B8004A4B5A6A07F1C8030221196007F1C803AC
:1011C8001B6893FAA3F107F1C403196007F1C4037C
:1011D8001B68B3FA83F3DBB243F06003DBB203F0BE
:1011E8001F03012101FA03F31340002BB1D13B1D6A
:1011F8001B681B6803F00403002B00F070810023B8
:1012080087F8FF313B1D1B68DB68002B0ED03B1DA8
:101218001B68DB68012B09D03B1D1B68DB68052BAD
:1012280004D04FF4FB712E4803F0F9F82B4BDB691F
:1012380003F08053002B12D1284BDB69274A43F077
:101248008053D361254BDB6903F0805207F1080313
:101258001A6007F108031B68012387F8FF31224B46
:101268001B6803F48073002B1AD11F4B1B681E4A9E
:1012780043F480731360FEF7FBFFC7F8F80109E039
:10128800FEF7F6FF0246D7F8F831D31A642B01D9D6
:10129800032371E3144B1B6803F48073002BEFD016
:1012A8003B1D1B68DB68012B06D10C4B1B6A0B4AE4
:1012B80043F00103136237E03B1D1B68DB68002B1A
:1012C80014D1064B1B6A054A23F001031362034B32
:1012D8001B6A024A23F00403136225E0001002404F
:1012E8006048000820819010007000403B1D1B687A
:1012F800DB68052B0CD15E4B1B6A5D4A43F0040387
:1013080013625B4B1B6A5A4A43F0010313620BE0FA
:10131800574B1B6A564A23F001031362544B1B6A4E
:10132800534A23F0040313623B1D1B68DB68002B40
:1013380064D0FEF79DFFC7F8F8010BE0FEF798FFB1
:101348000246D7F8F831D31A41F28832934201D9CC
:10135800032311E307F1C00302221A6007F1C00357
:101368001B6893FAA3F207F1BC031A6007F1B803EC
:1013780002221A6007F1B8031B6893FAA3F207F177
:10138800B4031A6007F1B4031B68B3FA83F3DBB242
:101398005B09DBB243F00203DBB2022B02D1344B10
:1013A8001B6A0DE007F1B00302221A6007F1B003CF
:1013B8001B6893FAA3F207F1AC031A602C4B5B6A23
:1013C80007F1A8020221116007F1A802126892FA37
:1013D800A2F107F1A402116007F1A4021268B2FA9F
:1013E80082F2D2B242F04002D2B202F01F020121D0
:1013F80001FA02F21340002BA0D066E0FEF738FF96
:10140800C7F8F8010BE0FEF733FF0246D7F8F831CA
:10141800D31A41F28832934201D90323ACE207F18F
:10142800A00302221A6007F1A0031B6893FAA3F233
:1014380007F19C031A6007F1980302221A6007F16A
:1014480098031B6893FAA3F207F194031A6007F153
:1014580094031B68B3FA83F3DBB25B09DBB243F096
:101468000203DBB2022B05D1014B1B6A10E000BF5F
:101478000010024007F1900302221A6007F190035E
:101488001B6893FAA3F207F18C031A60B64B5B6AE8
:1014980007F188020221116007F18802126892FAA6
:1014A800A2F107F18402116007F184021268B2FA0E
:1014B80082F2D2B242F04002D2B202F01F020121FF
:1014C80001FA02F21340002B9DD197F8FF31012B4E
:1014D80005D1A54BDB69A44A23F08053D3613B1D9A
:1014E8001B68DB69002B0ED03B1D1B68DB69012BD9
:1014F80009D03B1D1B68DB69022B04D040F23A215E
:101508009A4802F08CFF3B1D1B68DB69002B00F03A
:101518003282954B5B6803F00C03082B00F00C82B9
:101528003B1D1B68DB69022B40F084813B1D1B6857
:101538001B6A002B0AD03B1D1B681B6AB3F5803F52
:1015480004D040F24321894802F069FF3B1D1B6823
:101558005B6A002B58D03B1D1B685B6AB3F5802F74
:1015680052D03B1D1B685B6AB3F5002F4CD03B1D66
:101578001B685B6AB3F5402F46D03B1D1B685B6A4E
:10158800B3F5801F40D03B1D1B685B6AB3F5A01FF5
:101598003AD03B1D1B685B6AB3F5C01F34D03B1DB6
:1015A8001B685B6AB3F5E01F2ED03B1D1B685B6AA6
:1015B800B3F5001F28D03B1D1B685B6AB3F5101FED
:1015C80022D03B1D1B685B6AB3F5201F1CD03B1D56
:1015D8001B685B6AB3F5301F16D03B1D1B685B6A3E
:1015E800B3F5401F10D03B1D1B685B6AB3F5501F55
:1015F8000AD03B1D1B685B6AB3F5601F04D04FF42B
:1016080011715A4802F00BFF07F180034FF0807206
:101618001A6007F180031B6893FAA3F207F17C03B1
:101628001A6007F17C031B68B3FA83F3DBB203F19A
:10163800845303F584139B001A4600231360FEF7B6
:1016480017FEC7F8F80109E0FEF712FE0246D7F8C0
:10165800F831D31A022B01D903238DE107F178035E
:101668004FF000721A6007F178031B6893FAA3F22F
:1016780007F174031A6007F174031B68B3FA83F364
:10168800DBB25B09DBB243F00103DBB2012B02D111
:10169800354B1B681BE007F170034FF000721A60AE
:1016A80007F170031B6893FAA3F207F16C031A6041
:1016B80007F168034FF000721A6007F168031B68AE
:1016C80093FAA3F207F164031A60274B5B6A07F1E8
:1016D80060024FF00071116007F16002126892FA1F
:1016E800A2F107F15C02116007F15C021268B2FA1C
:1016F80082F2D2B242F02002D2B202F01F020121DD
:1017080001FA02F21340002B9ED1174B5B6823F4B9
:1017180074123B1D1B68596A3B1D1B681B6A0B43EF
:10172800114913434B6007F158034FF080721A6058
:1017380007F158031B6893FAA3F207F154031A60E0
:1017480007F154031B68B3FA83F3DBB203F1845344
:1017580003F584139B001A4601231360FEF788FDE6
:10176800C7F8F8010EE000BF00100240604800080A
:10177800FEF77EFD0246D7F8F831D31A022B01D9BD
:101788000323F9E007F150034FF000721A6007F1E4
:1017980050031B6893FAA3F207F14C031A6007F190
:1017A8004C031B68B3FA83F3DBB25B09DBB243F08B
:1017B8000103DBB2012B02D1724B1B681BE007F15E
:1017C80048034FF000721A6007F148031B6893FA48
:1017D800A3F207F144031A6007F140034FF00072C7
:1017E8001A6007F140031B6893FAA3F207F13C0360
:1017F8001A60644B5B6A07F138024FF000711160A0
:1018080007F13802126892FAA2F107F13402116066
:1018180007F134021268B2FA82F2D2B242F0200220
:10182800D2B202F01F02012101FA02F21340002B8A
:101838009ED0A0E007F130034FF080721A6007F1E4
:1018480030031B6893FAA3F207F12C031A6007F11F
:101858002C031B68B3FA83F3DBB203F1845303F55B
:1018680084139B001A4600231360FEF701FDC7F896
:10187800F80109E0FEF7FCFC0246D7F8F831D31A64
:10188800022B01D9032377E007F128034FF00072F8
:101898001A6007F128031B6893FAA3F207F12403DF
:1018A8001A6007F124031B68B3FA83F3DBB25B0900
:1018B800DBB243F00103DBB2012B02D1314B1B68D1
:1018C8001BE007F120034FF000721A6007F12003B4
:1018D8001B6893FAA3F207F11C031A6007F11803B7
:1018E8004FF000721A6007F118031B6893FAA3F20D
:1018F80007F114031A60234B5B6A07F110024FF0DB
:101908000071116007F11002126892FAA2F107F152
:101918000C02116007F10C021268B2FA82F2D2B21C
:1019280042F02002D2B202F01F02012101FA02F2B3
:101938001340002B9ED11EE03B1D1B68DB69012B69
:1019480001D1012318E00F4B5B68C7F8F431D7F8D1
:10195800F43103F480323B1D1B681B6A9A4208D19C
:10196800D7F8F43103F470123B1D1B685B6A9A4286
:1019780001D0012300E00023184607F50077BD4693
:1019880080BD00BF0010024080B59EB000AF7860F7
:10199800396000237B677B68002B01D1012303E2B8
:1019A8007B681B6803F00103002B16D17B681B685A
:1019B80003F00203002B10D17B681B6803F00403BB
:1019C800002B0AD17B681B6803F00803002B04D1A5
:1019D80040F2C321A54802F022FD3B68002B0AD043
:1019E8003B68012B07D03B68022B04D04FF43171C0
:1019F8009E4802F014FD9E4B1B6803F007033A68EB
:101A08009A4210D99A4B1B6823F0070298493B6801
:101A180013430B60964B1B6803F007033A689A421E
:101A280001D00123C0E17B681B6803F00203002B8F
:101A380031D07B689B68002B24D07B689B68802B07
:101A480020D07B689B68902B1CD07B689B68A02B60
:101A580018D07B689B68B02B14D07B689B68C02B20
:101A680010D07B689B68D02B0CD07B689B68E02BE0
:101A780008D07B689B68F02B04D040F2DB217B48C0
:101A880002F0CDFC7B4B5B6823F0F0027B689B681F
:101A9800784913434B607B681B6803F00103002BF4
:101AA80000F0F3807B685B68002B0CD07B685B6878
:101AB800012B08D07B685B68022B04D040F2E2213E
:101AC8006A4802F0ACFC7B685B68012B3CD14FF4A0
:101AD80000333B673B6F93FAA3F3FB66FB6EB3FAE5
:101AE80083F3DBB25B09DBB243F00103DBB2012B0A
:101AF80002D1604B1B680FE04FF40033BB66BB6E2E
:101B080093FAA3F37B664FF400333B663B6E93FA7C
:101B1800A3F3FB65574B5B6A4FF40032BA65BA6DA5
:101B280092FAA2F27A657A6DB2FA82F2D2B242F0F1
:101B38002002D2B202F01F02012101FA02F2134080
:101B4800002B7BD101232FE17B685B68022B3CD102
:101B58004FF000733B653B6D93FAA3F3FB64FB6C9A
:101B6800B3FA83F3DBB25B09DBB243F00103DBB208
:101B7800012B02D13F4B1B680FE04FF00073BB6491
:101B8800BB6C93FAA3F37B644FF000733B643B6C2C
:101B980093FAA3F3FB63374B5B6A4FF00072BA63A7
:101BA800BA6B92FAA2F27A637A6BB2FA82F2D2B282
:101BB80042F02002D2B202F01F02012101FA02F221
:101BC8001340002B3AD10123EEE002233B633B6B29
:101BD80093FAA3F3FB62FB6AB3FA83F3DBB25B0904
:101BE800DBB243F00103DBB2012B02D1214B1B68AE
:101BF8000DE00223BB62BB6A93FAA3F37B62022364
:101C08003B623B6A93FAA3F3FB611A4B5B6A0222BD
:101C1800BA61BA6992FAA2F27A617A69B2FA82F280
:101C2800D2B242F02002D2B202F01F02012101FA20
:101C380002F21340002B01D10123B5E00D4B5B6884
:101C480023F003027B685B680A4913434B60FEF785
:101C58000FFB786710E0FEF70BFB02467B6FD31A89
:101C680041F28832934207D903239DE06048000877
:101C780000200240001002404D4B5B6803F00C024C
:101C88007B685B689B009A42E5D14A4B1B6803F06E
:101C980007033A689A4210D2464B1B6823F00702A2
:101CA80044493B6813430B60424B1B6803F007032E
:101CB8003A689A4201D0012376E07B681B6803F0FA
:101CC8000403002B25D07B68DB68002B18D07B68C9
:101CD800DB68B3F5806F13D07B68DB68B3F5A06F62
:101CE8000ED07B68DB68B3F5C06F09D07B68DB6812
:101CF800B3F5E06F04D040F21E312F4802F08FFB9D
:101D08002B4B5B6823F4E0627B68DB68284913434C
:101D18004B607B681B6803F00803002B26D07B68A8
:101D28001B69002B18D07B681B69B3F5806F13D033
:101D38007B681B69B3F5A06F0ED07B681B69B3F590
:101D4800C06F09D07B681B69B3F5E06F04D040F21F
:101D58002531194802F063FB154B5B6823F4605288
:101D68007B681B69DB00124913434B6000F02CF8B9
:101D780001460F4B5B6803F0F003F0223A613A69C1
:101D880092FAA2F2FA60FA68B2FA82F2D2B2D340B8
:101D98000A4AD35C21FA03F3094A1360094B1B680A
:101DA8001846FEF723FA002318467837BD4680BD4B
:101DB800001002400020024060480008F84900086E
:101DC800080000200000002080B48BB000AF002382
:101DD800FB610023BB6100237B6200237B6100233E
:101DE8003B62284B5B68FB61FB6903F00C03042B27
:101DF80002D0082B03D03CE0234B3B623CE0FB695C
:101E080003F470134FF47012BA60BA6892FAA2F22F
:101E18007A607A68B2FA82F2D2B2D3401B4AD35CB3
:101E28007B61184BDB6A03F00F030F223A613A69B2
:101E380092FAA2F2FA60FA68B2FA82F2D2B2D34007
:101E4800134AD35CBB61FB6903F48033002B08D0D1
:101E58000D4ABB69B2FBF3F27B6902FB03F37B62B9
:101E680004E07B690B4A02FB03F37B627B6A3B62FB
:101E780002E0054B3B6200BF3B6A18462C37BD4663
:101E880080BC70470010024000127A00D849000850
:101E9800E849000800093D0080B592B000AF7860BD
:101EA80000233B640023FB637B681B68B3F54D3F4D
:101EB80003D37121604802F0B2FA7B681B6803F40F
:101EC8008033002B00F0F0807B685B68002B12D019
:101ED8007B685B68B3F5807F0DD07B685B68B3F582
:101EE800007F08D07B685B68B3F5407F03D077211B
:101EF800514802F094FA002387F847304F4BDB69CA
:101F080003F08053002B0ED14C4BDB694B4A43F056
:101F18008053D361494BDB6903F08053BB60BB68D6
:101F2800012387F84730464B1B6803F48073002B66
:101F380018D1434B1B68424A43F480731360FEF781
:101F480097F9386408E0FEF793F902463B6CD31A18
:101F5800642B01D90323BDE2394B1B6803F480735A
:101F6800002BF0D0354B1B6A03F44073FB63FB6B0B
:101F7800002B00F086807B685B6803F44073FA6B83
:101F88009A427ED02D4B1B6A23F44073FB634FF4B7
:101F980080333B633B6B93FAA3F3FB62FB6AB3FAB0
:101FA80083F3DBB21A46274B13449B001A460123DE
:101FB80013604FF48033BB63BB6B93FAA3F37B636B
:101FC8007B6BB3FA83F3DBB21A461E4B13449B00B8
:101FD8001A4600231360194AFB6B1362FB6B03F06C
:101FE8000103002B4DD0FEF743F938640AE0FEF7F1
:101FF8003FF902463B6CD31A41F28832934201D929
:10200800032367E20223BB62BB6A93FAA3F37B62F2
:1020180002233B623B6A93FAA3F3FB61FB69B3FAC1
:1020280083F3DBB25B09DBB243F00203DBB2022BC2
:102038000AD1024B1B6A0FE0B448000800100240A6
:1020480000700040008190100223BB61BB6993FAC5
:10205800A3F37B619D4B5B6A02223A613A6992FA6B
:10206800A2F2FA60FA68B2FA82F2D2B242F0400200
:10207800D2B202F01F02012101FA02F21340002B32
:10208800B5D0924B1B6A23F440727B685B688F491A
:1020980013430B6297F84730012B05D18B4BDB6953
:1020A8008A4A23F08053D3617B681B6803F00103DD
:1020B800002B1CD07B689B68002B0FD07B689B682B
:1020C800012B0BD07B689B68022B07D07B689B6831
:1020D800032B03D0BE217E4802F0A1F97B4B1B6B7A
:1020E80023F003027B689B68784913430B637B6882
:1020F8001B6803F00203002B1FD07B68DB68002BF2
:1021080012D07B68DB68B3F5803F0DD07B68DB6855
:10211800B3F5003F08D07B68DB68B3F5403F03D0D8
:10212800C9216B4802F07BF9684B1B6B23F44032E2
:102138007B68DB68654913430B637B681B6803F0A6
:102148000403002B1FD07B681B69002B12D07B680F
:102158001B69B3F5802F0DD07B681B69B3F5002F81
:1021680008D07B681B69B3F5402F03D0D5215848A8
:1021780002F055F9554B1B6B23F440227B681B6911
:10218800524913430B637B681B6803F02003002B41
:1021980014D07B68DB69002B07D07B68DB69102BC8
:1021A80003D0E0214A4802F03AF9484B1B6B23F070
:1021B80010027B68DB69454913430B637B681B6826
:1021C80003F40033002B15D07B689B6BB3F5800FAD
:1021D80007D07B689B6B002B03D0EE213C4802F0B4
:1021E8001EF93A4B5B6823F480027B689B6B374986
:1021F80013434B607B681B6803F04003002B15D02A
:102208007B681B6A002B08D07B681B6A202B04D0D4
:102218004FF481712E4802F002F92C4B1B6B23F00E
:1022280020027B681B6A294913430B637B681B6880
:1022380003F00803002B20D07B685B69002B13D0C8
:102248007B685B69B3F5801F0ED07B685B69B3F56B
:10225800001F09D07B685B69B3F5401F04D040F2CA
:1022680023111B4802F0DBF8184B1B6B23F44012B8
:102278007B685B69154913430B637B681B6803F034
:102288001003002B26D07B689B69002B13D07B683A
:102298009B69B3F5800F0ED07B689B69B3F5000F7F
:1022A80009D07B689B69B3F5400F04D040F22D112B
:1022B800074802F0B4F8054B1B6B23F440027B6817
:1022C8009B69024913430B6304E000BF00100240FE
:1022D800B44800087B681B6803F40073002B16D011
:1022E8007B68DB6A002B09D07B68DB6AB3F5000FDB
:1022F80004D040F23D11794802F091F8784B5B68C0
:1023080023F400027B68DB6A754913434B607B68E2
:102318001B6803F08003002B4DD07B685B6A002BA1
:1023280040D07B685B6AB3F5807F3BD07B685B6A93
:10233800B3F5887F36D07B685B6AB3F5907F31D080
:102348007B685B6AB3F5987F2CD07B685B6AB3F5D2
:10235800A07F27D07B685B6AB3F5A87F22D07B6813
:102368005B6AB3F5B07F1DD07B685B6AB3F5B87F55
:1023780018D07B685B6AB3F5C07F13D07B685B6A53
:10238800B3F5C87F0ED07B685B6AB3F5D07F09D000
:102398007B685B6AB3F5D87F04D040F25D114F4883
:1023A80002F03DF84E4BDB6A23F4F8727B685B6AF7
:1023B8004B491343CB627B681B6803F48073002B83
:1023C8004DD07B689B6A002B40D07B689B6AB3F535
:1023D800005F3BD07B689B6AB3F5085F36D07B68AB
:1023E8009B6AB3F5105F31D07B689B6AB3F5185FC1
:1023F8002CD07B689B6AB3F5205F27D07B689B6AEB
:10240800B3F5285F22D07B689B6AB3F5305F1DD097
:102418007B689B6AB3F5385F18D07B689B6AB3F515
:10242800405F13D07B689B6AB3F5485F0ED07B682A
:102438009B6AB3F5505F09D07B689B6AB3F5585F18
:1024480004D04FF4B771254801F0E9FF244BDB6A4B
:1024580023F478527B689B6A21491343CB627B68DB
:102468001B6803F48053002B16D07B681B6B002B72
:1024780009D07B681B6BB3F5807F04D04FF4C7711C
:10248800164801F0CCFF164B1B6B23F480727B6857
:102498001B6B134913430B637B681B6803F40053DE
:1024A800002B16D07B685B6B002B09D07B685B6BBD
:1024B800B3F5007F04D04FF4D071084801F0AFFFA6
:1024C800074B1B6B23F400727B685B6B0449134357
:1024D8000B63002318464837BD4680BDB448000842
:1024E8000010024080B582B000AF78607B68002B96
:1024F80001D101238DE07B681B68484A934231D0A3
:102508007B681B68B3F1804F2CD07B681B68444AFA
:10251800934227D07B681B68424A934222D07B684B
:102528001B68414A93421DD07B681B683F4A93420F
:1025380018D07B681B683E4A934213D07B681B689F
:102548003C4A93420ED07B681B683B4A934209D0B1
:102558007B681B68394A934204D040F21911384805
:1025680001F05DFF7B689B68002B14D07B689B683B
:10257800102B10D07B689B68202B0CD07B689B6845
:10258800402B08D07B689B68602B04D04FF48D717A
:102598002B4801F044FF7B681B69002B0ED07B6839
:1025A8001B69B3F5807F09D07B681B69B3F5007F91
:1025B80004D040F21B11224801F031FF7B689B696F
:1025C800002B08D07B689B69802B04D04FF48E7158
:1025D8001B4801F024FF7B6893F83D30DBB2002BE9
:1025E80006D17B68002283F83C20786802F026F840
:1025F8007B68022283F83D207B681A687B68043375
:102608001946104600F00AFF7B68012283F83D2036
:10261800002318460837BD4680BD00BF002C014086
:102628000004004000080040001000400014004072
:10263800003401400040014000440140004801408E
:102648002C49000880B582B000AF78607B68002B09
:1026580001D101238DE07B681B68484A934231D041
:102668007B681B68B3F1804F2CD07B681B68444A99
:10267800934227D07B681B68424A934222D07B68EA
:102688001B68414A93421DD07B681B683F4A9342AE
:1026980018D07B681B683E4A934213D07B681B683E
:1026A8003C4A93420ED07B681B683B4A934209D050
:1026B8007B681B68394A934204D04FF495613848C7
:1026C80001F0ADFE7B689B68002B14D07B689B688B
:1026D800102B10D07B689B68202B0CD07B689B68E4
:1026E800402B08D07B689B68602B04D040F2A9413E
:1026F8002B4801F094FE7B681B69002B0ED07B6889
:102708001B69B3F5807F09D07B681B69B3F5007F2F
:1027180004D040F2AA41224801F081FE7B689B69FF
:10272800002B08D07B689B69802B04D040F2AB411A
:102738001B4801F074FE7B6893F83D30DBB2002B38
:1027480006D17B68002283F83C20786800F02AF8DC
:102758007B68022283F83D207B681A687B68043313
:102768001946104600F05AFE7B68012283F83D2086
:10277800002318460837BD4680BD00BF002C014025
:102788000004004000080040001000400014004011
:10279800003401400040014000440140004801402D
:1027A8002C49000880B483B000AF786000BF0C37B4
:1027B800BD4680BC7047000080B584B000AF78602B
:1027C80039607B681B68634A934211D13B68002BD0
:1027D80078D03B68042B75D03B68082B72D03B68D7
:1027E8000C2B6FD03B68102B6CD03B68142B69D036
:1027F8007B681B68B3F1804F0BD13B68002B61D01D
:102808003B68042B5ED03B68082B5BD03B680C2BE5
:1028180058D07B681B68504A93420BD13B68002B09
:1028280050D03B68042B4DD03B68082B4AD03B68FE
:102838000C2B47D07B681B68484A93420BD13B68F6
:10284800002B3FD03B68042B3CD03B68082B39D089
:102858003B680C2B36D07B681B68414A934211D1E8
:102868003B68002B2ED03B68042B2BD03B68082BF1
:1028780028D03B680C2B25D03B68102B22D03B6816
:10288800142B1FD07B681B68364A934205D13B68DE
:10289800002B17D03B68042B14D07B681B68324A86
:1028A800934202D13B68002B0CD07B681B682F4AEF
:1028B800934202D13B68002B04D040F223512C48AC
:1028C80001F0ADFD7B681B6801223968184601F0EC
:1028D80027FA7B681B681F4A934213D07B681B68E2
:1028E8001F4A93420ED07B681B681E4A934209D048
:1028F8007B681B681C4A934204D07B681B681B4A90
:10290800934201D1012300E00023002B07D07B680C
:102918001B685A6C7B681B6842F400425A647B68E7
:102928001B689A68134B1340FB60FB68062B0BD09F
:10293800FB68B3F5803F07D07B681B681A687B6823
:102948001B6842F001021A60002318461037BD4682
:1029580080BD00BF002C014000040040000800407A
:10296800003401400040014000440140004801405B
:102978002C4900080700010080B584B000AFF8605A
:10298800B9607A607B68002B16D07B68042B13D063
:102998007B68082B10D07B680C2B0DD07B68102B24
:1029A8000AD07B68142B07D07B683C2B04D040F6F8
:1029B8002C61884801F033FDBB681B68602B1CD074
:1029C800BB681B68702B18D0BB681B68824A93428F
:1029D80013D0BB681B68814A93420ED0BB681B6842
:1029E8007F4A934209D0BB681B687E4A934204D051
:1029F80040F62D61774801F012FDBB689B68002BFB
:102A080008D0BB689B68022B04D040F62E61714841
:102A180001F005FDBB681B69002B08D0BB681B696A
:102A2800042B04D040F62F616A4801F0F8FCFB68DB
:102A380093F83C30012B01D10223C9E1FB68012244
:102A480083F83C20FB68022283F83D207B68142B26
:102A580000F2B48101A252F823F000BFB92A00089D
:102A6800C52D0008C52D0008C52D0008532B0008EA
:102A7800C52D0008C52D0008C52D00080D2C00081F
:102A8800C52D0008C52D0008C52D0008892C000893
:102A9800C52D0008C52D0008C52D0008072D000804
:102AA800C52D0008C52D0008C52D0008652D000896
:102AB800FB681B684C4A934227D0FB681B68B3F13C
:102AC800804F22D0FB681B68484A93421DD0FB68A0
:102AD8001B68474A934218D0FB681B68454A9342D3
:102AE80013D0FB681B68444A93420ED0FB681B68EE
:102AF800424A934209D0FB681B68414A934204D07A
:102B080040F63B61334801F08AFCFB681B68B968F2
:102B1800184600F011FDFB681B689A69FB681B6882
:102B280042F008029A61FB681B689A69FB681B6897
:102B380022F004029A61FB681B689969BB681A69EC
:102B4800FB681B680A439A6139E1FB681B68264ADF
:102B580093421DD0FB681B68B3F1804F18D0FB6807
:102B68001B68224A934213D0FB681B68204A934291
:102B78000ED0FB681B681F4A934209D0FB681B688C
:102B88001D4A934204D040F64C61124801F047FCBC
:102B9800FB681B68B968184600F088FDFB681B686D
:102BA8009A69FB681B6842F400629A61FB681B68BB
:102BB8009A69FB681B6822F480629A61FB681B684B
:102BC8009969BB681B691A02FB681B680A439A610A
:102BD800F5E000BF2C49000840000100500001004A
:102BE8006000010070000100002C0140000400405A
:102BF800000800400034014000400140004401400A
:102C080000480140FB681B68734A934218D0FB6870
:102C18001B68B3F1804F13D0FB681B686F4A93425F
:102C28000ED0FB681B686E4A934209D0FB681B688C
:102C38006C4A934204D040F65D616B4801F0EFFBAB
:102C4800FB681B68B968184600F0E2FDFB681B6862
:102C5800DA69FB681B6842F00802DA61FB681B68E6
:102C6800DA69FB681B6822F00402DA61FB681B68FA
:102C7800D969BB681A69FB681B680A43DA619EE078
:102C8800FB681B68544A934218D0FB681B68B3F171
:102C9800804F13D0FB681B68504A93420ED0FB68E4
:102CA8001B684F4A934209D0FB681B684D4A934200
:102CB80004D040F66E614C4801F0B1FBFB681B681C
:102CC800B968184600F056FEFB681B68DA69FB68AD
:102CD8001B6842F40062DA61FB681B68DA69FB680A
:102CE8001B6822F48062DA61FB681B68D969BB68DB
:102CF8001B691A02FB681B680A43DA615FE0FB681C
:102D08001B68354A934209D0FB681B68354A9342D1
:102D180004D04FF46861344801F081FBFB681B68FC
:102D2800B968184600F09EFEFB681B685A6DFB6880
:102D38001B6842F008025A65FB681B685A6DFB68FD
:102D48001B6822F004025A65FB681B68596DBB6852
:102D58001A69FB681B680A435A6530E0FB681B6800
:102D68001D4A934209D0FB681B681E4A934204D04F
:102D780040F693611C4801F052FBFB681B68B96878
:102D8800184600F0D3FEFB681B685A6DFB681B6889
:102D980042F400625A65FB681B685A6DFB681B6841
:102DA80022F480625A65FB681B68596DBB681B6911
:102DB8001A02FB681B680A435A6500E000BFFB68FB
:102DC800012283F83D20FB68002283F83C20002381
:102DD80018461037BD4680BD002C01400004004055
:102DE80000080040003401402C49000880B584B038
:102DF80000AF786039607B6893F83C30012B01D1D3
:102E08000223FBE27B68012283F83C207B680222D4
:102E180083F83D203B681B68B3F5805F29D03B6889
:102E28001B68B3F5005F24D03B681B68002B20D0DB
:102E38003B681B68102B1CD03B681B68202B18D0E4
:102E48003B681B68302B14D03B681B68402B10D0A4
:102E58003B681B68502B0CD03B681B68602B08D064
:102E68003B681B68702B04D041F2A221804801F016
:102E7800D6FA7B681B689B68FB60FB6823F4803389
:102E880023F07703FB60FB6823F47F43FB607B68D8
:102E98001B68FA689A603B681B68B3F5005F00F02E
:102EA800FB80B3F5005F00F29D82B3F5805F2DD003
:102EB800B3F5805F00F29682702B69D0702B00F218
:102EC8009182602B00F0AA81602B00F28B82502B3C
:102ED80000F04E81502B00F28582402B00F00082DA
:102EE800402B00F27F82302B00F05082302B00F212
:102EF8007982202B00F04A82202B00F27382002B6B
:102F080000F04482102B00F041826BE27B681B6862
:102F1800584A934200F068827B681B68B3F1804F7F
:102F280000F062827B681B68534A934200F05C821F
:102F38007B681B68514A934200F056827B681B6885
:102F48004F4A934200F050827B681B684D4A934277
:102F580000F04A827B681B684B4A934200F0448227
:102F68007B681B68494A934200F03E827B681B6875
:102F7800474A934200F038827B681B68454A93426F
:102F880000F0328241F2AE21394801F048FA2BE2D2
:102F98007B681B68374A934218D07B681B68B3F17B
:102FA800804F13D07B681B68334A93420ED07B68EE
:102FB8001B68324A934209D07B681B68324A9342A5
:102FC80004D041F2B5212A4801F029FA3B689B68F0
:102FD800002B13D03B689B68B3F5805F0ED03B682D
:102FE8009B68B3F5005F09D03B689B68B3F5405F09
:102FF80004D041F2B8211E4801F011FA3B685B6821
:10300800B3F5004F14D03B685B68002B10D03B68C9
:103018005B68002B0CD03B685B68022B08D03B68D0
:103028005B680A2B04D041F2B921114801F0F7F985
:103038003B68DB680F2B04D941F2BA210C4801F038
:10304800EEF97B6818683B6899683B685A683B6882
:10305800DB6800F046FE7B681B689B68FB60FB68CA
:1030680043F07703FB607B681B68FA689A60BCE1F1
:103078002C490008002C01400004004000080040D2
:10308800001000400014004000340140004001409E
:1030980000440140004801407B681B688A4A93420B
:1030A80018D07B681B68B3F1804F13D07B681B680E
:1030B800864A93420ED07B681B68854A934209D0A2
:1030C8007B681B68834A934204D041F2CD21824831
:1030D80001F0A5F93B689B68002B13D03B689B68FF
:1030E800B3F5805F0ED03B689B68B3F5005F09D0ED
:1030F8003B689B68B3F5405F04D041F2D021764825
:1031080001F08DF93B685B68B3F5004F14D03B685C
:103118005B68002B10D03B685B68002B0CD03B68C9
:103128005B68022B08D03B685B680A2B04D041F22D
:10313800D121694801F073F93B68DB680F2B04D98A
:1031480041F2D221644801F06AF97B6818683B684B
:1031580099683B685A683B68DB6800F0C2FD7B6889
:103168001B689A687B681B6842F480429A603CE15D
:103178007B681B68544A93421DD07B681B68B3F177
:10318800804F18D07B681B68504A934213D07B68E5
:103198001B684F4A93420ED07B681B684D4A934286
:1031A80009D07B681B684D4A934204D041F2E12163
:1031B800494801F034F93B685B68B3F5004F14D017
:1031C8003B685B68002B10D03B685B68002B0CD019
:1031D8003B685B68022B08D03B685B680A2B04D00D
:1031E80041F2E4213C4801F01AF93B68DB680F2BF7
:1031F80004D941F2E521384801F011F97B681868D3
:103208003B6859683B68DB681A4600F0F3FC7B684A
:103218001B685021184600F04AFDE6E07B681B68F1
:10322800294A93421DD07B681B68B3F1804F18D0A0
:103238007B681B68254A934213D07B681B68244A25
:1032480093420ED07B681B68224A934209D07B6860
:103258001B68224A934204D041F2F1211E4801F032
:10326800DEF83B685B68B3F5004F14D03B685B68D9
:10327800002B10D03B685B68002B0CD03B685B6868
:10328800022B08D03B685B680A2B04D041F2F4217A
:10329800114801F0C4F83B68DB680F2B04D941F2F0
:1032A800F5210D4801F0BBF87B6818683B68596840
:1032B8003B68DB681A4600F0CBFC7B681B68602122
:1032C800184600F0F4FC90E0002C01400004004097
:1032D80000080040003401402C490008004001402B
:1032E8007B681B68474A93421DD07B681B68B3F113
:1032F800804F18D07B681B68434A934213D07B6881
:103308001B68424A93420ED07B681B68404A93422E
:1033180009D07B681B683F4A934204D041F20131CF
:103328003D4801F07CF83B685B68B3F5004F14D06A
:103338003B685B68002B10D03B685B68002B0CD0A7
:103348003B685B68022B08D03B685B680A2B04D09B
:1033580041F20431304801F062F83B68DB680F2B1A
:1033680004D941F205312C4801F059F87B681868F6
:103378003B6859683B68DB681A4600F03BFC7B6891
:103388001B684021184600F092FC2EE07B681B6801
:103398001C4A93421DD07B681B68B3F1804F18D03C
:1033A8007B681B68184A934213D07B681B68174ACE
:1033B80093420ED07B681B68154A934209D07B68FC
:1033C8001B68144A934204D041F21431124801F0A8
:1033D80026F87B681A683B681B681946104600F097
:1033E80066FC02E000BF00E000BF7B68012283F8B2
:1033F8003D207B68002283F83C20002318461037C4
:10340800BD4680BD002C014000040040000800407B
:1034180000340140004001402C49000880B485B0C8
:1034280000AF786039607B681B68FB607B683B4A4B
:1034380093420FD07B68B3F1804F0BD07B68384A3A
:10344800934207D07B68374A934203D07B68364A59
:10345800934208D1FB6823F07003FB603B685B680C
:10346800FA681343FB607B682C4A93421BD07B6845
:10347800B3F1804F17D07B68294A934213D07B68F9
:10348800284A93420FD07B68274A93420BD07B6827
:10349800264A934207D07B68254A934203D07B682B
:1034A800244A934208D1FB6823F44073FB603B68CD
:1034B800DB68FA681343FB60FB6823F080023B6813
:1034C8005B691343FB607B68FA681A603B689A681B
:1034D8007B68DA623B681A687B689A627B680F4A85
:1034E80093420FD07B68104A93420BD07B680F4AF7
:1034F800934207D07B680E4A934203D07B680D4AFB
:10350800934203D13B681A697B681A637B6801227E
:103518005A6100BF1437BD4680BC7047002C01407B
:103528000004004000080040003401400040014011
:10353800004401400048014080B586B000AF786083
:1035480039607B681B6A23F001027B681A627B681A
:103558001B6A7B617B685B683B617B689B69FB607E
:10356800FB6823F4803323F07003FB60FB6823F0CF
:103578000303FB603B681B68FA681343FB607B69C5
:1035880023F002037B613B689B687A6913437B6184
:103598007B68404A93420FD07B683F4A93420BD0E6
:1035A8007B683E4A934207D07B683D4A934203D0EA
:1035B8007B683C4A934219D13B68DB68002B08D0F2
:1035C8003B68DB68082B04D041F62B01364800F035
:1035D80026FF7B6923F008037B613B68DB687A6917
:1035E80013437B617B6923F004037B617B68294A71
:1035F80093420FD07B68284A93420BD07B68274AB6
:10360800934207D07B68264A934203D07B68254AB9
:1036180093422DD13B689B69B3F5007F08D03B6886
:103628009B69002B04D041F638011F4800F0F7FED3
:103638003B685B69B3F5807F08D03B685B69002B0A
:1036480004D041F63901184800F0E9FE3B6923F43B
:1036580080733B613B6923F400733B613B685B69A2
:103668003A6913433B613B689B693A6913433B6181
:103678007B683A695A607B68FA689A613B685A685D
:103688007B685A637B687A691A6200BF1837BD463F
:1036980080BD00BF002C01400034014000400140C3
:1036A80000440140004801402C49000880B586B01C
:1036B80000AF786039607B681B6A23F010027B6872
:1036C8001A627B681B6A7B617B685B683B617B680D
:1036D8009B69FB60FB6823F0807323F4E043FB6085
:1036E800FB6823F44073FB603B681B681B02FA68A5
:1036F8001343FB607B6923F020037B613B689B6875
:103708001B017A6913437B617B683B4A934203D070
:103718007B683A4A93421AD13B68DB68002B08D091
:103728003B68DB68082B04D041F67601344800F08A
:1037380076FE7B6923F080037B613B68DB681B01B5
:103748007A6913437B617B6923F040037B617B6863
:10375800294A93420FD07B68284A93420BD07B6852
:10376800284A934207D07B68274A934203D07B6854
:10377800264A93422FD13B689B69B3F5007F08D056
:103788003B689B69002B04D041F684011C4800F07B
:1037980046FE3B685B69B3F5807F08D03B685B6990
:1037A800002B04D041F68501154800F038FE3B692E
:1037B80023F480633B613B6923F400633B613B680E
:1037C8005B699B003A6913433B613B689B699B00BB
:1037D8003A6913433B617B683A695A607B68FA68C7
:1037E8009A613B685A687B689A637B687A691A624F
:1037F80000BF1837BD4680BD002C01400034014091
:103808002C490008004001400044014000480140A4
:1038180080B586B000AF786039607B681B6A23F496
:1038280080727B681A627B681B6A7B617B685B6855
:103838003B617B68DB69FB60FB6823F4803323F022
:103848007003FB60FB6823F00303FB603B681B68A5
:10385800FA681343FB607B6923F400737B613B6860
:103868009B681B027A6913437B617B683B4A9342DE
:1038780003D07B683A4A93421AD13B68DB68002B35
:1038880008D03B68DB68082B04D041F6C3013548F3
:1038980000F0C5FD7B6923F400637B613B68DB684E
:1038A8001B027A6913437B617B6923F480637B6124
:1038B8007B682A4A93420FD07B68294A93420BD0EF
:1038C8007B68294A934207D07B68284A934203D0F1
:1038D8007B68274A93422FD13B689B69B3F5007FE9
:1038E80008D03B689B69002B04D041F6D1011D48E4
:1038F80000F095FD3B685B69B3F5807F08D03B68B5
:103908005B69002B04D041F6D201164800F087FD10
:103918003B6923F480533B613B6923F400533B61CB
:103928003B685B691B013A6913433B613B689B69D0
:103938001B013A6913433B617B683A695A607B68AB
:10394800FA68DA613B685A687B68DA637B687A6987
:103958001A6200BF1837BD4680BD00BF002C014069
:10396800003401402C490008004001400044014057
:103978000048014080B586B000AF786039607B6848
:103988001B6A23F480527B681A627B681B6A3B615E
:103998007B685B687B617B68DB69FB60FB6823F0A5
:1039A800807323F4E043FB60FB6823F44073FB60FF
:1039B8003B681B681B02FA681343FB603B6923F4EE
:1039C80000533B613B689B681B033A6913433B61A7
:1039D8007B681E4A93420FD07B681D4A93420BD0E6
:1039E8007B681C4A934207D07B681B4A934203D0EA
:1039F8007B681A4A934217D13B685B69B3F5807FAD
:103A080008D03B685B69002B04D041F612111448BA
:103A180000F005FD7B6923F480437B613B685B69AB
:103A28009B017A6913437B617B687A695A607B687A
:103A3800FA68DA613B685A687B681A647B683A6995
:103A48001A6200BF1837BD4680BD00BF002C014078
:103A5800003401400040014000440140004801405A
:103A68002C49000880B487B000AF786039607B6863
:103A78001B6A23F480327B681A627B681B6A3B618D
:103A88007B685B687B617B685B6DFB60FB6823F42C
:103A9800803323F07003FB603B681B68FA681343AC
:103AA800FB603B6923F400333B613B689B681B0464
:103AB8003A6913433B617B68174A93420FD07B688E
:103AC800164A93420BD07B68154A934207D07B680D
:103AD800144A934203D07B68134A934209D17B6905
:103AE80023F480337B613B685B691B027A6913436B
:103AF8007B617B687A695A607B68FA685A653B68BB
:103B08005A687B689A657B683A691A6200BF1C37F5
:103B1800BD4680BC704700BF002C01400034014006
:103B280000400140004401400048014080B487B093
:103B380000AF786039607B681B6A23F480127B6869
:103B48001A627B681B6A3B617B685B687B617B6888
:103B58005B6DFB60FB6823F0807323F4E043FB603C
:103B68003B681B681B02FA681343FB603B6923F43C
:103B780000133B613B689B681B053A6913433B6133
:103B88007B68174A93420FD07B68164A93420BD042
:103B98007B68154A934207D07B68144A934203D046
:103BA8007B68134A934209D17B6923F480237B61A4
:103BB8003B685B699B027A6913437B617B687A691E
:103BC8005A607B68FA685A653B685A687B68DA65A8
:103BD8007B683A691A6200BF1C37BD4680BC7047D3
:103BE800002C0140003401400040014000440140E5
:103BF8000048014080B487B000AFF860B9607A60CF
:103C0800FB681B6A7B61FB681B6A23F00102FB6887
:103C18001A62FB689B693B613B6923F0F0033B61D7
:103C28007B681B013A6913433B617B6923F00A03F4
:103C38007B617A69BB6813437B61FB683A699A6167
:103C4800FB687A691A6200BF1C37BD4680BC7047A2
:103C580080B487B000AFF860B9607A60FB681B6A0F
:103C680023F01002FB681A62FB689B697B61FB68A2
:103C78001B6A3B617B6923F470437B617B681B0390
:103C88007A6913437B613B6923F0A0033B61BB68FE
:103C98001B013A6913433B61FB687A699A61FB68C7
:103CA8003A691A6200BF1C37BD4680BC704780B4B1
:103CB80085B000AF786039607B689B68FB60FB6803
:103CC80023F07003FB603A68FB68134343F0070373
:103CD800FB607B68FA689A6000BF1437BD4680BCF9
:103CE800704780B487B000AFF860B9607A603B6015
:103CF800FB689B687B617B6923F47F437B613B683E
:103D08001A027B681A43BB6813437A6913437B61C1
:103D1800FB687A699A6000BF1C37BD4680BC704753
:103D280080B586B000AFF860B9607A60FB682D4A4C
:103D3800934220D0FB68B3F1804F1CD0FB682A4A1D
:103D4800934218D0FB68294A934214D0FB68284A4A
:103D5800934210D0FB68274A93420CD0FB68264A4E
:103D6800934208D0FB68254A934204D041F66C314F
:103D7800234800F054FBBB68002B16D0BB68042B0B
:103D880013D0BB68082B10D0BB680C2B0DD0BB68B8
:103D9800102B0AD0BB68142B07D0BB683C2B04D06F
:103DA80041F66D31164800F03AFBBB6803F01F037B
:103DB800012202FA03F37B61FB681A6A7B69DB4321
:103DC8001A40FB681A62FB681A6ABB6803F01F0393
:103DD800796801FA03F31A43FB681A6200BF1837BF
:103DE800BD4680BD002C0140000400400008004092
:103DF80000340140004001400044014000480140B7
:103E08002C49000880B584B000AF786039607B68C1
:103E18001B68924A934227D07B681B68B3F1804F96
:103E280022D07B681B688E4A93421DD07B681B6832
:103E38008C4A934218D07B681B688B4A934213D0F4
:103E48007B681B68894A93420ED07B681B68884A46
:103E5800934209D07B681B68864A934204D040F29B
:103E68006761854800F0DBFA3B681B68002B20D0AF
:103E78003B681B68102B1CD03B681B68202B18D094
:103E88003B681B68302B14D03B681B68402B10D054
:103E98003B681B68502B0CD03B681B68602B08D014
:103EA8003B681B68702B04D04FF4CD61724800F05A
:103EB800B6FA3B689B68802B08D03B689B68002B50
:103EC80004D040F269616C4800F0A9FA7B6893F865
:103ED8003C30012B01D10223BCE07B68012283F82E
:103EE8003C207B68022283F83D207B681B685B6866
:103EF800FB607B681B689B68BB607B681B68574AD4
:103F0800934204D07B681B68594A934261D13B684D
:103F18005B68002B54D03B685B68B3F5801F4FD0BB
:103F28003B685B68B3F5001F4AD03B685B68B3F534
:103F3800401F45D03B685B68B3F5800F40D03B68B5
:103F48005B68B3F5A00F3BD03B685B68B3F5C00F67
:103F580036D03B685B68B3F5C00F31D03B685B680F
:103F6800B3F5E00F2CD03B685B68B3F5000F27D0A2
:103F78003B685B68B3F5100F22D03B685B68B3F50C
:103F8800200F1DD03B685B68B3F5300F18D03B6835
:103F98005B68B3F5400F13D03B685B68B3F5500F0F
:103FA8000ED03B685B68B3F5600F09D03B685B686F
:103FB800B3F5700F04D040F27C612F4800F02FFA5F
:103FC800FB6823F47003FB603B685B68FA68134383
:103FD800FB60FB6823F07003FB603B681B68FA68B2
:103FE8001343FB607B681B68FA685A607B681B6830
:103FF8001A4A934218D07B681B68B3F1804F13D0DC
:104008007B681B68164A93420ED07B681B68154A6A
:10401800934209D07B681B68154A934204D07B6899
:104028001B68144A93420CD1BB6823F08003BB6021
:104038003B689B68BA681343BB607B681B68BA68B7
:104048009A607B68012283F83D207B68002283F810
:104058003C20002318461037BD4680BD002C014087
:104068000004004000080040001000400014004018
:1040780000340140004001408049000880B584B008
:1040880000AF786039600023FB607B681B68914A49
:10409800934218D07B681B688F4A934213D07B6881
:1040A8001B688E4A93420ED07B681B688C4A9342E9
:1040B80009D07B681B688B4A934204D040F2B261F6
:1040C800894800F0ACF93B681B68B3F5006F08D06D
:1040D8003B681B68002B04D040F2B361824800F0B3
:1040E8009EF93B685B68B3F5806F08D03B685B68F6
:1040F800002B04D040F2B4617B4800F090F93B6893
:104108009B68002B13D03B689B68B3F5807F0ED06B
:104118003B689B68B3F5007F09D03B689B68B3F5A3
:10412800407F04D040F2B5616F4800F078F93B68F1
:10413800DB68FF2B04D940F2B6616B4800F06FF9D9
:104148003B681B69B3F5805F08D03B681B69002B8F
:1041580004D040F2B761644800F061F93B685B69DC
:10416800002B09D03B685B69B3F5005F04D04FF4BE
:10417800D7615D4800F053F93B689B690F2B04D960
:1041880040F2BA61584800F04AF93B689B6AB3F5B7
:10419800804F08D03B689B6A002B04D040F2BC617A
:1041A800514800F03CF97B6893F83C30012B01D171
:1041B80002238AE07B68012283F83C20FB6823F015
:1041C800FF023B68DB681343FB60FB6823F4407223
:1041D8003B689B681343FB60FB6823F480623B6881
:1041E8005B681343FB60FB6823F400623B681B6851
:1041F8001343FB60FB6823F480523B681B6913433D
:10420800FB60FB6823F400523B685B691343FB6067
:10421800FB6823F480423B689B6A1343FB60FB689E
:1042280023F470223B689B691B041343FB607B6883
:104238001B68284A934204D07B681B68264A93422D
:104248003AD13B68DB69B3F1807F08D03B68DB6912
:10425800002B04D040F2D461234800F0E0F83B681A
:104268001B6A002B09D03B681B6AB3F1007F04D09E
:1042780040F2D5611C4800F0D2F83B685B6A0F2B0E
:1042880004D940F2D661184800F0C9F8FB6823F455
:1042980070023B685B6A1B051343FB60FB6823F0F5
:1042A80080723B68DB691343FB60FB6823F0007294
:1042B8003B681B6A1343FB607B681B68FA685A6497
:1042C8007B68002283F83C20002318461037BD463F
:1042D80080BD00BF002C0140003401400040014077
:1042E80000440140004801408049000880B483B080
:1042F80000AF0E4B5B690D4A43F4800353610B4BCF
:104308005B6903F480037B607B68084B5B69074A41
:1043180043F400135361054B5B6903F400133B60DE
:104328003B6800BF0C37BD4680BC70470010024098
:1043380080B500AFFBF744FF00F014F8FFF7D6FF95
:1043480000F0D0F800210548FEF736FA044B0F229A
:104358005A634FF47A70FBF795FFF7E72C000020BB
:10436800002C014080B59EB000AF07F15003282211
:104378000021184600F006FA07F13C0300221A60F3
:104388005A609A60DA601A613B463C22002118465E
:1043980000F0F8F902233B6501233B6610237B6696
:1043A8000223FB6600233B674FF480137B6707F10A
:1043B80050031846FCF7DCFA0346002B01D000F046
:1043C80028F80F23FB6302233B6400237B644FF42C
:1043D8008063BB640023FB6407F13C03002118469B
:1043E800FDF7D2FA0346002B01D000F012F84FF483
:1043F80080533B6000233B633B461846FDF74CFD6A
:104408000346002B01D000F004F800BF7837BD4602
:1044180080BD80B400AF00BFBD4680BC704780B48B
:1044280083B000AF7860396000BF0C37BD4680BCF0
:104438007047000080B483B000AF0E4B9B690D4AF3
:1044480043F0010393610B4B9B6903F001037B600D
:104458007B68084BDB69074A43F08053D361054BFF
:10446800DB6903F080533B603B6800BF0C37BD46F7
:1044780080BC70470010024080B400AF00BFBD464A
:1044880080BC704780B400AFFEE780B400AFFEE7A1
:1044980080B400AFFEE780B400AFFEE780B400AFA1
:1044A80000BFBD4680BC704780B400AF00BFBD46AA
:1044B80080BC704780B400AF00BFBD4680BC704769
:1044C80080B500AFFBF7C2FE00BF80BD80B400AF6F
:1044D800034B4FF000629A6000BFBD4680BC704736
:1044E80000ED00E080B59AB000AF07F15803002254
:1044F8001A605A609A60DA6007F14C0300221A6069
:104508005A609A6007F1300300221A605A609A6074
:10451800DA601A615A619A613B1D2C220021184603
:1045280000F030F9434B444A1A60424B4FF416628C
:104538005A60404B00229A603E4BC722DA603D4BDE
:1045480000221A613B4B00225A613A4B00229A61C1
:104558003848FDF7C7FF0346002B01D0FFF759FF86
:104568004FF48053BB6507F1580319463148FEF7ED
:104578003DFC0346002B01D0FFF74BFF2D48FEF70B
:1045880061F80346002B01D0FFF743FF0023FB64CB
:1045980000233B6500237B6507F14C03194625483A
:1045A800FFF730FC0346002B01D0FFF732FF6023F2
:1045B8003B6300237B630023BB630023FB6304236B
:1045C8003B6400237B640023BB6407F130030022B3
:1045D80019461848FEF7D0F90346002B01D0FFF71B
:1045E80018FF00237B600023BB600023FB600023CF
:1045F8003B6100237B614FF40053BB610023FB61E7
:1046080000233B624FF000737B620023BB620023F0
:10461800FB623B1D19460748FFF730FD0346002B98
:1046280001D0FFF7F6FE034800F026F800BF683710
:10463800BD4680BD2C000020002C014080B485B010
:1046480000AF78607B681B68094A93420BD1094B1D
:104658009B69084A43F400639361064B9B6903F422
:104668000063FB60FB6800BF1437BD4680BC704721
:10467800002C01400010024080B588B000AF78607F
:1046880007F10C0300221A605A609A60DA601A6116
:104698007B681B68114A93421CD1114B5B69104A15
:1046A80043F4001353610E4B5B6903F40013BB60C2
:1046B800BB684FF40073FB6002233B6100237B61FE
:1046C8000323BB610223FB6107F10C03194605486C
:1046D800FBF704FF00BF2037BD4680BD002C01401A
:1046E8000010024000100048DFF834D0002103E039
:1046F8000C4B5B58435004310B480C4B42189A4200
:10470800F6D30B4A02E0002342F8043B094B9A42D5
:10471800F9D3FFF7DBFE00F011F8FFF709FEFEE71B
:1047280000A00020104A0008000000200C00002013
:104738000C0000206C000020FEE7000070B50D4D55
:104748000D4C641BA4100026A64209D10B4D0C4C3D
:1047580000F020F8641BA4100026A64205D170BD05
:1047680055F8043B98470136EEE755F8043B98475F
:104778000136F2E7084A0008084A0008084A000813
:104788000C4A000802440346934200D1704703F8DC
:10479800011BF9E7F8B500BFF8BC08BC9E46704796
:0C47A800F8B500BFF8BC08BC9E46704786
:1047B4002F686F6D652F66656E69782F70722F7321
:1047C40075626A2F504F4B2F736572766F2F447248
:1047D40069766572732F53544D3332463378785F5C
:1047E40048414C5F4472697665722F5372632F732C
:1047F400746D3332663378785F68616C5F636F72AF
:104804007465782E630000002F686F6D652F6665F0
:104814006E69782F70722F7375626A2F504F4B2F09
:10482400736572766F2F447269766572732F535471
:104834004D3332463378785F48414C5F4472697631
:1048440065722F5372632F73746D333266337878C5
:104854005F68616C5F6770696F2E63002F686F6DAE
:10486400652F66656E69782F70722F7375626A2F73
:10487400504F4B2F736572766F2F44726976657251
:10488400732F53544D3332463378785F48414C5F2D
:104894004472697665722F5372632F73746D333269
:1048A400663378785F68616C5F7263632E630000BF
:1048B4002F686F6D652F66656E69782F70722F7320
:1048C40075626A2F504F4B2F736572766F2F447247
:1048D40069766572732F53544D3332463378785F5B
:1048E40048414C5F4472697665722F5372632F732B
:1048F400746D3332663378785F68616C5F726363BA
:104904005F65782E630000000100020004000600C9
:1049140008000A000C001000200040008000000184
:1049240000010001000100012F686F6D652F6665AD
:104934006E69782F70722F7375626A2F504F4B2FE8
:10494400736572766F2F447269766572732F535450
:104954004D3332463378785F48414C5F4472697610
:1049640065722F5372632F73746D333266337878A4
:104974005F68616C5F74696D2E6300002F686F6DF2
:10498400652F66656E69782F70722F7375626A2F52
:10499400504F4B2F736572766F2F44726976657230
:1049A400732F53544D3332463378785F48414C5F0C
:1049B4004472697665722F5372632F73746D333248
:1049C400663378785F68616C5F74696D5F65782EB3
:1049D4006300000002030405060708090A0B0C0D16
:1049E4000E0F10100102030405060708090A0B0C38
:1049F4000D0E0F100000000000000000010203046F
:044A04000607080990
:044A0800AD010008F4
:044A0C008901000814
:0C4A1000100000000100000000127A00FD
:04000005080046F1B8
:00000001FF
