:020000040800F2
:1000000000A00020297C0008497A0008557A0008E1
:100010005B7A0008617A0008677A00080000000037
:100020000000000000000000000000006D7A0008E1
:10003000797A000800000000857A0008917A0008AB
:10004000797C0008797C0008797C0008797C0008BC
:10005000797C0008797C00089D7A0008797C00088A
:10006000797C0008797C0008797C0008797C00089C
:10007000797C0008797C0008797C0008797C00088C
:10008000797C0008797C0008797C0008797C00087C
:10009000797C0008797C0008797C0008797C00086C
:1000A000797C0008797C0008797C0008797C00085C
:1000B000797C0008797C0008797C0008797C00084C
:1000C000797C0008797C0008797C0008797C00083C
:1000D000797C0008AD7A0008797C0008797C0008FA
:1000E000797C0008797C0008797C0008797C00081C
:1000F000797C0008797C0008797C0008797C00080C
:10010000000000000000000000000000797C0008F2
:10011000797C0008797C0008797C0008797C0008EB
:10012000797C0008797C0008797C0008797C0008DB
:10013000797C0008797C00080000000000000000C5
:10014000797C0008797C0008797C000800000000B8
:10015000000000000000000000000000000000009F
:100160000000000000000000797C0008797C000895
:10017000797C000800000000000000000000000082
:0801800000000000797C00087A
:100190004FF0FF0C1CEAD0521EBF1CEAD15392EA6A
:1001A0000C0F93EA0C0F6FD01A4480EA010C400246
:1001B00018BF5FEA41211ED04FF0006343EA5010A0
:1001C00043EA5111A0FB01310CF00040B1F5000FE2
:1001D0003EBF490041EAD3715B0040EA010062F191
:1001E0007F02FD2A1DD8B3F1004F40EBC25008BF7B
:1001F00020F00100704790F0000F0CF0004C08BF99
:1002000049024CEA502040EA51207F3AC2BFD2F165
:10021000FF0340EAC250704740F400004FF0000373
:10022000013A5DDC12F1190FDCBF00F000407047AD
:10023000C2F10002410021FA02F1C2F1200200FAEB
:1002400002FC5FEA310040F1000053EA4C0308BFB2
:1002500020EADC70704792F0000F00F0004C02BF03
:10026000400010F4000F013AF9D040EA0C0093F07E
:10027000000F01F0004C02BF490011F4000F013BD8
:10028000F9D041EA0C018FE70CEAD15392EA0C0F46
:1002900018BF93EA0C0F0AD030F0004C18BF31F0B1
:1002A000004CD8D180EA010000F00040704790F087
:1002B000000F17BF90F0004F084691F0000F91F02B
:1002C000004F14D092EA0C0F01D142020FD193EAF1
:1002D0000C0F03D14B0218BF084608D180EA010079
:1002E00000F0004040F0FE4040F40000704740F055
:1002F000FE4040F44000704781F0004102E000BF42
:1003000083F0004330B54FEA41044FEA430594EAD5
:10031000050F08BF90EA020F1FBF54EA000C55EA10
:10032000020C7FEA645C7FEA655C00F0E2804FEAE1
:100330005454D4EB5555B8BF6D420CDD2C4480EAC3
:10034000020281EA030382EA000083EA010180EAF3
:10035000020281EA0303362D88BF30BD11F0004F41
:100360004FEA01314FF4801C4CEA113102D0404277
:1003700061EB410113F0004F4FEA03334CEA1333B2
:1003800002D0524263EB430394EA050F00F0A780CA
:10039000A4F10104D5F1200E0DDB02FA0EFC22FAC5
:1003A00005F2801841F1000103FA0EF2801843FAB9
:1003B00005F359410EE0A5F120050EF1200E012AAA
:1003C00003FA0EFC28BF4CF0020C43FA05F3C018E8
:1003D00051EBE37101F0004507D54FF0000EDCF161
:1003E000000C7EEB00006EEB0101B1F5801F1BD30A
:1003F000B1F5001F0CD349085FEA30004FEA3C0C0E
:1004000004F101044FEA445212F5800F80F09A8003
:10041000BCF1004F08BF5FEA500C50F1000041EB07
:10042000045141EA050130BD5FEA4C0C404141EB0B
:100430000101013C28BFB1F5801FE9D291F0000F06
:1004400004BF01460020B1FA81F308BF2033A3F1B5
:100450000B03B3F120020CDA0C3208DD02F1140CAC
:10046000C2F10C0201FA0CF021FA02F10CE002F1E7
:100470001402D8BFC2F1200C01FA02F120FA0CFCE0
:10048000DCBF41EA0C019040E41AA2BF01EB045129
:10049000294330BD6FEA04041F3C1CDA0C340EDC27
:1004A00004F11404C4F1200220FA04F001FA02F36A
:1004B00040EA030021FA04F345EA030130BDC4F128
:1004C0000C04C4F1200220FA02F001FA04F340EA1D
:1004D0000300294630BD21FA04F0294630BD94F0CE
:1004E000000F83F4801306BF81F480110134013DB5
:1004F0004EE77FEA645C18BF7FEA655C29D094EA26
:10050000050F08BF90EA020F05D054EA000C04BFA3
:100510001946104630BD91EA030F1EBF002100208E
:1005200030BD5FEA545C05D14000494128BF41F02D
:10053000004130BD14F580043CBF01F5801130BD91
:1005400001F0004545F0FE4141F470014FF000001C
:1005500030BD7FEA645C1ABF194610467FEA655CCD
:100560001CBF0B46024650EA013406BF52EA03356F
:1005700091EA030F41F4002130BD00BF90F0000F5D
:1005800004BF0021704730B54FF4806404F1320499
:100590004FF000054FF0000150E700BF90F0000F52
:1005A00004BF0021704730B54FF4806404F1320479
:1005B00010F0004548BF40424FF000013EE700BF49
:1005C00042004FEAE2014FEA31014FEA02701FBFD9
:1005D00012F07F4393F07F4F81F06051704732F00B
:1005E0007F4208BF704793F07F4F04BF41F4002162
:1005F000704730B54FF4607401F0004521F00041C0
:100600001CE700BF50EA010208BF704730B54FF049
:1006100000050AE050EA010208BF704730B511F04A
:10062000004502D5404261EB41014FF4806404F182
:1006300032045FEA915C3FF4D8AE4FF003025FEA08
:10064000DC0C18BF03325FEADC0C18BF033202EB8C
:10065000DC02C2F1200300FA03FC20FA02F001FAE6
:1006600003FE40EA0E0021FA02F11444BDE600BF89
:1006700070B54FF0FF0C4CF4E06C1CEA11541DBF38
:100680001CEA135594EA0C0F95EA0C0F00F0DEF803
:100690002C4481EA030621EA4C5123EA4C5350EAE8
:1006A000013518BF52EA033541F4801143F4801339
:1006B00038D0A0FB02CE4FF00005E1FB02E506F0CA
:1006C0000042E0FB03E54FF00006E1FB03569CF01F
:1006D000000F18BF4EF0010EA4F1FF04B6F5007F25
:1006E00064F5407404D25FEA4E0E6D4146EB060697
:1006F00042EAC62141EA55514FEAC52040EA5E5020
:100700004FEACE2EB4F1FD0C88BFBCF5E06F1ED8C9
:10071000BEF1004F08BF5FEA500E50F1000041EB00
:10072000045170BD06F0004646EA010140EA0200AD
:1007300081EA0301B4EB5C04C2BFD4EB0C0541EACF
:10074000045170BD41F480114FF0000E013C00F3E4
:10075000AB8014F1360FDEBF002001F0004170BD08
:10076000C4F10004203C35DA0C341BDC04F1140421
:10077000C4F1200500FA05F320FA04F001FA05F2AD
:1007800040EA020001F0004221F0004110EBD3707A
:1007900021FA04F642EB06015EEA430E08BF20EAA6
:1007A000D37070BDC4F10C04C4F1200500FA04F349
:1007B00020FA05F001FA04F240EA020001F00041DB
:1007C00010EBD37041F100015EEA430E08BF20EA4E
:1007D000D37070BDC4F1200500FA05F24EEA020E96
:1007E00020FA04F301FA05F243EA020321FA04F0C5
:1007F00001F0004121FA04F220EA020000EBD3707C
:100800005EEA430E08BF20EAD37070BD94F0000F7B
:100810000FD101F00046400041EB010111F4801FAF
:1008200008BF013CF7D041EA060195F0000F18BF60
:10083000704703F00046520043EB030313F4801F9C
:1008400008BF013DF7D043EA0603704794EA0C0F56
:100850000CEA135518BF95EA0C0F0CD050EA41066C
:1008600018BF52EA4306D1D181EA030101F00041E9
:100870004FF0000070BD50EA410606BF1046194611
:1008800052EA430619D094EA0C0F02D150EA01361D
:1008900013D195EA0C0F05D152EA03361CBF10465E
:1008A00019460AD181EA030101F0004141F0FE41FD
:1008B00041F470014FF0000070BD41F0FE4141F481
:1008C000780170BD70B54FF0FF0C4CF4E06C1CEA81
:1008D00011541DBF1CEA135594EA0C0F95EA0C0F36
:1008E00000F0A7F8A4EB050481EA030E52EA0335F1
:1008F0004FEA013100F088804FEA03334FF0805512
:1009000045EA131343EA12634FEA022245EA11153E
:1009100045EA10654FEA00260EF000419D4208BFEF
:10092000964244F1FD0404F5407402D25B084FEA9C
:100930003202B61A65EB03055B084FEA32024FF448
:1009400080104FF4002CB6EB020E75EB030E22BFA5
:10095000B61A754640EA0C005B084FEA3202B6EB65
:10096000020E75EB030E22BFB61A754640EA5C0014
:100970005B084FEA3202B6EB020E75EB030E22BFA4
:10098000B61A754640EA9C005B084FEA3202B6EBA5
:10099000020E75EB030E22BFB61A754640EADC0064
:1009A00055EA060E18D04FEA051545EA16754FEAC6
:1009B00006164FEAC30343EA52734FEAC2025FEAE4
:1009C0001C1CC0D111F4801F0BD141EA00014FF073
:1009D00000004FF0004CB6E711F4801F04BF014344
:1009E0000020B4F1FD0C88BFBCF5E06F3FF6AFAE60
:1009F000B5EB030C04BFB6EB020C5FEA500C50F1F0
:100A0000000041EB045170BD0EF0004E4EEA113172
:100A100014EB5C04C2BFD4EB0C0541EA045170BD79
:100A200041F480114FF0000E013C90E645EA060EBD
:100A30008DE60CEA135594EA0C0F08BF95EA0C0FEB
:100A40003FF43BAF94EA0C0F0AD150EA01347FF433
:100A500034AF95EA0C0F7FF425AF104619462CE70A
:100A600095EA0C0F06D152EA03353FF4FDAE10466D
:100A7000194622E750EA410618BF52EA43067FF4BE
:100A8000C5AE50EA41047FF40DAF52EA43057FF44E
:100A9000EBAE12E74FF0FF3C06E000BF4FF0010C59
:100AA00002E000BF4FF0010C4DF804CD4FEA410CBD
:100AB0007FEA6C5C4FEA430C18BF7FEA6C5C1BD08A
:100AC00001B050EA410C0CBF52EA430C91EA030F0B
:100AD00002BF90EA020F0020704710F1000F91EA68
:100AE000030F58BF994208BF90422CBFD8176FEA36
:100AF000E37040F0010070474FEA410C7FEA6C5C04
:100B000002D150EA013C07D14FEA430C7FEA6C5C0A
:100B1000D6D152EA033CD3D05DF8040B704700BF36
:100B20008446104662468C461946634600E000BF84
:100B300001B5FFF7B7FF002848BF10F1000F01BD56
:100B40004DF808EDFFF7F4FF0CBF012000205DF821
:100B500008FB00BF4DF808EDFFF7EAFF34BF0120A6
:100B600000205DF808FB00BF4DF808EDFFF7E0FF3F
:100B700094BF012000205DF808FB00BF4DF808ED90
:100B8000FFF7CEFF94BF012000205DF808FB00BFF7
:100B90004DF808EDFFF7C4FF34BF012000205DF8D9
:100BA00008FB00BF4FEA410212F5001215D211D521
:100BB0006FF47873B3EB625212D94FEAC12343F05A
:100BC000004343EA505311F0004F23FA02F018BFDC
:100BD000404270474FF00000704750EA013005D1A5
:100BE00011F0004008BF6FF0004070474FF0000068
:100BF000704700BF80F0004002E000BF81F000417C
:100C000042001FBF5FEA410392EA030F7FEA226CB2
:100C10007FEA236C6AD04FEA1262D2EB1363C1BF42
:100C2000D218414048404140B8BF5B42192B88BFB1
:100C3000704710F0004F40F4000020F07F4018BFD4
:100C4000404211F0004F41F4000121F07F4118BFF4
:100C5000494292EA030F3FD0A2F1010241FA03FC9C
:100C600010EB0C00C3F1200301FA03F100F0004384
:100C700002D5494260EB4000B0F5000F13D3B0F14C
:100C8000807F06D340084FEA310102F10102FE2ABB
:100C900051D2B1F1004F40EBC25008BF20F001002B
:100CA00040EA03007047490040EB0000013A28BFCA
:100CB000B0F5000FEDD2B0FA80FCACF1080CB2EB4D
:100CC0000C0200FA0CF0AABF00EBC25052421843CB
:100CD000BCBFD0401843704792F0000F81F4000170
:100CE00006BF80F400000132013BB5E74FEA410343
:100CF0007FEA226C18BF7FEA236C21D092EA030FAF
:100D000004D092F0000F08BF0846704790EA010F28
:100D10001CBF0020704712F07F4F04D1400028BF55
:100D200040F00040704712F100723CBF00F5000037
:100D3000704700F0004343F0FE4040F4000070476D
:100D40007FEA226216BF08467FEA23630146420219
:100D500006BF5FEA412390EA010F40F4800070472C
:100D60004FF0000304E000BF10F0004348BF4042D2
:100D70005FEA000C08BF704743F0964301464FF00E
:100D800000001CE050EA010208BF70474FF000036A
:100D90000AE000BF50EA010208BF704711F00043AB
:100DA00002D5404261EB41015FEA010C02BF84467B
:100DB0000146002043F0B64308BFA3F18053A3F5DA
:100DC0000003BCFA8CF2083AA3EBC25310DB01FA21
:100DD00002FC634400FA02FCC2F12002BCF1004FA5
:100DE00020FA02F243EB020008BF20F00100704736
:100DF00002F1200201FA02FCC2F1200250EA4C008A
:100E000021FA02F243EB020008BF20EADC707047CF
:100E10004FEA4002B2F1FE4F0FD34FF09E03B3EB07
:100E200012620DD94FEA002343F0004310F0004F47
:100E300023FA02F018BF404270474FF0000070479D
:100E400012F1610F01D1420205D110F0004008BF3C
:100E50006FF0004070474FF000007047034613F8F2
:100E6000012B002AFBD1181A01387047000000003E
:100E700001F0FF01102A2BDB10F0070F08D010F84B
:100E8000013B013A8B422DD010F0070F42B3F6D14F
:100E9000F0B441EA012141EA014122F007047FF068
:100EA00000070023F0E80256083C85EA010586EABF
:100EB000010685FA47F5A3FA87F586FA47F6A5FAFB
:100EC00087F68EB9EED1F0BC01F0FF0102F0070207
:100ED00032B110F8013B013A83EA010313B1F8D1B2
:100EE0000020704701387047002D06BF3546033893
:100EF000073815F0010F07D1013015F4807F02BFCC
:100F0000013015F4C03F0130F0BC0138704700BF1C
:100F10004FEA410C7FEA6C5C02D150EA013C0AD1F5
:100F20004FEA430C7FEA6C5C02D152EA033C02D1E7
:100F30004FF0000070474FF00100704710B5054CAE
:100F4000227832B9044B13B10448AFF30080012377
:100F5000237010BDE4000020000000001C88000881
:100F600008B5034B1BB103490348AFF3008008BD2C
:100F700000000000E80000201C88000880B500AFD9
:100F8000084B1B68074A43F010031360032000F06E
:100F900047F9002000F008F806F034FD0023184659
:100FA00080BD00BF0020024080B582B000AF7860F5
:100FB000124B1A68124B1B7819464FF47A73B3FB25
:100FC000F1F3B2FBF3F3184600F08EF90346002B61
:100FD00001D001230EE07B680F2B0AD8002279682C
:100FE0004FF0FF3000F03CF9064A7B6813600023A5
:100FF00000E0012318460837BD4680BD7800002078
:10100000040000200000002080B400AF054B1B78D6
:101010001A46054B1B681344034A136000BFBD46C4
:1010200080BC7047040000200001002080B400AFA5
:10103000024B1B681846BD4680BC7047000100206B
:1010400080B584B000AF7860FFF7F0FFB8607B68D0
:10105000FB60FB68B3F1FF3F05D00A4B1B781A46D3
:10106000FB681344FB6000BFFFF7E0FF0246BB686C
:10107000D31AFA689A42F7D800BF00BF1037BD46AE
:1010800080BD00BF0400002080B485B000AF786050
:101090007B6803F00703FB600C4BDB68BB60BA683E
:1010A0004FF6FF031340BB60FB681A02BB68134393
:1010B00043F0BF6343F40033BB60044ABB68D360B2
:1010C00000BF1437BD4680BC704700BF00ED00E094
:1010D00080B400AF044BDB681B0A03F0070318461B
:1010E000BD4680BC704700BF00ED00E080B483B017
:1010F00000AF0346FB7197F90730002B0BDBFB7940
:1011000003F01F02064997F907305B09012000FA36
:1011100002F241F8232000BF0C37BD4680BC704767
:1011200000E100E080B483B000AF03463960FB719A
:1011300097F90730002B0ADB3B68DAB20C4997F9C4
:1011400007301201D2B20B4483F800230AE03B6857
:10115000DAB20849FB7903F00F03043B1201D2B263
:101160000B441A7600BF0C37BD4680BC704700BFE9
:1011700000E100E000ED00E080B489B000AFF8606D
:10118000B9607A60FB6803F00703FB61FB69C3F198
:101190000703042B28BF0423BB61FB690433062B20
:1011A00002D9FB69033B00E000237B614FF0FF3273
:1011B000BB6902FA03F3DA43BB681A407B699A40C1
:1011C0004FF0FF317B6901FA03F3D9437B680B4091
:1011D000134318462437BD4680BC704780B582B0A3
:1011E00000AF78607B68013BB3F1807F01D30123BE
:1011F0000FE00A4A7B68013B53600F214FF0FF303C
:10120000FFF790FF054B00229A60044B07221A60FB
:10121000002318460837BD4680BD00BF10E000E03F
:1012200080B582B000AF78607B68072B0FD07B68F9
:10123000062B0CD07B68052B09D07B68042B06D0CD
:101240007B68032B03D0AC21044805F095FF786838
:10125000FFF71AFF00BF0837BD4680BD348800087D
:1012600080B586B000AF0346B9607A60FB73002397
:101270007B617B680F2B03D9C4210E4805F07CFFEE
:10128000BB680F2B03D9C5210A4805F075FFFFF78E
:101290001FFF78617A68B9687869FFF76DFF0246C9
:1012A00097F90F3011461846FFF73CFF00BF18377B
:1012B000BD4680BD3488000880B582B000AF0346CB
:1012C000FB7197F90730002B03DAD821054805F0A8
:1012D00053FF97F907301846FFF708FF00BF08379C
:1012E000BD4680BD3488000880B582B000AF78600C
:1012F0007868FFF773FF034618460837BD4680BD80
:1013000080B584B000AF78600023FB737B6893F8EE
:101310002130022B05D07B6804229A630123FB73E2
:1013200027E07B681B681A687B681B6822F00E0246
:101330001A607B681B681A687B681B6822F00102D0
:101340001A607B681A6C7B68DB6B012101FA02F280
:101350005A607B68012283F821207B68002283F891
:1013600020207B685B6B002B03D07B685B6B78680D
:101370009847FB7B18461037BD4680BD80B586B0C8
:1013800000AF7860396000237B617B68B3F1904FD8
:1013900017D07B68394A934213D07B68384A93420E
:1013A0000FD07B68374A93420BD07B68364A934212
:1013B00007D07B68354A934203D0BA21344805F000
:1013C000DBFE3B681B689BB2002B05D03B681B68AB
:1013D0001B0C1B04002B03D0BB212D4805F0CCFEB9
:1013E0003B685B68002B35D03B685B68012B31D0D4
:1013F0003B685B68112B2DD03B685B68022B29D0C2
:101400003B685B68122B25D03B685B68214A93429E
:1014100020D03B685B68204A93421BD03B685B68E6
:101420001E4A934216D03B685B681D4A934211D016
:101430003B685B681B4A93420CD03B685B681A4A66
:10144000934207D03B685B68032B03D0BC21104854
:1014500005F092FE3B689B68002B00F0C8813B685A
:101460009B68012B00F0C3813B689B68022B00F056
:10147000BE81BD21064805F07FFEB8E100040048AA
:1014800000080048000C0048001000480014004804
:101490009088000800001110000021100000311099
:1014A0000000121000002210000032103B681A6881
:1014B00001217B6901FA03F31340FB60FB68002BF9
:1014C00000F092813B685B68022B03D03B685B684D
:1014D000122B4FD17B68B3F1904F17D07B68884AAD
:1014E000934213D07B68874A93420FD07B68864A29
:1014F00093420BD07B68854A934207D07B68844A2D
:10150000934203D0CC21834805F036FE3B681B692B
:101510000C2B0BD93B681B690E2B07D03B681B6952
:101520000F2B03D0CD217B4805F026FE7B69DA081E
:101530007B68083253F822303B617B6903F0070374
:101540009B000F2202FA03F3DB433A6913403B612D
:101550003B681A697B6903F007039B0002FA03F3F7
:101560003A6913433B617B69DA087B680832396961
:1015700043F822107B681B683B617B695B00032298
:1015800002FA03F3DB433A6913403B613B685B6853
:1015900003F003027B695B0002FA03F33A69134329
:1015A0003B617B683A691A603B685B68012B0BD032
:1015B0003B685B68022B07D03B685B68112B03D04C
:1015C0003B685B68122B40D13B68DB68002B0BD07B
:1015D0003B68DB68012B07D03B68DB68032B03D03B
:1015E000E1214C4805F0C8FD7B689B683B617B6945
:1015F0005B00032202FA03F3DB433A6913403B61C9
:101600003B68DA687B695B0002FA03F33A691343CB
:101610003B617B683A699A607B685B683B61012249
:101620007B6902FA03F3DB433A6913403B613B6891
:101630005B681B0903F001027B6902FA03F33A6954
:1016400013433B617B683A695A607B68DB683B61A6
:101650007B695B00032202FA03F3DB433A69134020
:101660003B613B689A687B695B0002FA03F33A6965
:1016700013433B617B683A69DA603B685B6803F05F
:101680008053002B00F0B080234B9B69224A43F02B
:1016900001039361204B9B6903F00103BB60BB68AE
:1016A0001E4A7B699B08023352F823303B617B69F9
:1016B00003F003039B000F2202FA03F3DB433A69B2
:1016C00013403B617B68B3F1904F29D07B680C4A93
:1016D000934213D07B680B4A93420DD07B680A4A31
:1016E000934207D07B68094A934201D1042318E052
:1016F000052316E0032314E0022312E0012310E087
:101700000004004800080048000C00480010004891
:1017100000140048908800080010024000000140BA
:1017200000237A6902F00302920093403A6913435E
:101730003B6135497B699B0802333A6941F82320B4
:10174000324B1B683B61FB68DB433A6913403B61EA
:101750003B685B6803F48033002B03D03A69FB6875
:1017600013433B61294A3B691360284B5B683B612B
:10177000FB68DB433A6913403B613B685B6803F4F9
:101780000033002B03D03A69FB6813433B611F4AC7
:101790003B6953601D4B9B683B61FB68DB433A69C7
:1017A00013403B613B685B6803F48013002B03D05C
:1017B0003A69FB6813433B61144A3B699360134BDE
:1017C000DB683B61FB68DB433A6913403B613B6884
:1017D0005B6803F40013002B03D03A69FB681343E2
:1017E0003B610A4A3B69D3607B6901337B613B689B
:1017F0001A687B6922FA03F3002B7FF457AE00BF0F
:1018000000BF1837BD4680BD000001400004014004
:1018100080B586B000AF7860396000237B617B685B
:10182000B3F1904F18D07B68764A934214D07B680E
:10183000754A934210D07B68744A93420CD07B68FF
:10184000734A934208D07B68724A934204D040F2B4
:101850003711714805F090FC3B689BB2002B05D016
:101860003B681B0C1B04002B00F0BF804FF49C71E5
:10187000694805F081FCB8E001227B6902FA03F3B4
:101880003A6813403B613B69002B00F0AB80634A30
:101890007B699B08023352F82330FB607B6903F0BD
:1018A00003039B000F2202FA03F3FA681340FB6064
:1018B0007B68B3F1904F19D07B68524A934213D0A2
:1018C0007B68514A93420DD07B68504A934207D0BF
:1018D0007B684F4A934201D1042308E0052306E0C8
:1018E000032304E0022302E0012300E000237A69DD
:1018F00002F0030292009340FA689A4232D1484BB8
:101900001A683B69DB43464913400B60444B5A68F5
:101910003B69DB43424913404B60414B9A683B694A
:10192000DB433F4913408B603D4BDA683B69DB4347
:101930003B491340CB607B6903F003039B000F22FC
:1019400002FA03F3FB60354A7B699B08023352F8C5
:101950002310FB68DA4331487B699B080A40023355
:1019600040F823207B681A687B695B00032101FA39
:1019700003F3DB431A407B681A607B69DA087B68F3
:10198000083253F822107B6903F007039B000F22F3
:1019900002FA03F3DB437A69D20819407B68083204
:1019A00043F822107B689A687B695B00032101FA87
:1019B00003F3DB431A407B689A607B685A68012115
:1019C0007B6901FA03F3DB431A407B685A607B684A
:1019D000DA687B695B00032101FA03F3DB431A40F9
:1019E0007B68DA607B6901337B613A687B6922FA44
:1019F00003F3002B7FF440AF00BF00BF1837BD4694
:101A000080BD00BF0004004800080048000C0048EA
:101A100000100048001400489088000800000140B1
:101A20000004014080B582B000AF78600B467B8037
:101A300013467B707B88002B04D07B881B0C1B0417
:101A4000002B04D040F2A7110D4805F095FB7B78E0
:101A5000002B07D07B78012B04D04FF4D4710848B9
:101A600005F08AFB7B78002B03D07A887B689A612B
:101A700002E07A887B689A6200BF0837BD4680BD65
:101A80009088000880B582B000AF78600B467B80FC
:101A90007B88002B04D07B881B0C1B04002B04D0FC
:101AA00040F2BD110A4805F067FB7B685A697B88E4
:101AB0001340002B04D07B881A047B689A6102E0F3
:101AC0007A887B689A6100BF0837BD4680BD00BF39
:101AD0009088000880B582B000AF0346FB80084BB9
:101AE0005A69FB881340002B06D0054AFB885361D6
:101AF000FB88184605F0F2FA00BF0837BD4680BDE6
:101B00000004014080B582B000AF78607B68002B94
:101B100001D10123FFE07B681B68814A934209D011
:101B20007B681B687F4A934204D04FF4EF717E4874
:101B300005F022FB7B689B68B3F5806F04D340F20D
:101B4000DF11794805F018FB7B68DB68012B08D0B2
:101B50007B68DB68022B04D04FF4F071724805F00B
:101B60000BFB7B681B69002B09D07B681B69B3F5F5
:101B7000004F04D040F2E1116B4805F0FDFA7B689C
:101B80005B69FF2B04D94FF4F171674805F0F4FA53
:101B90007B689B69002B20D07B689B69012B1CD044
:101BA0007B689B69022B18D07B689B69032B14D040
:101BB0007B689B69042B10D07B689B69052B0CD03C
:101BC0007B689B69062B08D07B689B69072B04D038
:101BD00040F2E311544805F0CFFA7B68DB69002B33
:101BE00009D07B68DB69B3F5002F04D04FF4F271A4
:101BF0004D4805F0C1FA7B681B6A002B09D07B6851
:101C00001B6AB3F5003F04D040F2E511464805F0E9
:101C1000B3FA7B6893F84130DBB2002B06D17B68C6
:101C2000002283F84020786804F0D6FA7B682422EA
:101C300083F841207B681B681A687B681B6822F068
:101C400001021A607B685A687B681B6822F0706228
:101C50001A617B681B689A687B681B6822F40042E3
:101C60009A607B68DB68012B07D17B689A687B6888
:101C70001B6842F400429A6006E07B689A687B68C1
:101C80001B6842F404429A607B68DB68022B04D133
:101C90007B681B684FF400625A607B681B685B6856
:101CA0007A68126843F0007343F4004353607B6822
:101CB0001B68DA687B681B6822F40042DA607B6884
:101CC0001A697B685B6942EA03017B689B691A02B7
:101CD0007B681B680A43DA607B68D9697B681A6A8B
:101CE0007B681B680A431A607B681B681A687B68FC
:101CF0001B6842F001021A607B6800225A647B680C
:101D0000202283F841207B6800221A637B6800222E
:101D100083F84220002318460837BD4680BD00BF27
:101D20000054004000580040E888000880B582B0A8
:101D300000AF78607B68002B01D1012330E07B6825
:101D40001B68194A934209D07B681B68174A934263
:101D500004D040F24B21164805F00EFA7B6824228D
:101D600083F841207B681B681A687B681B6822F037
:101D700001021A60786804F073FA7B6800225A64E2
:101D80007B68002283F841207B6800221A637B680D
:101D9000002283F842207B68002283F84020002341
:101DA00018460837BD4680BD00540040005800402A
:101DB000E888000880B588B002AFF8600846114690
:101DC0001A4603467B810B463B811346FB80FB880A
:101DD000012B07D0FB88022B04D040F6ED0184488C
:101DE00005F0CAF9FB6893F84130DBB2202B40F0D4
:101DF000F9803B6A002B02D0BB8C002B05D1FB681D
:101E00004FF400725A640123EDE0FB6893F8403010
:101E1000012B01D10223E6E0FB68012283F8402078
:101E2000FFF704F978617B690093192301224FF4CD
:101E30000041F86800F0E1FA0346002B01D00123CD
:101E4000D1E0FB68212283F84120FB68402283F81F
:101E50004220FB6800225A64FB683A6A5A62FB68B7
:101E6000BA8C5A85FB6800225A63F8883A897989C6
:101E70007B690193BB6A00930346F86800F0F2F9AE
:101E80000346002B05D0FB68002283F84020012385
:101E9000A9E0FB685B8D9BB2FF2B0ED9FB68FF228C
:101EA0001A85FB681B8DDAB27989002300934FF005
:101EB0008073F86800F0C4FB0FE0FB685B8D9AB29A
:101EC000FB681A85FB681B8DDAB2798900230093C1
:101ED0004FF00073F86800F0B3FB7A69B96AF868EC
:101EE00000F0CBFA0346002B01D001237BE0FB6816
:101EF0005B6A1A78FB681B689A62FB685B6A5A1C0B
:101F0000FB685A62FB685B8D9BB2013B9AB2FB682F
:101F10005A85FB681B8D013B9AB2FB681A85FB68EA
:101F20005B8D9BB2002B34D0FB681B8D002B30D116
:101F30007B690093BB6A00228021F86800F05DFA9B
:101F40000346002B01D001234DE0FB685B8D9BB263
:101F5000FF2B0ED9FB68FF221A85FB681B8DDAB2B6
:101F60007989002300934FF08073F86800F068FBD4
:101F70000FE0FB685B8D9AB2FB681A85FB681B8DCE
:101F8000DAB27989002300934FF00073F86800F00B
:101F900057FBFB685B8D9BB2002B9ED17A69B96AB7
:101FA000F86800F0AAFA0346002B01D001231AE0DA
:101FB000FB681B682022DA61FB681B685968FB68B4
:101FC0001A680C4B0B405360FB68202283F84120B9
:101FD000FB68002283F84220FB68002283F840203F
:101FE000002300E0022318461837BD4680BD00BF1D
:101FF000E888000800E800FE80B588B002AFF8600D
:10200000084611461A4603467B810B463B81134620
:10201000FB80FB88012B07D0FB88022B04D040F605
:102020007411864805F0A8F8FB6893F84130DBB2DC
:10203000202B40F0FD803B6A002B02D0BB8C002B94
:1020400005D1FB684FF400725A640123F1E0FB688C
:1020500093F84030012B01D10223EAE0FB68012212
:1020600083F84020FEF7E2FF78617B690093192333
:1020700001224FF40041F86800F0BFF90346002B3D
:1020800001D00123D5E0FB68222283F84120FB68C0
:10209000402283F84220FB6800225A64FB683A6AB7
:1020A0005A62FB68BA8C5A85FB6800225A63F8882A
:1020B0003A8979897B690193BB6A00930346F86882
:1020C00000F024F90346002B05D0FB68002283F8BA
:1020D00040200123ADE0FB685B8D9BB2FF2B0ED946
:1020E000FB68FF221A85FB681B8DDAB27989544B95
:1020F00000934FF08073F86800F0A2FA0FE0FB68DD
:102100005B8D9AB2FB681A85FB681B8DDAB2798900
:102110004B4B00934FF00073F86800F091FA7B6925
:102120000093BB6A00220421F86800F066F90346B8
:10213000002B01D001237CE0FB681B685A6AFB6816
:102140005B6AD2B21A70FB685B6A5A1CFB685A62FF
:10215000FB681B8D013B9AB2FB681A85FB685B8D9F
:102160009BB2013B9AB2FB685A85FB685B8D9BB2C0
:10217000002B34D0FB681B8D002B30D17B69009382
:10218000BB6A00228021F86800F037F90346002B73
:1021900001D001234DE0FB685B8D9BB2FF2B0ED974
:1021A000FB68FF221A85FB681B8DDAB27989002350
:1021B00000934FF08073F86800F042FA0FE0FB687C
:1021C0005B8D9AB2FB681A85FB681B8DDAB2798940
:1021D000002300934FF00073F86800F031FAFB68B9
:1021E0005B8D9BB2002B9AD17A69B96AF86800F0CE
:1021F00084F90346002B01D001231AE0FB681B6819
:102200002022DA61FB681B685968FB681A680D4B6D
:102210000B405360FB68202283F84120FB680022BA
:1022200083F84220FB68002283F84020002300E06E
:10223000022318461837BD4680BD00BFE888000855
:102240000024008000E800FE80B483B000AF786016
:102250007B6893F84130DBB218460C37BD4680BC32
:102260007047000080B586B002AFF860084611469E
:102270001A4603467B810B463B811346FB80FB8855
:10228000DAB27989204B00934FF08073F86800F040
:10229000D7F9FA69B969F86800F0EFF80346002B3E
:1022A00001D001232CE0FB88012B05D13B89DAB258
:1022B000FB681B689A6215E03B891B0A9BB2DAB285
:1022C000FB681B689A62FA69B969F86800F0D5F88A
:1022D0000346002B01D0012312E03B89DAB2FB68F0
:1022E0001B689A62FB690093BB6900228021F86831
:1022F00000F083F80346002B01D0012300E0002307
:1023000018461037BD4680BD0020008080B586B0DD
:1023100002AFF860084611461A4603467B810B4619
:102320003B811346FB80FB88DAB27989204B00930E
:102330000023F86800F084F9FA69B969F86800F0D8
:102340009CF80346002B01D001232CE0FB88012BD5
:1023500005D13B89DAB2FB681B689A6215E03B89BC
:102360001B0A9BB2DAB2FB681B689A62FA69B96908
:10237000F86800F082F80346002B01D0012312E038
:102380003B89DAB2FB681B689A62FB690093BB6900
:1023900000224021F86800F030F80346002B01D0FD
:1023A000012300E0002318461037BD4680BD00BF62
:1023B0000020008080B483B000AF78607B681B6829
:1023C0009B6903F00203022B03D17B681B68002288
:1023D0009A627B681B689B6903F00103012B07D09D
:1023E0007B681B689A697B681B6842F001029A61EE
:1023F00000BF0C37BD4680BC704780B584B000AFCD
:10240000F860B9603B601346FB7122E03B68B3F1B2
:10241000FF3F1ED0FEF70AFE0246BB69D31A3A6898
:102420009A4202D33B68002B13D1FB685B6C43F0EC
:102430002002FB685A64FB68202283F84120FB6875
:10244000002283F84220FB68002283F84020012309
:102450000FE0FB681B689A69BB681340BA689A4230
:102460000CBF01230023DBB21A46FB799A42CDD080
:10247000002318461037BD4680BD80B584B000AF3C
:10248000F860B9607A602CE07A68B968F86800F0A2
:1024900071F80346002B01D001232AE0BB68B3F199
:1024A000FF3F1ED0FEF7C2FD02467B68D31ABA6812
:1024B0009A4202D3BB68002B13D1FB685B6C43F0DC
:1024C0002002FB685A64FB68202283F84120FB68E5
:1024D000002283F84220FB68002283F84020012379
:1024E00007E0FB681B689B6903F00203022BCBD15A
:1024F000002318461037BD4680BD80B584B000AFBC
:10250000F860B9607A6028E07A68B968F86800F025
:1025100031F80346002B01D0012326E0FEF786FDAB
:1025200002467B68D31ABA689A4202D3BB68002B72
:1025300013D1FB685B6C43F02002FB685A64FB68B4
:10254000202283F84120FB68002283F84220FB68A8
:10255000002283F84020012307E0FB681B689B6989
:1025600003F02003202BCFD1002318461037BD469F
:1025700080BD000080B584B000AFF860B9607A60BB
:10258000FB681B689B6903F01003102B51D122E0FC
:10259000BB68B3F1FF3F1ED0FEF748FD02467B68E3
:1025A000D31ABA689A4202D3BB68002B13D1FB68D6
:1025B0005B6C43F02002FB685A64FB68202283F8BE
:1025C0004120FB68002283F84220FB68002283F848
:1025D000402001232EE0FB681B689B6903F0200369
:1025E000202BD5D1FB681B681022DA61FB681B68C1
:1025F0002022DA61F868FFF7DDFEFB681B68596886
:10260000FB681A680D4B0B405360FB685B6C43F032
:102610000402FB685A64FB68202283F84120FB68AF
:10262000002283F84220FB68002283F84020012327
:1026300000E0002318461037BD4680BD00E800FECC
:1026400080B584B000AFF8607B600B467B81134699
:102650007B72FB681B68284A934209D0FB681B68A1
:10266000264A934204D041F6AB01254804F084FD8C
:102670007B68B3F1807F0BD07B68B3F1007F07D01C
:102680007B68002B04D041F6AC011D4804F074FDBA
:10269000BB691C4A93420FD0BB691B4A93420BD0C3
:1026A000BB691A4A934207D0BB69002B04D041F69C
:1026B000AD01134804F060FDFB681B685A68BB69F4
:1026C0005B0D03F48061124B0B43DB4302EA030111
:1026D0007B89C3F309027B7A1B0403F47F031A434B
:1026E0007B681A43BB691A43FB681B680A435A603C
:1026F00000BF1037BD4680BD005400400058004068
:10270000E88800080040008000240080002000804D
:10271000FF63FF0380B582B000AF786039607B68EB
:102720001B682D4A934208D07B681B682B4A934252
:1027300003D064212A4804F01FFD3B68002B07D01A
:102740003B68B3F5805F03D06521254804F014FD94
:102750007B6893F84130DBB2202B38D17B6893F84B
:102760004030012B01D1022332E07B68012283F843
:1027700040207B68242283F841207B681B681A680C
:102780007B681B6822F001021A607B681B681A686C
:102790007B681B6822F480521A607B681B6819688A
:1027A0007B681B683A680A431A607B681B681A6872
:1027B0007B681B6842F001021A607B68202283F864
:1027C00041207B68002283F84020002300E00223A0
:1027D00018460837BD4680BD0054004000580040F0
:1027E0004089000880B584B000AF786039607B68AC
:1027F0001B682C4A934208D07B681B682A4A934284
:1028000003D09221294804F0B7FC3B680F2B03D971
:102810009321264804F0B0FC7B6893F84130DBB28A
:10282000202B39D17B6893F84030012B01D1022352
:1028300033E07B68012283F840207B68242283F800
:1028400041207B681B681A687B681B6822F00102C4
:102850001A607B681B681B68FB60FB6823F470636D
:10286000FB603B681B02FA681343FB607B681B68D4
:10287000FA681A607B681B681A687B681B6842F0FC
:1028800001021A607B68202283F841207B680022C5
:1028900083F84020002300E0022318461037BD468D
:1028A00080BD00BF0054004000580040408900082F
:1028B00080B5ADF5007D00AF3B1D18603B1D1B686A
:1028C000002B02D1012300F0F7BF3B1D1B681B68E2
:1028D000002B20D03B1D1B681B6803F00103002B5D
:1028E00019D13B1D1B681B6803F00203002B12D19A
:1028F0003B1D1B681B6803F00803002B0BD13B1D1D
:102900001B681B6803F00403002B04D140F24B1139
:10291000C34804F031FC3B1D1B681B6803F0010336
:10292000002B00F082813B1D1B685B68002B10D0E0
:102930003B1D1B685B68B3F5803F0AD03B1D1B68DD
:102940005B68B3F5A02F04D040F25111B44804F0F5
:1029500013FCB44B5B6803F00C03042B0CD0B14B9D
:102960005B6803F00C03082B59D1AE4B5B6803F492
:102970008033B3F5803F52D14FF40033C7F8F031C4
:10298000D7F8F03193FAA3F3C7F8EC31D7F8EC316C
:10299000B3FA83F3DBB25B09DBB243F00103DBB2D2
:1029A000012B02D19F4B1B6815E04FF40033C7F891
:1029B000E831D7F8E83193FAA3F3C7F8E4314FF4DC
:1029C0000033C7F8E031D7F8E03193FAA3F3C7F842
:1029D000DC31944B5B6A4FF40032C7F8D821D7F84A
:1029E000D82192FAA2F2C7F8D421D7F8D421B2FAAA
:1029F00082F2D2B242F02002D2B202F01F020121D2
:102A000001FA02F21340002B00F00E813B1D1B68FF
:102A10005B68002B40F00881012300F04DBF3B1D97
:102A20001B685B68B3F5803F06D17E4B1B687D4A0F
:102A300043F48033136030E03B1D1B685B68002B60
:102A40000CD1784B1B68774A23F480331360754BA5
:102A50001B68744A23F4802313601EE03B1D1B682F
:102A60005B68B3F5A02F0CD16E4B1B686D4A43F425
:102A7000802313606B4B1B686A4A43F480331360F6
:102A80000BE0684B1B68674A23F480331360654B87
:102A90001B68644A23F480231360624BDB6A23F0D3
:102AA0000F023B1D1B689B685E491343CB623B1DB5
:102AB0001B685B68002B59D0FEF7B8FAC7F8F8011D
:102AC0000AE0FEF7B3FA0246D7F8F831D31A642BBE
:102AD00002D9032300F0F0BE4FF40033C7F8D03121
:102AE000D7F8D03193FAA3F3C7F8CC31D7F8CC316B
:102AF000B3FA83F3DBB25B09DBB243F00103DBB271
:102B0000012B02D1474B1B6815E04FF40033C7F887
:102B1000C831D7F8C83193FAA3F3C7F8C4314FF4DA
:102B20000033C7F8C031D7F8C03193FAA3F3C7F820
:102B3000BC313C4B5B6A4FF40032C7F8B821D7F880
:102B4000B82192FAA2F2C7F8B421D7F8B421B2FAA8
:102B500082F2D2B242F02002D2B202F01F02012170
:102B600001FA02F21340002BABD05EE0FEF75EFAF2
:102B7000C7F8F8010AE0FEF759FA0246D7F8F8312B
:102B8000D31A642B02D9032300F096BE4FF400330E
:102B9000C7F8B031D7F8B03193FAA3F3C7F8AC3126
:102BA000D7F8AC31B3FA83F3DBB25B09DBB243F0A5
:102BB0000103DBB2012B02D11A4B1B6815E04FF465
:102BC0000033C7F8A831D7F8A83193FAA3F3C7F8B0
:102BD000A4314FF40033C7F8A031D7F8A03193FAED
:102BE000A3F3C7F89C310F4B5B6A4FF40032C7F870
:102BF0009821D7F8982192FAA2F2C7F89421D7F831
:102C00009421B2FA82F2D2B242F02002D2B202F0A1
:102C10001F02012101FA02F21340002BABD104E0A4
:102C20009C8900080010024000BF3B1D1B681B6808
:102C300003F00203002B00F08C813B1D1B681B6915
:102C4000002B09D03B1D1B681B69012B04D040F2EF
:102C50008911A74804F090FA3B1D1B685B691F2B84
:102C600004D94FF4C571A24804F086FAA14B5B6801
:102C700003F00C03002B0BD09E4B5B6803F00C039E
:102C8000082B6CD19B4B5B6803F48033002B66D11F
:102C90000223C7F89031D7F8903193FAA3F3C7F81D
:102CA0008C31D7F88C31B3FA83F3DBB25B09DBB23A
:102CB00043F00103DBB2012B02D18E4B1B6813E002
:102CC0000223C7F88831D7F8883193FAA3F3C7F8FD
:102CD00084310223C7F88031D7F8803193FAA3F307
:102CE000C7F87C31834B5B6A0222C7F87821D7F89A
:102CF000782192FAA2F2C7F87421D7F87421B2FAB7
:102D000082F2D2B242F02002D2B202F01F020121BE
:102D100001FA02F21340002B07D03B1D1B681B6910
:102D2000012B02D0012300F0C7BD724B1B6823F0BA
:102D3000F8023B1D1B685B69F821C7F87011D7F8D2
:102D4000701191FAA1F1C7F86C11D7F86C11B1FAB2
:102D500081F1C9B28B40674913430B60F9E03B1D19
:102D60001B681B69002B00F085800123C7F86831C0
:102D7000D7F8683193FAA3F3C7F86431D7F8643110
:102D8000B3FA83F3DBB203F1845303F584139B009E
:102D90001A4601231360FEF749F9C7F8F8010AE063
:102DA000FEF744F90246D7F8F831D31A022B02D9BC
:102DB000032300F081BD0223C7F86031D7F86031EA
:102DC00093FAA3F3C7F85C31D7F85C31B3FA83F315
:102DD000DBB25B09DBB243F00103DBB2012B02D1B2
:102DE000444B1B6813E00223C7F85831D7F8583119
:102DF00093FAA3F3C7F854310223C7F85031D7F838
:102E0000503193FAA3F3C7F84C313A4B5B6A022274
:102E1000C7F84821D7F8482192FAA2F2C7F844210E
:102E2000D7F84421B2FA82F2D2B242F02002D2B2F2
:102E300002F01F02012101FA02F21340002BAFD071
:102E40002C4B1B6823F0F8023B1D1B685B69F821C3
:102E5000C7F84011D7F8401191FAA1F1C7F83C1119
:102E6000D7F83C11B1FA81F1C9B28B402149134323
:102E70000B606EE00123C7F83831D7F8383193FA88
:102E8000A3F3C7F83431D7F83431B3FA83F3DBB2A4
:102E900003F1845303F584139B001A460023136047
:102EA000FEF7C4F8C7F8F8010AE0FEF7BFF80246DB
:102EB000D7F8F831D31A022B02D9032300F0FCBC57
:102EC0000223C7F83031D7F8303193FAA3F3C7F8AB
:102ED0002C31D7F82C31B3FA83F3DBB25B09DBB2C8
:102EE00043F00103DBB2012B06D1024B1B6817E054
:102EF0009C890008001002400223C7F82831D7F847
:102F0000283193FAA3F3C7F824310223C7F82031FC
:102F1000D7F8203193FAA3F3C7F81C31BF4B5B6A93
:102F20000222C7F81821D7F8182192FAA2F2C7F89E
:102F30001421D7F81421B2FA82F2D2B242F0200260
:102F4000D2B202F01F02012101FA02F21340002B5B
:102F5000ABD13B1D1B681B6803F00803002B00F07E
:102F6000E6803B1D1B689B69002B09D03B1D1B683D
:102F70009B69012B04D04FF4E571A94804F0FCF8DB
:102F80003B1D1B689B69002B65D00123C7F81031DE
:102F9000D7F8103193FAA3F3C7F80C31D7F80C31F6
:102FA000B3FA83F3DBB21A469E4B13449B001A46D6
:102FB00001231360FEF73AF8C7F8F8010AE0FEF7BC
:102FC00035F80246D7F8F831D31A022B02D9032379
:102FD00000F072BC0223C7F80831D7F8083193FA21
:102FE000A3F3C7F8043107F5807302221A6007F5CE
:102FF00080731B6893FAA3F207F1FC031A6007F1D0
:10300000F80302221A6007F1F8031B6893FAA3F28F
:1030100007F1F4031A60814B5A6A07F1F0030221A9
:10302000196007F1F0031B6893FAA3F107F1EC03B1
:10303000196007F1EC031B68B3FA83F3DBB243F0CA
:103040006003DBB203F01F03012101FA03F3134015
:10305000002BB4D06BE007F1E80301221A6007F1FE
:10306000E8031B6893FAA3F207F1E4031A6007F17F
:10307000E4031B68B3FA83F3DBB21A46694B1344CB
:103080009B001A4600231360FDF7D0FFC7F8F80134
:103090000AE0FDF7CBFF0246D7F8F831D31A022B2E
:1030A00002D9032300F008BC07F1E00302221A60F2
:1030B00007F1E0031B6893FAA3F207F1DC031A603F
:1030C00007F1D80302221A6007F1D8031B6893FAAC
:1030D000A3F207F1D4031A6007F1D00302221A60A9
:1030E00007F1D0031B6893FAA3F207F1CC031A602F
:1030F0004A4B5A6A07F1C8030221196007F1C80355
:103100001B6893FAA3F107F1C403196007F1C40324
:103110001B68B3FA83F3DBB243F06003DBB203F066
:103120001F03012101FA03F31340002BB1D13B1D12
:103130001B681B6803F00403002B00F07081002360
:1031400087F8FF313B1D1B68DB68002B0ED03B1D51
:103150001B68DB68012B09D03B1D1B68DB68052B56
:1031600004D04FF4FB712E4804F006F82B4BDB69BA
:1031700003F08053002B12D1284BDB69274A43F020
:103180008053D361254BDB6903F0805207F10803BC
:103190001A6007F108031B68012387F8FF31224BEF
:1031A0001B6803F48073002B1AD11F4B1B681E4A47
:1031B00043F480731360FDF739FFC7F8F80109E0A5
:1031C000FDF734FF0246D7F8F831D31A642B01D942
:1031D000032371E3144B1B6803F48073002BEFD0BF
:1031E0003B1D1B68DB68012B06D10C4B1B6A0B4A8D
:1031F00043F00103136237E03B1D1B68DB68002BC3
:1032000014D1064B1B6A054A23F001031362034BDA
:103210001B6A024A23F00403136225E000100240F7
:103220009C89000820819010007000403B1D1B68A5
:10323000DB68052B0CD15E4B1B6A5D4A43F004032F
:1032400013625B4B1B6A5A4A43F0010313620BE0A3
:10325000574B1B6A564A23F001031362544B1B6AF7
:10326000534A23F0040313623B1D1B68DB68002BE9
:1032700064D0FDF7DBFEC7F8F8010BE0FDF7D6FEE2
:103280000246D7F8F831D31A41F28832934201D975
:10329000032311E307F1C00302221A6007F1C00300
:1032A0001B6893FAA3F207F1BC031A6007F1B80395
:1032B00002221A6007F1B8031B6893FAA3F207F120
:1032C000B4031A6007F1B4031B68B3FA83F3DBB2EB
:1032D0005B09DBB243F00203DBB2022B02D1344BB9
:1032E0001B6A0DE007F1B00302221A6007F1B00378
:1032F0001B6893FAA3F207F1AC031A602C4B5B6ACC
:1033000007F1A8020221116007F1A802126892FADF
:10331000A2F107F1A402116007F1A4021268B2FA47
:1033200082F2D2B242F04002D2B202F01F02012178
:1033300001FA02F21340002BA0D066E0FDF776FE02
:10334000C7F8F8010BE0FDF771FE0246D7F8F83137
:10335000D31A41F28832934201D90323ACE207F138
:10336000A00302221A6007F1A0031B6893FAA3F2DC
:1033700007F19C031A6007F1980302221A6007F113
:1033800098031B6893FAA3F207F194031A6007F1FC
:1033900094031B68B3FA83F3DBB25B09DBB243F03F
:1033A0000203DBB2022B05D1014B1B6A10E000BF08
:1033B0000010024007F1900302221A6007F1900307
:1033C0001B6893FAA3F207F18C031A60B64B5B6A91
:1033D00007F188020221116007F18802126892FA4F
:1033E000A2F107F18402116007F184021268B2FAB7
:1033F00082F2D2B242F04002D2B202F01F020121A8
:1034000001FA02F21340002B9DD197F8FF31012BF6
:1034100005D1A54BDB69A44A23F08053D3613B1D42
:103420001B68DB69002B0ED03B1D1B68DB69012B81
:1034300009D03B1D1B68DB69022B04D040F23A2106
:103440009A4803F099FE3B1D1B68DB69002B00F0D6
:103450003282954B5B6803F00C03082B00F00C8262
:103460003B1D1B68DB69022B40F084813B1D1B6800
:103470001B6A002B0AD03B1D1B681B6AB3F5803FFB
:1034800004D040F24321894803F076FE3B1D1B68BF
:103490005B6A002B58D03B1D1B685B6AB3F5802F1D
:1034A00052D03B1D1B685B6AB3F5002F4CD03B1D0F
:1034B0001B685B6AB3F5402F46D03B1D1B685B6AF7
:1034C000B3F5801F40D03B1D1B685B6AB3F5A01F9E
:1034D0003AD03B1D1B685B6AB3F5C01F34D03B1D5F
:1034E0001B685B6AB3F5E01F2ED03B1D1B685B6A4F
:1034F000B3F5001F28D03B1D1B685B6AB3F5101F96
:1035000022D03B1D1B685B6AB3F5201F1CD03B1DFE
:103510001B685B6AB3F5301F16D03B1D1B685B6AE6
:10352000B3F5401F10D03B1D1B685B6AB3F5501FFD
:103530000AD03B1D1B685B6AB3F5601F04D04FF4D3
:1035400011715A4803F018FE07F180034FF08072A2
:103550001A6007F180031B6893FAA3F207F17C035A
:103560001A6007F17C031B68B3FA83F3DBB203F143
:10357000845303F584139B001A4600231360FDF760
:1035800055FDC7F8F80109E0FDF750FD0246D7F8F0
:10359000F831D31A022B01D903238DE107F1780307
:1035A0004FF000721A6007F178031B6893FAA3F2D8
:1035B00007F174031A6007F174031B68B3FA83F30D
:1035C000DBB25B09DBB243F00103DBB2012B02D1BA
:1035D000354B1B681BE007F170034FF000721A6057
:1035E00007F170031B6893FAA3F207F16C031A60EA
:1035F00007F168034FF000721A6007F168031B6857
:1036000093FAA3F207F164031A60274B5B6A07F190
:1036100060024FF00071116007F16002126892FAC7
:10362000A2F107F15C02116007F15C021268B2FAC4
:1036300082F2D2B242F02002D2B202F01F02012185
:1036400001FA02F21340002B9ED1174B5B6823F462
:1036500074123B1D1B68596A3B1D1B681B6A0B4398
:10366000114913434B6007F158034FF080721A6001
:1036700007F158031B6893FAA3F207F154031A6089
:1036800007F154031B68B3FA83F3DBB203F18453ED
:1036900003F584139B001A4601231360FDF7C6FC53
:1036A000C7F8F8010EE000BF001002409C89000836
:1036B000FDF7BCFC0246D7F8F831D31A022B01D92A
:1036C0000323F9E007F150034FF000721A6007F18D
:1036D00050031B6893FAA3F207F14C031A6007F139
:1036E0004C031B68B3FA83F3DBB25B09DBB243F034
:1036F0000103DBB2012B02D1724B1B681BE007F107
:1037000048034FF000721A6007F148031B6893FAF0
:10371000A3F207F144031A6007F140034FF000726F
:103720001A6007F140031B6893FAA3F207F13C0308
:103730001A60644B5B6A07F138024FF00071116048
:1037400007F13802126892FAA2F107F1340211600F
:1037500007F134021268B2FA82F2D2B242F02002C9
:10376000D2B202F01F02012101FA02F21340002B33
:103770009ED0A0E007F130034FF080721A6007F18D
:1037800030031B6893FAA3F207F12C031A6007F1C8
:103790002C031B68B3FA83F3DBB203F1845303F504
:1037A00084139B001A4600231360FDF73FFCC7F803
:1037B000F80109E0FDF73AFC0246D7F8F831D31AD0
:1037C000022B01D9032377E007F128034FF00072A1
:1037D0001A6007F128031B6893FAA3F207F1240388
:1037E0001A6007F124031B68B3FA83F3DBB25B09A9
:1037F000DBB243F00103DBB2012B02D1314B1B687A
:103800001BE007F120034FF000721A6007F120035C
:103810001B6893FAA3F207F11C031A6007F118035F
:103820004FF000721A6007F118031B6893FAA3F2B5
:1038300007F114031A60234B5B6A07F110024FF083
:103840000071116007F11002126892FAA2F107F1FB
:103850000C02116007F10C021268B2FA82F2D2B2C5
:1038600042F02002D2B202F01F02012101FA02F25C
:103870001340002B9ED11EE03B1D1B68DB69012B12
:1038800001D1012318E00F4B5B68C7F8F431D7F87A
:10389000F43103F480323B1D1B681B6A9A4208D145
:1038A000D7F8F43103F470123B1D1B685B6A9A422F
:1038B00001D0012300E00023184607F50077BD463C
:1038C00080BD00BF0010024080B59EB000AF7860A0
:1038D000396000237B677B68002B01D1012303E261
:1038E0007B681B6803F00103002B16D17B681B6803
:1038F00003F00203002B10D17B681B6803F0040364
:10390000002B0AD17B681B6803F00803002B04D14D
:1039100040F2C321A54803F02FFC3B68002B0AD0DE
:103920003B68012B07D03B68022B04D04FF4317168
:103930009E4803F021FC9E4B1B6803F007033A6886
:103940009A4210D99A4B1B6823F0070298493B68AA
:1039500013430B60964B1B6803F007033A689A42C7
:1039600001D00123C0E17B681B6803F00203002B38
:1039700031D07B689B68002B24D07B689B68802BB0
:1039800020D07B689B68902B1CD07B689B68A02B09
:1039900018D07B689B68B02B14D07B689B68C02BC9
:1039A00010D07B689B68D02B0CD07B689B68E02B89
:1039B00008D07B689B68F02B04D040F2DB217B4869
:1039C00003F0DAFB7B4B5B6823F0F0027B689B68BB
:1039D000784913434B607B681B6803F00103002B9D
:1039E00000F0F3807B685B68002B0CD07B685B6821
:1039F000012B08D07B685B68022B04D040F2E221E7
:103A00006A4803F0B9FB7B685B68012B3CD14FF43B
:103A100000333B673B6F93FAA3F3FB66FB6EB3FA8D
:103A200083F3DBB25B09DBB243F00103DBB2012BB2
:103A300002D1604B1B680FE04FF40033BB66BB6ED6
:103A400093FAA3F37B664FF400333B663B6E93FA25
:103A5000A3F3FB65574B5B6A4FF40032BA65BA6D4E
:103A600092FAA2F27A657A6DB2FA82F2D2B242F09A
:103A70002002D2B202F01F02012101FA02F2134029
:103A8000002B7BD101232FE17B685B68022B3CD1AB
:103A90004FF000733B653B6D93FAA3F3FB64FB6C43
:103AA000B3FA83F3DBB25B09DBB243F00103DBB2B1
:103AB000012B02D13F4B1B680FE04FF00073BB643A
:103AC000BB6C93FAA3F37B644FF000733B643B6CD5
:103AD00093FAA3F3FB63374B5B6A4FF00072BA6350
:103AE000BA6B92FAA2F27A637A6BB2FA82F2D2B22B
:103AF00042F02002D2B202F01F02012101FA02F2CA
:103B00001340002B3AD10123EEE002233B633B6BD1
:103B100093FAA3F3FB62FB6AB3FA83F3DBB25B09AC
:103B2000DBB243F00103DBB2012B02D1214B1B6856
:103B30000DE00223BB62BB6A93FAA3F37B6202230C
:103B40003B623B6A93FAA3F3FB611A4B5B6A022266
:103B5000BA61BA6992FAA2F27A617A69B2FA82F229
:103B6000D2B242F02002D2B202F01F02012101FAC9
:103B700002F21340002B01D10123B5E00D4B5B682D
:103B800023F003027B685B680A4913434B60FDF72F
:103B90004DFA786710E0FDF749FA02467B6FD31AB9
:103BA00041F28832934207D903239DE09C890008A3
:103BB00000200240001002404D4B5B6803F00C02F5
:103BC0007B685B689B009A42E5D14A4B1B6803F017
:103BD00007033A689A4210D2464B1B6823F007024B
:103BE00044493B6813430B60424B1B6803F00703D7
:103BF0003A689A4201D0012376E07B681B6803F0A3
:103C00000403002B25D07B68DB68002B18D07B6871
:103C1000DB68B3F5806F13D07B68DB68B3F5A06F0A
:103C20000ED07B68DB68B3F5C06F09D07B68DB68BA
:103C3000B3F5E06F04D040F21E312F4803F09CFA38
:103C40002B4B5B6823F4E0627B68DB6828491343F5
:103C50004B607B681B6803F00803002B26D07B6851
:103C60001B69002B18D07B681B69B3F5806F13D0DC
:103C70007B681B69B3F5A06F0ED07B681B69B3F539
:103C8000C06F09D07B681B69B3F5E06F04D040F2C8
:103C90002531194803F070FA154B5B6823F4605224
:103CA0007B681B69DB00124913434B6000F02CF862
:103CB00001460F4B5B6803F0F003F0223A613A696A
:103CC00092FAA2F2FA60FA68B2FA82F2D2B2D34061
:103CD0000A4AD35C21FA03F3094A1360094B1B68B3
:103CE0001846FDF761F9002318467837BD4680BDB8
:103CF00000100240002002409C890008088C000847
:103D0000780000200000002080B48BB000AF0023BA
:103D1000FB610023BB6100237B6200237B610023E6
:103D20003B62284B5B68FB61FB6903F00C03042BCF
:103D300002D0082B03D03CE0234B3B623CE0FB6904
:103D400003F470134FF47012BA60BA6892FAA2F2D8
:103D50007A607A68B2FA82F2D2B2D3401B4AD35C5C
:103D60007B61184BDB6A03F00F030F223A613A695B
:103D700092FAA2F2FA60FA68B2FA82F2D2B2D340B0
:103D8000134AD35CBB61FB6903F48033002B08D07A
:103D90000D4ABB69B2FBF3F27B6902FB03F37B6262
:103DA00004E07B690B4A02FB03F37B627B6A3B62A4
:103DB00002E0054B3B6200BF3B6A18462C37BD460C
:103DC00080BC70470010024000127A00E88B0008A7
:103DD000F88B000800093D0080B400AF024B1B685F
:103DE0001846BD4680BC70477800002080B582B080
:103DF00000AFFFF7F1FF01460B4B5B6803F4E06394
:103E00004FF4E0627A607A6892FAA2F23A603A6815
:103E1000B2FA82F2D2B2D340044AD35C21FA03F35D
:103E200018460837BD4680BD00100240188C0008B7
:103E300080B582B000AFFFF7CFFF01460B4B5B6848
:103E400003F460534FF460527A607A6892FAA2F2F7
:103E50003A603A68B2FA82F2D2B2D340044AD35CF2
:103E600021FA03F318460837BD4680BD0010024012
:103E7000188C000880B592B000AF786000233B64D6
:103E80000023FB637B681B68B3F54D3F03D37121AF
:103E9000604803F071F97B681B6803F48033002BE2
:103EA00000F0F0807B685B68002B12D07B685B6859
:103EB000B3F5807F0DD07B685B68B3F5007F08D0D9
:103EC0007B685B68B3F5407F03D07721514803F0EE
:103ED00053F9002387F847304F4BDB6903F08053D9
:103EE000002B0ED14C4BDB694B4A43F08053D3611E
:103EF000494BDB6903F08053BB60BB68012387F843
:103F00004730464B1B6803F48073002B18D1434B9A
:103F10001B68424A43F480731360FDF787F83864E6
:103F200008E0FDF783F802463B6CD31A642B01D9F5
:103F30000323BDE2394B1B6803F48073002BF0D0E0
:103F4000354B1B6A03F44073FB63FB6B002B00F0E3
:103F500086807B685B6803F44073FA6B9A427ED07C
:103F60002D4B1B6A23F44073FB634FF480333B6398
:103F70003B6B93FAA3F3FB62FB6AB3FA83F3DBB206
:103F80001A46274B13449B001A46012313604FF433
:103F90008033BB63BB6B93FAA3F37B637B6BB3FA96
:103FA00083F3DBB21A461E4B13449B001A460023D0
:103FB0001360194AFB6B1362FB6B03F00103002BC8
:103FC0004DD0FDF733F838640AE0FDF72FF80246CC
:103FD0003B6CD31A41F28832934201D9032367E242
:103FE0000223BB62BB6A93FAA3F37B6202233B62A8
:103FF0003B6A93FAA3F3FB61FB69B3FA83F3DBB289
:104000005B09DBB243F00203DBB2022B0AD1024BA5
:104010001B6A0FE0F48900080010024000700040A5
:10402000008190100223BB61BB6993FAA3F37B610B
:104030009D4B5B6A02223A613A6992FAA2F2FA60F7
:10404000FA68B2FA82F2D2B242F04002D2B202F080
:104050001F02012101FA02F21340002BB5D0924B4E
:104060001B6A23F440727B685B688F4913430B62C1
:1040700097F84730012B05D18B4BDB698A4A23F037
:104080008053D3617B681B6803F00103002B1CD0B5
:104090007B689B68002B0FD07B689B68012B0BD043
:1040A0007B689B68022B07D07B689B68032B03D03F
:1040B000BE217E4803F060F87B4B1B6B23F00302AC
:1040C0007B689B68784913430B637B681B6803F02C
:1040D0000203002B1FD07B68DB68002B12D07B68AB
:1040E000DB68B3F5803F0DD07B68DB68B3F5003F3C
:1040F00008D07B68DB68B3F5403F03D0C9216B482B
:1041000003F03AF8684B1B6B23F440327B68DB68A2
:10411000654913430B637B681B6803F00403002BA2
:104120001FD07B681B69002B12D07B681B69B3F51D
:10413000802F0DD07B681B69B3F5002F08D07B68FA
:104140001B69B3F5402F03D0D521584803F014F86C
:10415000554B1B6B23F440227B681B695249134368
:104160000B637B681B6803F02003002B14D07B6873
:10417000DB69002B07D07B68DB69102B03D0E021C3
:104180004A4802F0F9FF484B1B6B23F010027B6892
:10419000DB69454913430B637B681B6803F40033F9
:1041A000002B15D07B689B6BB3F5800F07D07B6825
:1041B0009B6B002B03D0EE213C4802F0DDFF3A4B15
:1041C0005B6823F480027B689B6B374913434B6029
:1041D0007B681B6803F04003002B15D07B681B6ACB
:1041E000002B08D07B681B6A202B04D04FF4817110
:1041F0002E4802F0C1FF2C4B1B6B23F020027B6882
:104200001B6A294913430B637B681B6803F008038F
:10421000002B20D07B685B69002B13D07B685B6927
:10422000B3F5801F0ED07B685B69B3F5001F09D022
:104230007B685B69B3F5401F04D040F223111B4833
:1042400002F09AFF184B1B6B23F440127B685B69EA
:10425000154913430B637B681B6803F01003002BA5
:1042600026D07B689B69002B13D07B689B69B3F5D4
:10427000800F0ED07B689B69B3F5000F09D07B6877
:104280009B69B3F5400F04D040F22D11074802F0AE
:1042900073FF054B1B6B23F440027B689B6902494B
:1042A00013430B6304E000BF00100240F4890008D0
:1042B0007B681B6803F40073002B16D07B68DB6AF5
:1042C000002B09D07B68DB6AB3F5000F04D040F205
:1042D0003D11794802F050FF784B5B6823F40002EF
:1042E0007B68DB6A754913434B607B681B6803F08E
:1042F0008003002B4DD07B685B6A002B40D07B682D
:104300005B6AB3F5807F3BD07B685B6AB3F5887FDF
:1043100036D07B685B6AB3F5907F31D07B685B6A8F
:10432000B3F5987F2CD07B685B6AB3F5A07F27D06C
:104330007B685B6AB3F5A87F22D07B685B6AB3F5C4
:10434000B07F1DD07B685B6AB3F5B87F18D07B68FF
:104350005B6AB3F5C07F13D07B685B6AB3F5C87F37
:104360000ED07B685B6AB3F5D07F09D07B685B6A4F
:10437000B3F5D87F04D040F25D114F4802F0FCFE47
:104380004E4BDB6A23F4F8727B685B6A4B4913433C
:10439000CB627B681B6803F48073002B4DD07B6875
:1043A0009B6A002B40D07B689B6AB3F5005F3BD0D3
:1043B0007B689B6AB3F5085F36D07B689B6AB3F570
:1043C000105F31D07B689B6AB3F5185F2CD07B6897
:1043D0009B6AB3F5205F27D07B689B6AB3F5285FA3
:1043E00022D07B689B6AB3F5305F1DD07B689B6AE7
:1043F000B3F5385F18D07B689B6AB3F5405F13D084
:104400007B689B6AB3F5485F0ED07B689B6AB3F507
:10441000505F09D07B689B6AB3F5585F04D04FF4B6
:10442000B771254802F0A8FE244BDB6A23F47852CA
:104430007B689B6A21491343CB627B681B6803F44A
:104440008053002B16D07B681B6B002B09D07B6838
:104450001B6BB3F5807F04D04FF4C771164802F090
:104460008BFE164B1B6B23F480727B681B6B13490E
:1044700013430B637B681B6803F40053002B16D0B7
:104480007B685B6B002B09D07B685B6BB3F5007FAF
:1044900004D04FF4D071084802F06EFE074B1B6B3E
:1044A00023F400727B685B6B044913430B630023A6
:1044B00018464837BD4680BDF48900080010024008
:1044C00080B584B000AF78607B68002B01D10123F8
:1044D00084E17B681B689B4A93420ED07B681B6813
:1044E000994A934209D07B681B68984A934204D04A
:1044F00040F24711964802F03FFE7B685B68002B54
:1045000009D07B685B68B3F5827F04D04FF4A47157
:104510008F4802F031FE7B689B68002B0ED07B68D1
:104520009B68B3F5806F09D07B689B68B3F5004F3B
:1045300004D040F24911864802F01EFE7B68DB6819
:10454000B3F5706F40D07B68DB68B3F5606F3BD02C
:104550007B68DB68B3F5506F36D07B68DB68B3F5FA
:10456000406F31D07B68DB68B3F5306F2CD07B684F
:10457000DB68B3F5206F27D07B68DB68B3F5106F7D
:1045800022D07B68DB68B3F5006F1DD07B68DB68E9
:10459000B3F5E06F18D07B68DB68B3F5C06F13D05C
:1045A0007B68DB68B3F5A06F0ED07B68DB68B3F582
:1045B000806F09D07B68DB68B3F5407F04D04FF48F
:1045C000A571634802F0D8FD7B689B69B3F5007F55
:1045D0000DD07B689B69002B09D07B689B69B3F584
:1045E000802F04D040F24B11594802F0C5FD7B6882
:1045F0005B6B082B08D07B685B6B002B04D04FF4FF
:10460000A671534802F0B8FD7B68DB69002B20D00F
:104610007B68DB69082B1CD07B68DB69102B18D00A
:104620007B68DB69182B14D07B68DB69202B10D0EA
:104630007B68DB69282B0CD07B68DB69302B08D0CA
:104640007B68DB69382B04D040F24D11404802F002
:1046500093FD7B681B6A002B08D07B681B6A802B4C
:1046600004D04FF4A7713A4802F086FD7B685B6A7C
:10467000002B08D07B685B6A102B04D040F24F11EE
:10468000334802F079FD7B685B6A002B19D17B68A7
:104690001B69002B08D07B681B69022B04D04FF4E8
:1046A000A9712B4802F068FD7B685B69002B08D07C
:1046B0007B685B69012B04D040F25311244802F05F
:1046C0005BFD7B6800229A627B6893F85D30DBB209
:1046D000002B06D17B68002283F85C20786802F00A
:1046E00093FD7B68022283F85D207B681B681A6853
:1046F0007B681B6822F040021A607B68DB68B3F5B8
:10470000E06F02D90023FB6002E04FF48053FB60AE
:104710007B68DB68B3F5706F07D07B68DB68B3F547
:10472000E06F02D07B6800229A627B681B6B002BD3
:1047300013D17B68DB68B3F5E06F0BD97B6802228D
:104740001A630AE00030014000380040003C00409D
:10475000708A00087B6801221A637B685A687B684C
:104760009B681A437B681B691A437B685B691A4321
:104770007B689B6903F400731A437B68DB691A4307
:104780007B681B6A42EA03017B689A6A7B681B6844
:104790000A431A607B689B691B0C03F004027B6868
:1047A0005B6A1A437B685B6B1A437B68DB6842EA8F
:1047B00003017B681B68FA680A435A607B681B68C0
:1047C000DA697B681B6822F40062DA617B68002288
:1047D0001A667B68012283F85D2000231846103793
:1047E000BD4680BD80B582B000AF78607B68002B8D
:1047F00001D101232EE07B681B68184A93420ED03A
:104800007B681B68164A934209D07B681B68154A6F
:10481000934204D04FF4EB71134802F0ADFC7B6877
:10482000022283F85D207B681B681A687B681B681E
:1048300022F040021A60786802F028FD7B680022AE
:104840001A667B68002283F85D207B68002283F86B
:104850005C20002318460837BD4680BD003001406B
:1048600000380040003C0040708A000880B58AB0E3
:1048700000AFF860B9607A607B8001237B6200231F
:1048800087F82330FB689B68002B04D040F2C341BB
:10489000954802F071FCFB6893F85C30012B01D164
:1048A0000223FDE1FB68012283F85C20FCF7BEFBDC
:1048B000F861FB6893F85D30FB76FB685B687B61B1
:1048C0007B887B827B883B82FB7E012B0ED07B69C1
:1048D000B3F5827F06D1FB689B68002B02D1FB7E7B
:1048E000042B03D0022387F82330CFE1BB68002BD1
:1048F00005D07B68002B02D07B88002B03D10123DD
:1049000087F82330C2E1FB6893F85D30DBB2042BFB
:1049100003D0FB68052283F85D20FB6800221A663D
:10492000FB687A681A64FB687A88A3F84620FB68FB
:104930007A88A3F84420FB68BA689A63FB687A888F
:10494000DA87FB687A889A87FB680022DA64FB685A
:1049500000221A65FB68DB68B3F5E06F02D83B8A7A
:10496000012B08D9FB681B685A68FB681B6822F496
:1049700080525A6007E0FB681B685A68FB681B6836
:1049800042F480525A60FB681B681B6803F04003C6
:10499000402B07D0FB681B681A68FB681B6842F055
:1049A00040021A60FB68DB68B3F5E06F7CD9FB68F6
:1049B0005B68002B02D07B8A012B69D1FB689B6B63
:1049C0001A88FB681B68DA60FB689B6B9A1CFB68A3
:1049D0009A63FB68DB8F9BB2013B9AB2FB68DA8774
:1049E00056E0FB681B689B6803F00203022B1BD197
:1049F000FB68DB8F9BB2002B16D07B6A012B13D197
:104A0000FB689B6B1A88FB681B68DA60FB689B6B12
:104A10009A1CFB689A63FB68DB8F9BB2013B9AB2DE
:104A2000FB68DA8700237B62FB681B689B6803F0E6
:104A30000103012B1CD1FB68B3F846309BB2002B5D
:104A400016D0FB681B68DA68FB681B6C92B21A8090
:104A5000FB681B6C9A1CFB681A64FB68B3F8463051
:104A60009BB2013B9AB2FB68A3F8462001237B620C
:104A7000FCF7DCFA0246FB69D31A3A6B9A4207D874
:104A80003B6BB3F1FF3F03D0032387F82330FDE0F6
:104A9000FB68DB8F9BB2002BA3D1FB68B3F84630D9
:104AA0009BB2002B9DD1E1E0FB685B68002B03D03B
:104AB0007B8A012B40F0CD80FB68DB8F9BB2012B02
:104AC00014D9FB689B6B1A88FB681B68DA60FB686B
:104AD0009B6B9A1CFB689A63FB68DB8F9BB2023B63
:104AE0009AB2FB68DA87B4E0708A0008FB689A6BB8
:104AF000FB681B680C3312781A70FB689B6B5A1C9E
:104B0000FB689A63FB68DB8F9BB2013B9AB2FB6840
:104B1000DA879EE0FB681B689B6803F00203022BA8
:104B200034D1FB68DB8F9BB2002B2FD07B6A012B2B
:104B30002CD1FB68DB8F9BB2012B12D9FB689B6BDE
:104B40001A88FB681B68DA60FB689B6B9A1CFB6821
:104B50009A63FB68DB8F9BB2023B9AB2FB68DA87F1
:104B600012E0FB689A6BFB681B680C3312781A70B2
:104B7000FB689B6B5A1CFB689A63FB68DB8F9BB2DC
:104B8000013B9AB2FB68DA8700237B62FB681B68F3
:104B90009B6803F00103012B48D1FB68B3F8463052
:104BA0009BB2002B42D0FB68B3F846309BB2012B7E
:104BB00023D9FB681B68DA68FB681B6C92B21A8009
:104BC000FB681B6C9A1CFB681A64FB68B3F84630E0
:104BD0009BB2023B9AB2FB68A3F84620FB68B3F88D
:104BE00046309BB2012B1FD8FB681B685A68FB68D4
:104BF0001B6842F480525A6016E0FB681B6803F1A0
:104C00000C02FB681B6C1278D2B21A70FB681B6C2A
:104C10005A1CFB681A64FB68B3F846309BB2013B30
:104C20009AB2FB68A3F8462001237B62FCF7FEF9E9
:104C30000246FB69D31A3A6B9A4203D83B6BB3F135
:104C4000FF3F02D13B6B002B03D1032387F82330B6
:104C50001CE0FB68DB8F9BB2002B7FF45BAFFB6833
:104C6000B3F846309BB2002B7FF454AFFA69396B2E
:104C7000F86800F0FDF80346002B06D0012387F802
:104C80002330FB6820221A6600E000BFFB68012287
:104C900083F85D20FB68002283F85C2097F82330BE
:104CA00018462837BD4680BD80B483B000AF786019
:104CB0007B6893F85D30DBB218460C37BD4680BC8C
:104CC000704780B584B000AFF860B9603B601346B0
:104CD000FB714CE03B68B3F1FF3F48D0FCF7A6F90D
:104CE0000246BB69D31A3A689A4202D93B68002B44
:104CF0003DD1FB681B685A68FB681B6822F0E00224
:104D00005A60FB685B68B3F5827F11D1FB689B68D2
:104D1000B3F5004F04D0FB689B68B3F5806F07D1F3
:104D2000FB681B681A68FB681B6822F040021A6067
:104D3000FB689B6AB3F5005F0FD1FB681B681A68BC
:104D4000FB681B6822F400521A60FB681B681A6833
:104D5000FB681B6842F400521A60FB68012283F86A
:104D60005D20FB68002283F85C2003230FE0FB68D2
:104D70001B689A68BB681340BA689A420CBF01234B
:104D80000023DBB21A46FB799A42A3D100231846CE
:104D90001037BD4680BD80B584B000AFF860B96003
:104DA0007A603B6057E0BB68B3F5C06F06D17B68A3
:104DB000002B03D1FB681B680C331B783B68B3F1F5
:104DC000FF3F48D0FCF732F90246BB69D31A3A6874
:104DD0009A4202D93B68002B3DD1FB681B685A6898
:104DE000FB681B6822F0E0025A60FB685B68B3F561
:104DF000827F11D1FB689B68B3F5004F04D0FB683C
:104E00009B68B3F5806F07D1FB681B681A68FB6865
:104E10001B6822F040021A60FB689B6AB3F5005FD2
:104E20000FD1FB681B681A68FB681B6822F40052EC
:104E30001A60FB681B681A68FB681B6842F4005222
:104E40001A60FB68012283F85D20FB68002283F86A
:104E50005C20032308E0FB681B689A68BB6813406A
:104E60007A689A429FD1002318461037BD4680BD0C
:104E700080B586B002AFF860B9607A607B68009355
:104E8000BB6800224FF4C051F868FFF784FF034667
:104E9000002B07D0FB681B6E43F02002FB681A66EC
:104EA000032327E07B680093BB6800228021F86819
:104EB000FFF707FF0346002B07D0FB681B6E43F08C
:104EC0002002FB681A66032314E07B680093BB682A
:104ED00000224FF4C061F868FFF75DFF0346002B26
:104EE00007D0FB681B6E43F02002FB681A660323A1
:104EF00000E0002318461037BD4680BD80B582B063
:104F000000AF78607B68002B01D1012377E07B68DC
:104F10009B69002B14D07B681B683B4A93422DD0C1
:104F20007B681B68394A934228D07B681B68384AE3
:104F3000934223D04FF49571364802F01DF91DE0DD
:104F40007B681B68304A934218D07B681B682F4AE5
:104F5000934213D07B681B682D4A93420ED07B6826
:104F60001B682D4A934209D07B681B682B4A9342E9
:104F700004D040F22F11274802F0FEF87B685B6FE7
:104F8000002B06D17B68002283F87020786802F03D
:104F9000FFFD7B6824225A677B681B681A687B6860
:104FA0001B6822F001021A60786800F0AFFA03462D
:104FB000012B01D1012322E07B685B6A002B02D028
:104FC000786800F04DFD7B681B685A687B681B6839
:104FD00022F490425A607B681B689A687B681B6861
:104FE00022F02A029A607B681B681A687B681B683B
:104FF00042F001021A60786800F080FE034618460D
:105000000837BD4680BD00BF003801400044004065
:1050100000480040C88A0008004C00400050004092
:1050200080B58AB002AFF860B9603B601346FB8080
:10503000FB685B6F202B40F08180BB68002B02D0A7
:10504000FB88002B01D1012379E0FB6893F87030D5
:10505000012B01D1022372E0FB68012283F870204A
:10506000FB680022DA67FB6821225A67FBF7DEFF44
:105070007861FB68FA88A3F85020FB68FA88A3F8E7
:105080005220FB689B68B3F5805F08D1FB681B6901
:10509000002B04D10023FB61BB68BB6103E0BB684C
:1050A000FB610023BB612DE03B6800937B6900221C
:1050B0008021F86800F067FE0346002B01D003232F
:1050C0003DE0FB69002B0BD1BB691A88FB681B68AC
:1050D000C2F3080292B21A85BB690233BB6108E0D1
:1050E000FB691A78FB681B6892B21A85FB69013369
:1050F000FB61FB68B3F852309BB2013B9AB2FB688C
:10510000A3F85220FB68B3F852309BB2002BCBD1EE
:105110003B6800937B6900224021F86800F033FE71
:105120000346002B01D0032309E0FB6820225A67C5
:10513000FB68002283F87020002300E00223184659
:105140002037BD4680BD000080B485B000AFF86058
:10515000B9601346FB80FB689B6F202B76D1BB6840
:10516000002B02D0FB88002B01D101236FE0FB68EC
:1051700093F87030012B01D1022368E0FB68012213
:1051800083F87020FB68BA685A65FB68FA88A3F850
:105190005820FB68FA88A3F85A20FB6800221A6698
:1051A000FB689B68B3F5805F0ED1FB681B69002B21
:1051B00005D1FB6840F2FF12A3F85C201AE0FB68FF
:1051C000FF22A3F85C2015E0FB689B68002B0DD143
:1051D000FB681B69002B04D1FB68FF22A3F85C204D
:1051E00008E0FB687F22A3F85C2003E0FB68002254
:1051F000A3F85C20FB680022DA67FB6822229A672A
:10520000FB681B689A68FB681B6842F001029A60A1
:10521000FB689B68B3F5805F07D1FB681B69002BB7
:1052200003D1FB680C4A1A6602E0FB680B4A1A6657
:10523000FB68002283F87020FB681B681A68FB6813
:105240001B6842F490721A60002300E002231846A3
:105250001437BD4680BC7047BF5F0008195F000867
:1052600080B588B000AF78607B681B68DB69FB6144
:105270007B681B681B68BB617B681B689B687B61E4
:10528000FA6940F60F0313403B613B69002B13D1D1
:10529000FB6903F02003002B0ED0BB6903F0200351
:1052A000002B09D07B681B6E002B00F013817B68FC
:1052B0001B6E786898470DE13B69002B00F0D680A3
:1052C0007B6903F00103002B05D1BB6903F49073E4
:1052D000002B00F0CB80FB6903F00103002B0ED004
:1052E000BB6903F48073002B09D07B681B68012223
:1052F0001A627B68DB6F43F001027B68DA67FB6947
:1053000003F00203002B0ED07B6903F00103002B96
:1053100009D07B681B6802221A627B68DB6F43F04E
:1053200004027B68DA67FB6903F00403002B0ED0EC
:105330007B6903F00103002B09D07B681B68042202
:105340001A627B68DB6F43F002027B68DA67FB69F5
:1053500003F00803002B13D0BB6903F02003002BDC
:1053600004D17B6903F00103002B09D07B681B6823
:1053700008221A627B68DB6F43F008027B68DA67F9
:10538000FB6903F40063002B0FD0BB6903F080635B
:10539000002B0AD07B681B684FF400621A627B689E
:1053A000DB6F43F020027B68DA677B68DB6F002BE2
:1053B00000F09280FB6903F02003002B0CD0BB6946
:1053C00003F02003002B07D07B681B6E002B03D05B
:1053D0007B681B6E786898477B68DB6FFB607B6837
:1053E0001B689B6803F04003402B04D0FB6803F06C
:1053F0002803002B31D0786800F040FD7B681B68E3
:105400009B6803F04003402B23D17B681B689A689C
:105410007B681B6822F040029A607B68DB6E002B81
:1054200013D07B68DB6E2F4A5A637B68DB6E1846AD
:10543000FBF766FF0346002B16D07B68DB6E5B6BC9
:105440007A68D26E104698470EE0786800F055F8FA
:105450000AE0786800F051F806E0786800F04DF84E
:105460007B680022DA6737E000BF35E0FB6903F4B0
:105470008013002B0DD07B6903F48003002B08D030
:105480007B681B684FF480121A62786800F0EAFDAE
:1054900025E0FB6903F08003002B0DD0BB6903F00E
:1054A0008003002B08D07B685B6E002B16D07B68D6
:1054B0005B6E7868984711E0FB6903F04003002BAE
:1054C0000DD0BB6903F04003002B08D0786800F0D2
:1054D0000AFD04E000BF02E000BF00E000BF20378B
:1054E000BD4680BDBB5E000880B483B000AF78606D
:1054F00000BF0C37BD4680BC704780B483B000AF9E
:10550000786000BF0C37BD4680BC704780B588B05E
:1055100000AF78600023BB610023FB757B685B688C
:10552000A84A934204D940F6A221A74801F024FEDC
:105530007B689B68002B09D07B689B68B3F5805F14
:1055400004D040F6A321A04801F016FE7B68DB687A
:10555000B3F5805F12D07B68DB68002B0ED07B68D0
:10556000DB68B3F5405F09D07B68DB68B3F5005FAB
:1055700004D040F6A421944801F0FEFD7B681B6A2C
:10558000002B09D07B681B6AB3F5006F04D040F68E
:10559000A5218D4801F0F0FD7B681B69002B0ED022
:1055A0007B681B69B3F5806F09D07B681B69B3F515
:1055B000C06F04D040F6A721834801F0DDFD7B6871
:1055C0005B6923F00C03002B03D17B685B69002B24
:1055D00004D140F6A8217C4801F0CEFD7B689B6990
:1055E000002B13D07B689B69B3F5807F0ED07B685E
:1055F0009B69B3F5007F09D07B689B69B3F5407F59
:1056000004D040F6A921704801F0B6FD7B68DB6943
:10561000002B09D07B68DB69B3F5004F04D040F65E
:10562000AA21694801F0A8FD7B689A687B681B691C
:105630001A437B685B691A437B68DB6913433B61F0
:105640007B681B681B6823F4164323F00C037A68FD
:10565000126839690B4313607B681B685B6823F42D
:1056600040517B68DA687B681B680A435A607B6834
:105670009B693B617B681B6A3A6913433B617B68AA
:105680001B689B6823F430617B681B683A690A4396
:105690009A607B681B684D4A934220D14C4B1B6B30
:1056A00003F00303032B17D801A252F823F000BF25
:1056B000C1560008CD560008D3560008C75600084A
:1056C0000123FB77C4E00223FB77C1E00423FB77CF
:1056D000BEE00823FB77BBE01023FB77B8E07B68D4
:1056E0001B683C4A934224D1394B1B6B03F4403373
:1056F000B3F5403F11D0B3F5403F17D8B3F5003FA5
:1057000011D0B3F5003F11D8002B03D0B3F5803F83
:1057100006D00BE00023FB779AE00223FB7797E0AB
:105720000423FB7794E00823FB7791E01023FB77B9
:105730008EE07B681B68284A934224D1244B1B6B64
:1057400003F44023B3F5402F11D0B3F5402F17D801
:10575000B3F5002F11D0B3F5002F11D8002B03D0D3
:10576000B3F5802F06D00BE00023FB7770E0022317
:10577000FB776DE00423FB776AE00823FB7767E0A3
:105780001023FB7764E07B681B68144A934233D193
:105790000F4B1B6B03F44013B3F5401F20D0B3F540
:1057A000401F26D8B3F5001F20D0B3F5001F20D826
:1057B000002B03D0B3F5801F15D01AE00023FB7730
:1057C00046E000BF40548900C88A00080038014004
:1057D000001002400044004000480040004C0040DF
:1057E0000223FB7734E00423FB7731E00823FB77C7
:1057F0002EE01023FB772BE07B681B68964A9342D0
:1058000024D1964B1B6B03F44003B3F5400F11D02A
:10581000B3F5400F17D8B3F5000F11D0B3F5000F53
:1058200011D8002B03D0B3F5800F06D00BE0002376
:10583000FB770DE00223FB770AE00423FB7707E008
:105840000823FB7704E01023FB7701E01023FB77AC
:105850007B68DB69B3F5004F40F08280FB7F082B4B
:105860005ED801A252F823F08D580008AD58000808
:10587000CD58000821590008E958000821590008AE
:10588000215900082159000809590008FEF7AEFA0D
:10589000F860FB685A007B685B685B081A447B68A9
:1058A0005B68B2FBF3F39BB2BB613CE0FEF7C0FA6E
:1058B000F860FB685A007B685B685B081A447B6889
:1058C0005B68B2FBF3F39BB2BB612CE07B685B6867
:1058D0005B0803F5740303F510537A685268B3FB51
:1058E000F2F39BB2BB611EE0FEF70EFAF860FB68B4
:1058F0005A007B685B685B081A447B685B68B2FB94
:10590000F3F39BB2BB610EE07B685B685B0803F559
:1059100080327B685B68B2FBF3F39BB2BB6102E051
:105920000123FB7500BFBB690F2B16D9BB69B3F50B
:10593000803F12D2BB699BB223F00F037B81BB690E
:105940005B089BB203F007039AB27B8913437B8108
:105950007B681B687A89DA6072E00123FB756FE06F
:10596000FB7F082B5BD801A252F823F09159000865
:10597000AF590008CD5900081F5A0008E95900081E
:105980001F5A00081F5A00081F5A0008075A00082B
:10599000FEF72CFAF8607B685B685A08FB681A44CB
:1059A0007B685B68B2FBF3F39BB2BB613AE0FEF746
:1059B0003FFAF8607B685B685A08FB681A447B68AA
:1059C0005B68B2FBF3F39BB2BB612BE07B685B6867
:1059D0005B0803F5F40303F590537A685268B3FB50
:1059E000F2F39BB2BB611DE0FEF78EF9F8607B68B5
:1059F0005B685A08FB681A447B685B68B2FBF3F388
:105A00009BB2BB610EE07B685B685B0803F50042FC
:105A10007B685B68B2FBF3F39BB2BB6102E00123DE
:105A2000FB7500BFBB690F2B08D9BB69B3F5803F7D
:105A300004D27B681B68BA69DA6001E00123FB7558
:105A40007B6800221A667B6800225A66FB7D184636
:105A50002037BD4680BD00BF00500040001002400E
:105A600080B582B000AF78607B685B6AFF2B04D999
:105A700040F627319D4801F07FFB7B685B6A03F0AD
:105A80000103002B18D07B689B6A002B09D07B6830
:105A90009B6AB3F5003F04D040F62C31934801F0E7
:105AA0006BFB7B681B685B6823F400317B689A6A38
:105AB0007B681B680A435A607B685B6A03F00203D9
:105AC000002B18D07B68DB6A002B09D07B68DB6A6F
:105AD000B3F5803F04D040F63331844801F04CFBED
