:020000040800F2
:1000000000A00020D52A0008212900082329000883
:1000100025290008272900082929000800000000D8
:100020000000000000000000000000002B29000874
:100030002D290008000000002F29000831290008A0
:10004000252B0008252B0008252B0008252B000850
:10005000252B0008252B0008252B0008252B000840
:10006000252B0008252B0008252B0008252B000830
:10007000252B0008252B0008252B0008252B000820
:10008000252B0008252B0008252B0008252B000810
:10009000252B0008252B0008252B0008252B000800
:1000A000252B0008252B0008252B0008252B0008F0
:1000B000252B0008252B0008252B0008252B0008E0
:1000C000252B0008252B0008252B0008252B0008D0
:1000D000252B0008252B0008252B0008252B0008C0
:1000E000252B0008252B0008252B0008252B0008B0
:1000F000252B0008252B0008252B0008252B0008A0
:10010000000000000000000000000000252B000897
:10011000252B0008252B0008252B0008252B00087F
:10012000252B0008252B0008252B0008252B00086F
:10013000252B0008252B000800000000000000000F
:10014000252B0008252B0008252B000800000000A7
:10015000000000000000000000000000000000009F
:100160000000000000000000252B0008252B0008DF
:10017000252B000800000000000000000000000027
:0801800000000000252B00081F
:1001880010B5054C237833B9044B13B10448AFF3C9
:1001980000800123237010BD0C0000200000000027
:1001A800802B000808B5034B1BB103490348AFF384
:1001B800008008BD0000000010000020802B00080F
:1001C80010B504460E4B18784FF47A73B3FBF0F36E
:1001D8000C4A1068B0FBF3F000F0B2F868B90F2CC5
:1001E80001D901200AE0002221464FF0FF3000F03B
:1001F80061F8034B5C60002000E0012010BD00BFE7
:10020800000000200800002008B5074A136843F0E2
:1002180010031360032000F02FF80020FFF7D0FF31
:1002280002F062FB002008BD00200240034A11686A
:10023800034B1B780B441360704700BF2800002055
:1002480000000020014B1868704700BF28000020FC
:1002580038B50446FFF7F6FF0546B4F1FF3F02D074
:10026800044B1B781C44FFF7EDFF401BA042FAD358
:1002780038BD00BF0000002010B50446C31E042B83
:100288000FD80A4AD36823F4E0631B041B0C24022A
:1002980004F4E064234343F0BF6343F40033D360C2
:1002A80010BDAC21024802F01EFBEAE700ED00E0B9
:1002B800D02B000870B505460C4616460F2A25D8DF
:1002C8000F2C28D81B4BDB68C3F30223C3F10702AA
:1002D800042A28BF0422191D062921D9033B4FF0FF
:1002E800FF3101FA02F224EA02049C4001FA03F306
:1002F80026EA03063443002D14DB2401E4B205F199
:10030800604505F5614585F8004370BDC4210A487C
:1003180002F0E9FAD4E7C521074802F0E4FAD1E788
:100328000023DCE705F00F052401E4B2034B5C551C
:10033800EBE700BF00ED00E0D02B000814ED00E073
:100348000138B0F1807F0AD2064B5860064AF02186
:1003580082F823100020986007221A607047012055
:10036800704700BF10E000E000ED00E02DE9F04725
:1003780082B006460C46B0F1904F16D0A44B984276
:1003880013D003F5806398420FD003F58063984239
:100398000BD003F58063984207D003F58063984239
:1003A80003D0BA219B4802F09EFA23689AB212B190
:1003B8001B0C1B041BB1BB21964802F094FA63681E
:1003C800012B1ED9112B1CD0022B1AD0122B18D09E
:1003D800914A934215D002F58012934211D002F54A
:1003E800801293420DD0A2F5F812934209D002F57B
:1003F8008012934205D002F58012934201D0032B5C
:1004080004D1A368022B06D800254AE0BC21814804
:1004180002F069FAF5E7BD217E4802F064FAF3E7D5
:10042800CD217C4802F05FFA6DE0E121794802F0C5
:100438005AFA98E0042300E000238B400343023279
:10044800764941F82230764B1A68FB4303EA0201E9
:10045800606810F4803F01D047EA0201704A1160D9
:10046800526803EA0201606810F4003F01D047EACD
:1004780002016B4A5160926803EA0201606810F455
:10048800801F01D047EA0201654A9160D268134093
:10049800616811F4001F01D047EA0203604AD36083
:1004A8000135276837FA05F300F0AF804FF00108EF
:1004B80008FA05F818EA0707F2D06368022B01D09A
:1004C800122B30D1B6F1904F16D0514B9E4213D01B
:1004D80003F580639E420FD003F580639E420BD0E4
:1004E80003F580639E4207D003F580639E4203D0E4
:1004F800CC21484802F0F7F923690C2B03D90E2BBD
:1005080001D00F2B8CD1EA08083256F8220005F0EA
:10051800070399000F238B4020EA030023698B40CF
:10052800034346F8223032684FEA450A4FF0030980
:1005380009FA0AF96FEA090909EA0202636803F08D
:10054800030303FA0AF31343336063685A1E012A4C
:1005580003D9112B01D0122B17D1E368012B02D933
:10056800032B7FF462AFB26809EA0202E36803FA78
:100578000AF31343B360736823EA08086368C3F394
:100588000013AB4043EA08037360F36809EA030900
:10059800A36803FA0AF343EA0903F360636813F0F4
:1005A800805F3FF47DAF1F4B9A6942F001029A6168
:1005B8009B6903F001030193019BAA08911C174B47
:1005C80053F8210005F0030399000F238B4020EA1C
:1005D8000300B6F1904F3FF42FAF0D4B9E420ED063
:1005E80003F580639E420CD003F580639E420AD0D7
:1005F80003F580639E423FF41DAF05231DE70123E9
:100608001BE7022319E7032317E702B0BDE8F087C9
:10061800000400480C2C00080000111000000140E4
:100628000004014000100240002800F09C8370B5CF
:1006380082B00446036813B113F00F0F2BD0236860
:1006480013F0010F4FD063682BB1B3F5803F02D090
:10065800B3F5A02F25D1B44B5B6803F00C03042B32
:100668002AD0B14B5B6803F00C03082B1FD06368DA
:10067800B3F5803F7CD0002B40F0A68003F1804387
:1006880003F504331A6822F480321A601A6822F4D7
:1006980080221A6071E040F24B11A44802F023F95D
:1006A800CDE740F25111A14802F01DF9D3E79E4B66
:1006B8005B6813F4803FDAD04FF4003393FAA3F366
:1006C800994B19684FF4003393FAA3F3B3FA83F301
:1006D80003F01F03012202FA03F30B4203D06368FD
:1006E800002B00F04283236813F0020F00F0DA8039
:1006F8002369012B00F2A08063691F2B00F2A280FE
:10070800894B5B6813F00C0F00F0A880864B5B6880
:1007180003F00C03082B00F09B802369002B00F0EA
:100728000981012292FAA2F3B3FA83F303F1845305
:1007380003F584139B001A60FFF784FD0546022326
:1007480093FAA3F3784B1968022393FAA3F3B3FA45
:1007580083F303F01F03012202FA03F30B4240F074
:10076800D380FFF76FFD401B0228E8D9032003E37D
:100778006D4A136843F4803313606B4AD36A23F0DD
:100788000F03A1680B43D3626368002B36D0FFF7D1
:1007980059FD05464FF4003393FAA3F3624B1968E9
:1007A8004FF4003393FAA3F3B3FA83F303F01F0370
:1007B800012202FA03F30B4295D1FFF743FD401BD8
:1007C8006428E7D90320D7E2B3F5A02F09D0564B08
:1007D8001A6822F480321A601A6822F480221A6099
:1007E800CBE703F18043A3F53C331A6842F4802237
:1007F8001A601A6842F480321A60BEE7FFF722FDD9
:1008080005464FF4003393FAA3F3474B19684FF4A6
:10081800003393FAA3F3B3FA83F303F01F0301221F
:1008280002FA03F30B423FF45EAFFFF70BFD401BE8
:100838006428E6D903209FE240F289113B4802F080
:1008480052F859E74FF4C571384802F04CF857E7A9
:10085800354B5B6813F4803F7FF45FAF022393FA54
:10086800A3F3314B1968022393FAA3F3B3FA83F382
:1008780003F01F03012202FA03F30B4204D0236999
:10088800934201D0012077E22748036823F0F80358
:100898006169F82292FAA2F2B2FA82F201FA02F23D
:1008A80013430360236813F0080F00F09880A369CE
:1008B800012B66D8A369002B69D0012191FAA1F216
:1008C800B2FA82F21A4B13449B001960FFF7BAFC84
:1008D8000546022393FAA3F293FAA3F293FAA3F23A
:1008E800114A516A93FAA3F3B3FA83F303F01F038F
:1008F800012202FA03F30B4271D1FFF7A3FC401B5C
:100908000228E6D9032037E20748036823F0F803F2
:100918006169F82292FAA2F2B2FA82F201FA02F2BC
:1009280013430360BEE700BF00100240482C0008D4
:1009380020819010012393FAA3F3B3FA83F303F110
:10094800845303F584139B0000221A60FFF77AFC96
:100958000546022393FAA3F3B94B1968022393FAC5
:10096800A3F3B3FA83F303F01F03012202FA03F39C
:100978000B4297D0FFF766FC401B0228E9D90320F9
:10098800FAE14FF4E571AF4801F0ADFF92E70122BB
:1009980092FAA2F2B2FA82F2AB4B13449B00002205
:1009A8001A60FFF74FFC0546022393FAA3F293FA65
:1009B800A3F293FAA3F2A24A516A93FAA3F3B3FA01
:1009C80083F303F01F03012202FA03F30B4206D05C
:1009D800FFF738FC401B0228E6D90320CCE1236846
:1009E80013F0040F00F0C080E368012B01D9052B38
:1009F80026D1934BDB6913F0805F27D1904BDA69DE
:100A080042F08052DA61DB6903F080530193019B65
:100A180001258E4B1B6813F4807F19D0E368012BE6
:100A28002AD0002B34D103F1804303F504331A6A2A
:100A380022F001021A621A6A22F004021A6220E005
:100A48004FF4FB717F4801F04EFFD2E70025E0E745
:100A58007E4A136843F480731360FFF7F3FB06467E
:100A68007A4B1B6813F4807FD8D1FFF7EBFB801B10
:100A78006428F5D903207FE1714A136A43F0010322
:100A88001362E368002B41D0FFF7DCFB06462BE03E
:100A9800052B09D06A4B1A6A22F001021A621A6AF7
:100AA80022F004021A62ECE7654B1A6A42F004026B
:100AB8001A621A6A42F001021A62E2E7604B196A86
:100AC800022393FAA3F3B3FA83F303F01F0301227B
:100AD80002FA03F3194245D1FFF7B4FB801B41F238
:100AE8008833984200F24381022393FAA3F293FADF
:100AF800A3F3B3FA83F35B0943F00203022BDDD0BF
:100B0800022393FAA3F34E4B596AD9E7FFF79AFBEE
:100B1800064615E04A4B196A022393FAA3F3B3FA7F
:100B280083F303F01F03012202FA03F3194219D0D9
:100B3800FFF788FB801B41F28833984200F2198145
:100B4800022393FAA3F293FAA3F3B3FA83F35B09AC
:100B580043F00203022BDDD0022393FAA3F3384BB0
:100B6800596AD9E7002D73D1E369022B76D8E36976
:100B7800002B00F00081324A526802F00C02082A69
:100B880000F0DF80022B40F0B080236A13B1B3F588
:100B9800803F69D1636A4BB3B3F5802F26D0B3F594
:100BA800002F23D0B3F5402F20D0B3F5801F1DD0E0
:100BB800B3F5A01F1AD0B3F5C01F17D0B3F5E01FC7
:100BC80014D0B3F5001F11D0B3F5101F0ED0B3F534
:100BD800201F0BD0B3F5301F08D0B3F5401F05D048
:100BE800B3F5501F02D0B3F5601F43D14FF08073A7
:100BF80093FAA3F3B3FA83F303F1845303F584134D
:100C08009B0000221A60FFF71DFB05464FF000739A
:100C180093FAA3F30A4B19684FF0007393FAA3F3FE
:100C2800B3FA83F303F01F03012202FA03F3194214
:100C380026D0FFF707FB401B0228E7D903209BE0DB
:100C480000100240482C00082081901000700040DD
:100C58004C4AD36923F08053D36185E740F23A21A7
:100C6800494801F040FE82E740F24321464801F03E
:100C78003AFE8FE74FF41171434801F034FEB5E7AF
:100C880040494B6823F47413626A206A0243134391
:100C98004B604FF0807393FAA3F3B3FA83F303F135
:100CA800845303F584139B0001221A60FFF7CAFAE4
:100CB80004464FF0007393FAA3F3324B19684FF0D0
:100CC800007393FAA3F3B3FA83F303F01F0301222B
:100CD80002FA03F3194206D1FFF7B4FA001B0228FF
:100CE800E7D9032048E0002046E04FF0807393FAEC
:100CF800A3F3B3FA83F303F1845303F584139B003E
:100D080000221A60FFF79EFA04464FF0007393FA28
:100D1800A3F31C4B19684FF0007393FAA3F3B3FACB
:100D280083F303F01F03012202FA03F3194206D0EA
:100D3800FFF788FA001B0228E7D903201CE00020EF
:100D48001AE0012B1AD00F4B5B6803F48031226A3A
:100D5800914201D001200FE003F47013626A9342BC
:100D68000ED0012008E001207047012004E0032094
:100D780002E0032000E0002002B070BD0120FBE784
:100D88000020F9E700100240482C000810B4174B67
:100D98005C6804F00C03082B26D104F470124FF49D
:100DA800701393FAA3F3B3FA83F322FA03F3104907
:100DB800C85C0E4BDB6A03F00F030F2292FAA2F213
:100DC800B2FA82F2D3400B441A7C14F4803F05D166
:100DD800084B03FB00F05DF8044B7047064BB3FB70
:100DE800F2F300FB03F0F6E70348F4E700100240D3
:100DF800982B000800093D0000127A00002800F036
:100E08001C8170B504460D46036813F00F0F14D00B
:100E1800022D18D88B4B1B6803F00703AB4218D27E
:100E2800884A136823F007032B431360136803F001
:100E38000703AB420DD0012070BD40F2C3218248A8
:100E480001F051FDE4E74FF431717F4801F04BFDAB
:100E5800E0E7236813F0020F18D0A3687BB1802B5A
:100E68000DD0902B0BD0A02B09D0B02B07D0C02BC6
:100E780005D0D02B03D0E02B01D0F02B3ED1734A04
:100E8800536823F0F003A1680B435360236813F001
:100E9800010F69D06368022B36D86368012B39D0FB
:100EA800022B4CD0022292FAA2F2684A106802225F
:100EB80092FAA2F2B2FA82F202F01F02012101FABA
:100EC80002F2104200F0BB8060494A6822F0030237
:100ED80013434B60FFF7B6F906465C4B5B6803F0BB
:100EE8000C036268B3EB820F3ED0FFF7ABF9801BAF
:100EF80041F288339842F0D903209DE740F2DB2184
:100F0800514801F0F0FCBAE740F2E2214E4801F006
:100F1800EAFCC2E74FF4003292FAA2F24B4A106898
:100F28004FF4003292FAA2F2B2FA82F202F01F02F1
:100F3800012101FA02F20242C6D101207CE74FF0FA
:100F4800007292FAA2F2414A10684FF0007292FAC7
:100F5800A2F2B2FA82F202F01F02012101FA02F2B1
:100F68001042B1D1012067E7364B1B6803F0070335
:100F7800AB420CD9334A136823F007032B431360A1
:100F8800136803F00703AB4201D0012054E723683C
:100F980013F0040F14D0E3685BB1B3F5806F08D089
:100FA800B3F5A06F05D0B3F5C06F02D0B3F5E06F0D
:100FB80037D1264A536823F4E063E1680B43536052
:100FC800236813F0080F15D023695BB1B3F5806F60
:100FD80008D0B3F5A06F05D0B3F5C06F02D0B3F554
:100FE800E06F24D1194A536823F46053216943EA16
:100FF800C1035360FFF7CAFE144B5B6803F0F003AC
:10100800F02292FAA2F2B2FA82F2D340104AD35CEA
:10101800D840104B1860104B1868FFF7D1F8002023
:101028000AE740F21E31084801F05DFCC1E740F2D2
:101038002531054801F057FCD4E70120704701200D
:10104800FAE600BF00200240482C000800100240C9
:10105800B82B00080800002004000020F0B583B079
:1010680004460368B3F54D3F80F0A281236813F46A
:10107800803F54D063684BB1B3F5807F06D0B3F599
:10108800007F03D0B3F5407F40F09781964BDB6932
:1010980013F0805F40F09681934BDA6942F08052FA
:1010A800DA61DB6903F080530193019B01258F4BC3
:1010B8001B6813F4807F00F087818B4B1B6A13F445
:1010C800407322D0626802F440729A421DD086486A
:1010D800016A21F440764FF4803393FAA3F2B2FA0E
:1010E80082F2834F3A4492004FF0010CC2F800C0DC
:1010F80093FAA3F3B3FA83F33B449B0000221A60EC
:10110800066211F0010F40F07481774A136A23F4E4
:10111800407361680B431362002D40F09681236889
:1011280013F0010F0AD0A368032B00F293816E4AD3
:10113800136B23F00303A1680B431363236813F0B5
:10114800020F12D0E3684BB1B3F5803F06D0B3F578
:10115800003F03D0B3F5403F40F08181624A136BF2
:1011680023F44033E1680B431363236813F0040F3F
:1011780012D023694BB1B3F5802F06D0B3F5002FF9
:1011880003D0B3F5402F40F06F81574A136B23F417
:10119800402321690B431363236813F0200F0BD0FE
:1011A800E36913B1102B40F064814F4A136B23F0AD
:1011B8001003E1690B431363236813F4003F0DD058
:1011C800A36BB3F5800F02D0002B40F05781464A3D
:1011D800536823F48003A16B0B435360236813F017
:1011E800400F0BD0236A13B1202B40F04C813E4AAC
:1011F800136B23F02003216A0B431363236813F056
:10120800080F12D063694BB1B3F5801F06D0B3F550
:10121800001F03D0B3F5401F40F03B81324A136BE7
:1012280023F4401361690B431363236813F0100F11
:1012380012D0A3694BB1B3F5800F06D0B3F5000FF8
:1012480003D0B3F5400F40F02A81274A136B23F4EB
:101258004003A1690B431363236813F4007F0CD088
:10126800E36A1BB1B3F5000F40F01F811E4A5368B3
:1012780023F40003E16A0B435360236813F0800FE3
:101288003AD0636A43B3B3F5807F25D0B3F5887F3E
:1012980022D0B3F5907F1FD0B3F5987F1CD0B3F55B
:1012A800A07F19D0B3F5A87F16D0B3F5B07F13D0BF
:1012B800B3F5B87F10D0B3F5C07F0DD0B3F5C87FB4
:1012C8000AD0B3F5D07F07D0B3F5D87F04D040F269
:1012D8005D11084801F007FB034AD36A23F4F87349
:1012E800616A0B43D36207E00010024000700040BF
:1012F80000819010802C0008236813F4807F31D07F
:10130800A36A43B3B3F5005F25D0B3F5085F22D0D5
:10131800B3F5105F1FD0B3F5185F1CD0B3F5205F8D
:1013280019D0B3F5285F16D0B3F5305F13D0B3F5F5
:10133800385F10D0B3F5405F0DD0B3F5485F0AD0E1
:10134800B3F5505F07D0B3F5585F04D04FF4B771C9
:10135800614801F0C8FA614AD36A23F47853A16A54
:101368000B43D362236813F4805F0CD0236B1BB14B
:10137800B3F5807F40F09F80584A136B23F4807345
:10138800216B0B431363236813F4005F00F0A18003
:10139800636B1BB1B3F5007F40F093804F4A136B2A
:1013A80023F40073616B0B431363002003B0F0BD9B
:1013B8007121494801F097FA58E67721464801F02B
:1013C80092FA63E6002572E6454A136843F480738F
:1013D8001360FEF737FF0646414B1B6813F4807F06
:1013E8007FF46BAEFEF72EFF801B6428F4D9032030
:1013F800DCE7FEF727FF064615E0384B196A02239B
:1014080093FAA3F3B3FA83F303F01F03012202FA5A
:1014180003F30B427FF479AEFEF714FF801B41F211
:101428008833984253D8022393FAA3F293FAA3F38A
:10143800B3FA83F35B0943F00203022BDDD00223E6
:1014480093FAA3F3254B596AD9E7D36923F080535C
:10145800D36164E6BE21204801F045FA67E6C92158
:101468001D4801F040FA79E6D5211B4801F03BFA06
:101478008BE6E021184801F036FA96E6EE21164888
:1014880001F031FAA3E64FF48171134801F02BFA09
:10149800ADE640F22311104801F025FABEE640F20D
:1014A8002D110D4801F01FFACFE640F23D110A4810
:1014B80001F019FADAE64FF4C771074801F013FA98
:1014C8005AE74FF4D071044801F00DFA66E703209B
:1014D8006CE700206AE700BF802C0008001002407B
:1014E8000070004030B4036A23F480330362036A57
:1014F8004468426D22F4803222F070020D682A435B
:1015080023F400338D6843EA05430F4DA8420FD0FA
:1015180005F50065A8420BD005F54065A84207D03F
:1015280005F58065A84203D005F58065A84204D179
:1015380024F480344D6944EA0524446042654A68CD
:101548008265036230BC7047002C014030B4036AE6
:1015580023F480130362036A4468426D22F08072A8
:1015680022F4E0420D6842EA052223F400138D6854
:1015780043EA05530F4DA8420FD005F50065A84270
:101588000BD005F54065A84207D005F58065A8424F
:1015980003D005F58065A84204D124F480244D6960
:1015A80044EA8524446042654A68C265036230BCE7
:1015B800704700BF002C014010B4036A046A24F08D
:1015C80001040462846924F0F00444EA021223F05E
:1015D8000A030B43826103625DF8044B704710B441
:1015E800036A23F0100303628469036A24F47044D5
:1015F80044EA023223F0A00343EA01138261036242
:101608005DF8044B7047836823F07003194341F079
:1016180007018160704700002DE9F04104460D463E
:10162800036A23F001030362066A4768836923F4A7
:10163800803323F073030A6842EA030826F00203A2
:101648008E681E432C4B98420FD003F500639842D6
:101658000BD003F54063984207D003F580639842A6
:1016680003D003F58063984209D1EB680BB1082BCE
:1016780030D126F00806EB681E4326F004061E4B00
:101688009C420FD003F500639C420BD003F54063E6
:101698009C4207D003F580639C4203D003F5806326
:1016A8009C420FD1AB69B3F5007F00D0C3B96B6919
:1016B800B3F5807F00D0CBB927F440776B693B4303
:1016C800AF691F436760C4F818806B68636326625C
:1016D800BDE8F08141F62B01084801F004F9C8E79C
:1016E80041F63801054801F0FEF8E0E741F6390116
:1016F800024801F0F8F8DFE7002C0140BC2C000894
:101708002DE9F04104460E46036A23F48073036210
:10171800056A4768C36923F4803323F073030A68B2
:1017280042EA030825F400758B6845EA0325284B2F
:10173800984203D003F5006398420AD1F3680BB1CD
:10174800082B33D125F40065F36845EA032525F411
:1017580080651F4B9C420FD003F500639C420BD061
:1017680003F540639C4207D003F580639C4203D095
:1017780003F580639C4211D1B369B3F5007F00D0B3
:10178800D3B97369B3F5807F00D0DBB927F440572C
:10179800736947EA0317B36947EA03176760C4F830
:1017A8001C807368E3632562BDE8F08141F6C301DC
:1017B800084801F098F8C5E741F6D101054801F05D
:1017C80092F8DEE741F6D201024801F08CF8DDE735
:1017D800002C0140BC2C00082DE9F04104460F46BE
:1017E800036A23F480530362056AD0F80480C3694E
:1017F80023F0807323F4E6430E6843EA062625F4B3
:1018080000558B6845EA0335154B98420FD003F510
:10181800006398420BD003F54063984207D003F564
:101828008063984203D003F58063984209D17B69AD
:10183800B3F5807F00D063B928F480487B6948EA13
:101848008318C4F80480E6617B6823642562BDE8D8
:10185800F08141F61211034801F045F8ECE700BFAA
:10186800002C0140BC2C00087047000003682C4A7B
:1018780090420ED0B0F1804F0BD0A2F59432904236
:1018880007D002F58062904203D002F5963290426A
:1018980003D123F070034A681343214A90421AD0B7
:1018A800B0F1804F17D0A2F59432904213D002F5D0
:1018B800806290420FD002F5963290420BD002F52A
:1018C8004062904207D002F58062904203D002F550
:1018D8008062904203D123F44073CA68134323F013
:1018E80080034A69134303608B68C3620B68836291
:1018F8000B4B98420FD003F5006398420BD003F5C9
:101908004063984207D003F58063984203D003F5FB
:101918008063984201D10B690363012343617047D7
:10192800002C014000286AD010B504460368354AE7
:10193800934227D0B3F1804F24D0A2F5943293423A
:1019480020D002F5806293421CD002F500629342D7
:1019580018D002F58062934214D002F59032934277
:1019680010D002F5406293420CD002F58062934297
:1019780008D002F58062934204D040F2191122483F
:1019880000F0B1FFA3683BB1102B05D0202B03D08A
:10199800402B01D0602B1AD123692BB1B3F5807F7E
:1019A80002D0B3F5007F18D1A3690BB1802B1AD1EF
:1019B80094F83D30EBB1022384F83D30211D2068B6
:1019C800FFF754FF012384F83D30002010BD4FF489
:1019D8008D710D4800F087FFDEE740F21B110A48C1
:1019E80000F081FFE0E74FF48E71074800F07BFFBD
:1019F800DEE784F83C30204600F0A8FFDBE7012052
:101A0800704700BF002C0140BC2C000800286AD099
:101A180010B504460368354A934227D0B3F1804F86
:101A280024D0A2F59432934220D002F580629342EA
:101A38001CD002F50062934218D002F580629342EE
:101A480014D002F59032934210D002F540629342CE
:101A58000CD002F58062934208D002F5806293426E
:101A680004D04FF49561224800F03DFFA3683BB1D4
:101A7800102B05D0202B03D0402B01D0602B1AD17E
:101A880023692BB1B3F5807F02D0B3F5007F18D15D
:101A9800A3690BB1802B1AD194F83D30EBB1022326
:101AA80084F83D30211D2068FFF7E0FE012384F80B
:101AB8003D30002010BD40F2A9410D4800F013FF51
:101AC800DEE740F2AA410A4800F00DFFE0E740F2E5
:101AD800AB41074800F007FFDEE784F83C302046BA
:101AE800FFF7C2FEDBE70120704700BF002C014072
:101AF800BC2C00082DE9F04104460E46036A23F089
:101B080010030362056A4768836923F0807323F42E
:101B1800E6430A6843EA022825F020058B6845EA6F
:101B28000315284B984203D003F5006398420AD165
:101B3800F3680BB1082B33D125F08005F36845EA2B
:101B4800031525F040051F4B9C420FD003F5006399
:101B58009C420BD003F540639C4207D003F5806399
:101B68009C4203D003F580639C4211D1B369B3F55D
:101B7800007F00D0D3B97369B3F5807F00D0DBB99B
:101B880027F44067736947EA8307B36947EA83071D
:101B98006760C4F818807368A3632562BDE8F081A4
:101BA80041F67601084800F09EFEC5E741F684013B
:101BB800054800F098FEDEE741F68501024800F08E
:101BC80092FEDDE7002C0140BC2C000870B50446ED
:101BD8000D4616465AB1042A09D0082A07D00C2AFD
:101BE80005D0102A03D0142A01D03C2A3CD12B68F6
:101BF800602B0DD0702B0BD09C4A934208D010322A
:101C0800934205D01032934202D01032934231D120
:101C1800AB680BB1022B33D12B690BB1042B35D137
:101C280094F83C30012B00F04981012384F83C30C2
:101C3800022384F83D30142E65D8DFE816F02D0015
:101C48006400640064006B006400640064009C002D
:101C5800640064006400C800640064006400F50067
:101C68006400640064001D0140F62C61804800F0A7
:101C78003AFEBCE740F62D617D4800F034FEC7E728
:101C880040F62E617A4800F02EFEC5E740F62F6137
:101C9800774800F028FEC3E72368764A93421FD0AE
:101CA800B3F1804F1CD0A2F59432934218D002F5BC
:101CB8008062934214D002F59632934210D002F516
:101CC800406293420CD002F58062934208D002F53C
:101CD8008062934204D040F63B61654800F003FE01
:101CE80029462068FFF798FC2268936943F00803A7
:101CF80093612268936923F00403936122689369CE
:101D080029690B439361012384F83D30002084F84E
:101D18003C0070BD2368574A934217D0B3F1804FF7
:101D280014D0A2F59432934210D002F58062934207
:101D38000CD002F59632934208D002F540629342E5
:101D480004D040F64C614A4800F0CDFD2946206891
:101D5800FFF7D0FE2268936943F400639361226819
:101D6800936923F48063936122689369296943EA3C
:101D780001239361C7E723683E4A934213D0B3F126
:101D8800804F10D0A2F5943293420CD002F58062B5
:101D9800934208D002F59632934204D040F65D6132
:101DA800334800F0A0FD29462068FFF7A9FC226807
:101DB800D36943F00803D3612268D36923F004038D
:101DC800D3612268D36929690B43D3619BE72368F0
:101DD800284A934213D0B3F1804F10D0A2F5943221
:101DE80093420CD002F58062934208D002F59632F5
:101DF800934204D040F66E611D4800F074FD2946F8
:101E08002068FFF7E9FC2268D36943F40063D361D3
:101E18002268D36923F48063D3612268D36929696E
:101E280043EA0123D3616EE72368124A934208D03C
:101E380002F50062934204D04FF468610C4800F048
:101E480052FD29462068FFF74DFB2268536D43F089
:101E5800080353652268536D23F004035365226811
:101E6800536D29690B4353654DE700BF40000100DE
:101E7800BC2C0008002C01402368114A934208D06A
:101E880002F50062934204D040F693610D4800F0D9
:101E98002AFD29462068FFF759FB2268536D43F451
:101EA800006353652268536D23F480635365226889
:101EB800536D296943EA0123536524E7022028E783
:101EC800002C0140BC2C000810B4846824F47F4422
:101ED80042EA03230B43234383605DF8044B7047B6
:101EE80038B590F83C30012B00F0FE810D460446D1
:101EF800012380F83C30022380F83D300B68B3F5AD
:101F0800805F11D0B3F5005F0ED06BB1102B0BD0F2
:101F1800202B09D0302B07D0402B05D0502B03D0D5
:101F2800602B01D0702B47D122689168A74B0B40DA
:101F380093602B68402B00F0998143D9702B00F0F7
:101F4800DF806BD8502B00F04781602B40F0128166
:101F580023689F4A934217D0B3F1804F14D0A2F55B
:101F68009432934210D002F5806293420CD002F56D
:101F78009632934208D002F54062934204D041F26F
:101F8800F121944800F0AFFC6B68B3F5004F05D021
:101F980023B1022B02D00A2B40F05C81EB680F2B97
:101FA80000F25E81EA6869682068FFF718FB602123
:101FB8002068FFF728FBDDE041F2A221854800F008
:101FC80092FCB1E7102B08D004D9202B05D0302B78
:101FD80003D0CFE0002B40F0CD8023687C4A9342A9
:101FE80017D0B3F1804F14D0A2F59432934210D099
:101FF80002F5806293420CD002F59632934208D0E3
:1020080002F54062934204D041F21431714800F065
:102018006AFC29682068FFF7F6FAABE0B3F5805F41
:1020280041D0B3F5005F40F0A5802368684A934229
:1020380013D0B3F1804F10D0A2F5943293420CD054
:1020480002F58062934208D002F59632934204D09A
:1020580041F2CD215F4800F046FCAB684BB1B3F5C7
:10206800805F06D0B3F5005F03D0B3F5405F40F062
:102078009A806B68B3F5004F05D023B1022B02D0CC
:102088000A2B40F09680EB680F2B00F29880EB68E3
:102098006A68A9682068FFF717FF2268936843F405
:1020A8008043936066E02368494A934262D0B3F163
:1020B800804F5FD0A2F5943293425BD002F58062E4
:1020C800934257D002F50062934253D002F58062E2
:1020D80093424FD002F5903293424BD002F54062C2
:1020E800934247D002F58062934243D002F5806262
:1020F80093423FD041F2AE21364800F0F4FB39E07C
:102108002368334A934213D0B3F1804F10D0A2F51D
:10211800943293420CD002F58062934208D002F5C3
:102128009632934204D041F2B5212A4800F0DBFBF5
:10213800AB6843B1B3F5805F05D0B3F5005F02D05B
:10214800B3F5405F1DD16B68B3F5004F04D01BB1E8
:10215800022B01D00A2B1AD1EB680F2B1DD8EB6884
:102168006A68A9682068FFF7AFFE2268936843F0A1
:1021780077039360012384F83D30002084F83C0005
:1021880038BD41F2B821134800F0ADFBDBE741F25E
:10219800B921104800F0A7FBDEE741F2BA210D484B
:1021A80000F0A1FBDBE741F2D0210A4800F09BFBDD
:1021B8005FE741F2D121074800F095FB63E741F260
:1021C800D221044800F08FFB61E700BF8800FEFFC2
:1021D800002C0140BC2C00082368444A934217D0C5
:1021E800B3F1804F14D0A2F59432934210D002F587
:1021F800806293420CD002F59632934208D002F5E1
:102208004062934204D041F2E121394800F06BFB6F
:102218006B68B3F5004F04D01BB1022B01D00A2B19
:102228000CD1EB680F2B0FD8EA6869682068FFF7B4
:10223800C3F950212068FFF7E6F99BE741F2E42152
:102248002B4800F050FBECE741F2E521284800F06C
:102258004AFBE9E741F2F421254800F044FB9DE6FA
:1022680041F2F521224800F03EFB9BE623681F4A15
:10227800934217D0B3F1804F14D0A2F59432934211
:1022880010D002F5806293420CD002F59632934248
:1022980008D002F54062934204D041F2013114485B
:1022A80000F021FB6B68B3F5004F04D01BB1022B83
:1022B80001D00A2B0CD1EB680F2B0FD8EA6869689C
:1022C8002068FFF779F940212068FFF79CF951E76A
:1022D80041F20431064800F006FBECE741F2053113
:1022E800034800F000FBE9E7022049E7002C014021
:1022F800BC2C000870B504460D461646214B984282
:102308001FD0B0F1804F1CD0A3F59433984218D059
:1023180003F58063984214D003F59633984210D0A1
:1023280003F5406398420CD003F58063984208D0C7
:1023380003F58063984204D041F66C31124800F0EE
:10234800D2FA85B1042D0ED0082D0CD00C2D0AD050
:10235800102D08D0142D06D03C2D04D041F66D3137
:10236800094800F0C0FA05F01F05012303FA05F239
:10237800236A23EA02032362236A06FA05F51D434A
:10238800256270BD002C0140BC2C000838B50446FD
:102398000D460368444A934245D0B3F1804F4FD06D
:1023A800424A934255D0424A93425BD0414A9342B3
:1023B80061D0414A93426BD0404A93426DD0404A23
:1023C80093426DD040F223513E4800F08CFA01222E
:1023D80029462068FFF78EFF2368334A93420FD0BF
:1023E80002F5006293420BD002F54062934207D097
:1023F80002F58062934203D002F58062934203D1D2
:102408005A6C42F400425A64226891682E4B0B4081
:10241800062B06D0B3F5803F03D0136843F00103C1
:102428001360002038BD0029D1D00429CFD0082955
:10243800CDD00C29CBD01029C9D01429ADD1C6E7ED
:10244800002DC4D0042DC2D0082DC0D00C2DA7D18A
:10245800BDE7002DBBD0042DB9D0082DB7D00C2D69
:10246800A1D1B4E7002DB2D0042DB0D0082DAED044
:102478000C2D9BD1ABE7002DA9D0042DA7D0082D9A
:10248800A5D00C2DA3D0102DA1D0142D91D19EE74D
:10249800002D9CD0042D8FD199E7002D97D08EE781
:1024A800002D94D08EE700BF002C014000040040AE
:1024B8000008004000340140004001400044014051
:1024C80000480140BC2C000807000100F8B504468C
:1024D8000D4603685D4A93421FD0B3F1804F1CD06C
:1024E800A2F59432934218D002F58062934214D038
:1024F80002F50062934210D002F5806293420CD03C
:1025080002F59032934208D002F54062934204D01B
:1025180040F267614E4800F0E6F92B686BB1102B6A
:102528000BD0202B09D0302B07D0402B05D0502BB7
:1025380003D0602B01D0702B79D1AB68802B01D0F0
:10254800002B7AD194F83C30012B7CD0012384F8FD
:102558003C30022384F83D3023685E689F683B4A1C
:10256800934203D002F50062934237D16B688BB374
:10257800B3F5801F2ED0B3F5001F2BD0B3F5401F45
:1025880028D0B3F5800F25D0B3F5A00F22D0B3F52E
:10259800C00F1FD0B3F5E00F1CD0B3F5000F19D052
:1025A800B3F5100F16D0B3F5200F13D0B3F5300FD5
:1025B80010D0B3F5400F0DD0B3F5500F0AD0B3F5D6
:1025C800600F07D0B3F5700F04D040F27C6120484B
:1025D80000F089F926F470066B681E4326F0700631
:1025E8002B681E4323685E602368184A934212D002
:1025F800B3F1804F0FD0A2F5943293420BD002F57D
:102608008062934207D002F59632934203D002F5D6
:102618004062934204D127F08007AA6817439F605D
:10262800012384F83D30002084F83C00F8BD4FF4C5
:10263800CD61074800F057F97FE740F26961044827
:1026480000F051F97EE70220F0E700BF002C0140BE
:10265800F42C000870B506460D4603686C4A934290
:1026680014D002F50062934210D002F54062934202
:102678000CD002F58062934208D002F58062934242
:1026880004D040F2B261634800F02DF92B68B3F52D
:10269800006F01D0002B76D16B68B3F5806F01D045
:1026A800002B76D1AB6843B1B3F5807F05D0B3F585
:1026B800007F02D0B3F5407F71D1EB68FF2B74D84F
:1026C8002B69B3F5805F01D0002B74D16B6913B10E
:1026D800B3F5005F75D1AB690F2B78D8AB6AB3F54A
:1026E800804F01D0002B78D196F83C30012B00F0B8
:1026F8008C80012386F83C30EB6823F44074AB6887
:102708001C4324F480646B681C4324F400642B6825
:102718001C4324F480542B691C4324F400546B6933
:102728001C4324F48044AB6A1C4324F47024AB6932
:1027380044EA03443368364A934203D002F5006200
:1027480093421AD1EB69B3F1807F01D0002B4AD1B3
:102758002B6A13B1B3F1007F4BD16B6A0F2B4ED8A4
:1027680024F470046B6A44EA035424F08074EB691F
:102778001C4324F000742B6A1C4333685C640020FB
:1027880086F83C0070BD40F2B361224800F0ABF817
:1027980082E740F2B4611F4800F0A5F882E740F2F2
:1027A800B5611C4800F09FF887E740F2B661194808
:1027B80000F099F884E740F2B761164800F093F802
:1027C80084E74FF4D761134800F08DF883E740F2AF
:1027D800BA61104800F087F880E740F2BC610D4804
:1027E80000F081F880E740F2D4610A4800F07BF8F5
:1027F800AEE740F2D561074800F075F8ADE740F262
:10280800D661044800F06FF8AAE70220BAE700BFD3
:10281800002C0140F42C000882B00A4B5A6942F49B
:1028280080025A615A6902F480020092009A5A6939
:1028380042F400125A615B6903F400130193019B8F
:1028480002B070470010024030B59FB0202200212E
:1028580015A800F089F900240F941094119412948B
:1028680013943C222146684600F07EF9022514950F
:1028780001231893102319931B954FF480131D936C
:1028880014A8FDF7D1FE0F230F93109511944FF460
:1028980080631293139421460FA8FEF7AFFA4FF402
:1028A800805300930C946846FEF7D8FB1FB030BDE8
:1028B80008B5FDF7A9FCFFF7C7FFFFF7ADFF00F06C
:1028C80087F800210548FFF761FD054B0F225A6381
:1028D8004FF47A70FDF7BCFCF7E700BF2C0000202E
:1028E800002C01407047704782B00A4B9A6942F049
:1028F80001029A619A6902F001020092009ADA696B
:1029080042F08052DA61DB6903F080530193019B46
:1029180002B07047001002407047FEE7FEE7FEE78E
:10292800FEE770477047704708B5FDF77FFC08BDA4
:10293800054BD3F8882042F47002C3F888204FF082
:1029480000629A60704700BF00ED00E00268094B22
:102958009A4200D0704782B003F564439A6942F402
:1029680000629A619B6903F400630193019B02B0C2
:10297800704700BF002C014000B587B000230193C9
:10298800029303930493059302680F4B9A4202D073
:1029980007B05DF804FB03F564435A6942F400127A
:1029A8005A615B6903F400130093009B4FF40073B2
:1029B80001930223029303220492059301A9034879
:1029C800FDF7D4FCE4E700BF002C014000100048EC
:1029D80010B59AB000241694179418941994139467
:1029E800149415940C940D940E940F9410941194BF
:1029F80012942C22214601A800F0B6F83148324B37
:102A080003604FF4166343608460C723C3600461A6
:102A180044618461FEF786FF002841D11AA94FF46A
:102A2800805341F8103D2748FFF75AFA00283AD159
:102A38002448FEF7EBFF002838D1002313931493A2
:102A4800159313A91F48FFF741FD002831D16023D2
:102A58000C9300220D920E920F9204231093119260
:102A680012920CA91748FFF7B1F828BB002301936D
:102A780002930393049305934FF40052069207932D
:102A880008934FF0007209920A930B9301A90D481D
:102A9800FFF7E0FD98B90B48FFF76EFF1AB010BDBD
:102AA800FFF720FFBAE7FFF71DFFC1E7FFF71AFF9F
:102AB800C3E7FFF717FFCAE7FFF714FFD6E7FFF7EB
:102AC80011FFE8E72C000020002C0140DFF834D08B
:102AD800002103E00C4B5B58435004310B480C4B6E
:102AE80042189A42F6D30B4A02E0002342F8043B0C
:102AF800094B9A42F9D3FFF71BFF00F011F8FFF7D3
:102B0800D7FEFEE700A00020382D000800000020B6
:102B18000C0000200C0000206C000020FEE70000E4
:102B280070B50D4E0D4CA41BA4100025A54209D16B
:102B38000B4E0C4C00F020F8A41BA4100025A54255
:102B480005D170BD56F8253098470135EEE756F89F
:102B5800253098470135F2E7302D0008302D000860
:102B6800302D0008342D000802440346934200D15A
:102B7800704703F8011BF9E7F8B500BFF8BC08BCBB
:102B88009E467047F8B500BFF8BC08BC9E46704723
:102B980002030405060708090A0B0C0D0E0F101096
:102BA8000102030405060708090A0B0C0D0E0F1095
:102BB80000000000000000000102030406070809E5
:102BC80000000000010203042E2E2F44726976656E
:102BD80072732F53544D3332463378785F48414CE3
:102BE8005F4472697665722F5372632F73746D3305
:102BF80032663378785F68616C5F636F727465788A
:102C08002E6300002E2E2F447269766572732F533F
:102C1800544D3332463378785F48414C5F4472698B
:102C28007665722F5372632F73746D3332663378FF
:102C3800785F68616C5F6770696F2E6300000000E1
:102C48002E2E2F447269766572732F53544D33328A
:102C5800463378785F48414C5F4472697665722FD5
:102C68005372632F73746D3332663378785F68619B
:102C78006C5F7263632E63002E2E2F447269766533
:102C880072732F53544D3332463378785F48414C32
:102C98005F4472697665722F5372632F73746D3354
:102CA80032663378785F68616C5F7263635F6578FA
:102CB8002E6300002E2E2F447269766572732F538F
:102CC800544D3332463378785F48414C5F447269DB
:102CD8007665722F5372632F73746D33326633784F
:102CE800785F68616C5F74696D2E63002E2E2F44C7
:102CF8007269766572732F53544D33324633787840
:102D08005F48414C5F4472697665722F5372632F36
:102D180073746D3332663378785F68616C5F746999
:082D28006D5F65782E63000069
:042D3000AD010008E9
:042D34008901000809
:0C2D3800010000001000000000127A00F2
:0400000508002AD5F0
:00000001FF
